###############################################################################
#
# IAR C/C++ Compiler V10.10.1.4655 for 8051               24/Dec/2021  00:29:09
# Copyright 2004-2017 IAR Systems AB.
# Standalone license - IAR Embedded Workbench for 8051
#
#    Core               =  plain
#    Code model         =  banked
#    Data model         =  large
#    Calling convention =  xdata reentrant
#    Constant location  =  data_rom
#    Dptr setup         =  1,16
#                          
#    Source file        =  C:\TI\Z-Stack 3.0.2\Components\stack\zdo\ZDObject.c
#    Command line       =  
#        -f C:\Users\artkh\AppData\Local\Temp\EWD679.tmp ("C:\TI\Z-Stack
#        3.0.2\Components\stack\zdo\ZDObject.c" -lC "C:\TI\Z-Stack
#        3.0.2\Projects\zstack\HomeAutomation\GenericApp_TEST\CC2531\CoordinatorEB\List"
#        -lA "C:\TI\Z-Stack
#        3.0.2\Projects\zstack\HomeAutomation\GenericApp_TEST\CC2531\CoordinatorEB\List"
#        --diag_suppress Pe001,Pa010 -o "C:\TI\Z-Stack
#        3.0.2\Projects\zstack\HomeAutomation\GenericApp_TEST\CC2531\CoordinatorEB\Obj"
#        -e --debug --core=plain --dptr=16,1 --data_model=large
#        --code_model=banked --calling_convention=xdata_reentrant
#        --place_constants=data_rom --nr_virtual_regs 16 --preinclude
#        "C:\TI\Z-Stack
#        3.0.2\Projects\zstack\HomeAutomation\GenericApp_TEST\CC2531\..\Source\preinclude.h"
#        -f "C:\TI\Z-Stack
#        3.0.2\Projects\zstack\HomeAutomation\GenericApp_TEST\CC2531\..\..\..\Tools\CC2530DB\f8wCoord.cfg"
#        (-DCPU32MHZ -DROOT=__near_func -DMAC_CFG_APP_PENDING_QUEUE=TRUE
#        -DMAC_CFG_TX_DATA_MAX=5 -DMAC_CFG_TX_MAX=8 -DMAC_CFG_RX_MAX=5
#        -DZDO_COORDINATOR -DRTR_NWK) -f "C:\TI\Z-Stack
#        3.0.2\Projects\zstack\HomeAutomation\GenericApp_TEST\CC2531\..\..\..\Tools\CC2530DB\f8wConfig.cfg"
#        (-DZIGBEEPRO -DSECURE=1 -DZG_SECURE_DYNAMIC=0 -DREFLECTOR
#        -DDEFAULT_CHANLIST=0x07FFF800 -DZDAPP_CONFIG_PAN_ID=0xFFFF
#        -DNWK_START_DELAY=100 -DEXTENDED_JOINING_RANDOM_MASK=0x007F
#        -DBEACON_REQUEST_DELAY=100 -DBEACON_REQ_DELAY_MASK=0x00FF
#        -DLINK_STATUS_JITTER_MASK=0x007F -DROUTE_EXPIRY_TIME=30
#        -DAPSC_ACK_WAIT_DURATION_POLLED=3000 -DNWK_INDIRECT_MSG_TIMEOUT=7
#        -DMAX_RREQ_ENTRIES=8 -DAPSC_MAX_FRAME_RETRIES=3
#        -DNWK_MAX_DATA_RETRIES=2 -DMAX_POLL_FAILURE_RETRIES=2 -DMAX_BCAST=9
#        -DAPS_MAX_GROUPS=16 -DMAX_RTG_ENTRIES=40 -DNWK_MAX_BINDING_ENTRIES=4
#        -DMAX_BINDING_CLUSTER_IDS=4 -DDEFAULT_KEY={0} -DMAC_MAX_FRAME_SIZE=116
#        -DZDNWKMGR_MIN_TRANSMISSIONS=20 "-DCONST=const __code"
#        -DGENERIC=__generic -DRFD_RCVC_ALWAYS_ON=FALSE -DPOLL_RATE=1000
#        -DQUEUED_POLL_RATE=100 -DRESPONSE_POLL_RATE=100 -DREJOIN_POLL_RATE=440
#        -DREJOIN_BACKOFF=900000 -DREJOIN_SCAN=900000 -DENABLE_LED4_DISABLE_S1)
#        -f "C:\TI\Z-Stack
#        3.0.2\Projects\zstack\HomeAutomation\GenericApp_TEST\CC2531\..\..\..\Tools\CC2530DB\f8wZCL.cfg"
#        -I "C:\TI\Z-Stack
#        3.0.2\Projects\zstack\HomeAutomation\GenericApp_TEST\CC2531\" -I
#        "C:\TI\Z-Stack
#        3.0.2\Projects\zstack\HomeAutomation\GenericApp_TEST\CC2531\..\Source\"
#        -I "C:\TI\Z-Stack
#        3.0.2\Projects\zstack\HomeAutomation\GenericApp_TEST\CC2531\..\..\Source\"
#        -I "C:\TI\Z-Stack
#        3.0.2\Projects\zstack\HomeAutomation\GenericApp_TEST\CC2531\..\..\..\ZMain\TI2530DB\"
#        -I "C:\TI\Z-Stack
#        3.0.2\Projects\zstack\HomeAutomation\GenericApp_TEST\CC2531\..\..\..\..\..\Components\hal\include\"
#        -I "C:\TI\Z-Stack
#        3.0.2\Projects\zstack\HomeAutomation\GenericApp_TEST\CC2531\..\..\..\..\..\Components\hal\target\CC2530USB\"
#        -I "C:\TI\Z-Stack
#        3.0.2\Projects\zstack\HomeAutomation\GenericApp_TEST\CC2531\..\..\..\..\..\Components\hal\target\CC2530USB\usb\library\"
#        -I "C:\TI\Z-Stack
#        3.0.2\Projects\zstack\HomeAutomation\GenericApp_TEST\CC2531\..\..\..\..\..\Components\hal\target\CC2530USB\usb\library\cc2531\"
#        -I "C:\TI\Z-Stack
#        3.0.2\Projects\zstack\HomeAutomation\GenericApp_TEST\CC2531\..\..\..\..\..\Components\hal\target\CC2530USB\usb\class_cdc\"
#        -I "C:\TI\Z-Stack
#        3.0.2\Projects\zstack\HomeAutomation\GenericApp_TEST\CC2531\..\..\..\..\..\Components\mac\include\"
#        -I "C:\TI\Z-Stack
#        3.0.2\Projects\zstack\HomeAutomation\GenericApp_TEST\CC2531\..\..\..\..\..\Components\mac\high_level\"
#        -I "C:\TI\Z-Stack
#        3.0.2\Projects\zstack\HomeAutomation\GenericApp_TEST\CC2531\..\..\..\..\..\Components\mac\low_level\srf04\"
#        -I "C:\TI\Z-Stack
#        3.0.2\Projects\zstack\HomeAutomation\GenericApp_TEST\CC2531\..\..\..\..\..\Components\mac\low_level\srf04\single_chip\"
#        -I "C:\TI\Z-Stack
#        3.0.2\Projects\zstack\HomeAutomation\GenericApp_TEST\CC2531\..\..\..\..\..\Components\mt\"
#        -I "C:\TI\Z-Stack
#        3.0.2\Projects\zstack\HomeAutomation\GenericApp_TEST\CC2531\..\..\..\..\..\Components\osal\include\"
#        -I "C:\TI\Z-Stack
#        3.0.2\Projects\zstack\HomeAutomation\GenericApp_TEST\CC2531\..\..\..\..\..\Components\services\saddr\"
#        -I "C:\TI\Z-Stack
#        3.0.2\Projects\zstack\HomeAutomation\GenericApp_TEST\CC2531\..\..\..\..\..\Components\services\sdata\"
#        -I "C:\TI\Z-Stack
#        3.0.2\Projects\zstack\HomeAutomation\GenericApp_TEST\CC2531\..\..\..\..\..\Components\stack\af\"
#        -I "C:\TI\Z-Stack
#        3.0.2\Projects\zstack\HomeAutomation\GenericApp_TEST\CC2531\..\..\..\..\..\Components\stack\bdb\"
#        -I "C:\TI\Z-Stack
#        3.0.2\Projects\zstack\HomeAutomation\GenericApp_TEST\CC2531\..\..\..\..\..\Components\stack\gp\"
#        -I "C:\TI\Z-Stack
#        3.0.2\Projects\zstack\HomeAutomation\GenericApp_TEST\CC2531\..\..\..\..\..\Components\stack\nwk\"
#        -I "C:\TI\Z-Stack
#        3.0.2\Projects\zstack\HomeAutomation\GenericApp_TEST\CC2531\..\..\..\..\..\Components\stack\sapi\"
#        -I "C:\TI\Z-Stack
#        3.0.2\Projects\zstack\HomeAutomation\GenericApp_TEST\CC2531\..\..\..\..\..\Components\stack\sec\"
#        -I "C:\TI\Z-Stack
#        3.0.2\Projects\zstack\HomeAutomation\GenericApp_TEST\CC2531\..\..\..\..\..\Components\stack\sys\"
#        -I "C:\TI\Z-Stack
#        3.0.2\Projects\zstack\HomeAutomation\GenericApp_TEST\CC2531\..\..\..\..\..\Components\stack\zcl\"
#        -I "C:\TI\Z-Stack
#        3.0.2\Projects\zstack\HomeAutomation\GenericApp_TEST\CC2531\..\..\..\..\..\Components\stack\zdo\"
#        -I "C:\TI\Z-Stack
#        3.0.2\Projects\zstack\HomeAutomation\GenericApp_TEST\CC2531\..\..\..\..\..\Components\zmac\"
#        -I "C:\TI\Z-Stack
#        3.0.2\Projects\zstack\HomeAutomation\GenericApp_TEST\CC2531\..\..\..\..\..\Components\zmac\f8w\"
#        -Ohz --require_prototypes)
#    Locale             =  English_United States.1252
#    List file          =  
#        C:\TI\Z-Stack
#        3.0.2\Projects\zstack\HomeAutomation\GenericApp_TEST\CC2531\CoordinatorEB\List\ZDObject.lst
#    Object file        =  
#        C:\TI\Z-Stack
#        3.0.2\Projects\zstack\HomeAutomation\GenericApp_TEST\CC2531\CoordinatorEB\Obj\ZDObject.r51
#
###############################################################################

C:\TI\Z-Stack 3.0.2\Components\stack\zdo\ZDObject.c
      1          /**************************************************************************************************
      2            Filename:       ZDObject.c
      3            Revised:        $Date: 2015-10-01 15:01:50 -0700 (Thu, 01 Oct 2015) $
      4            Revision:       $Revision: 44513 $
      5          
      6            Description:    This is the Zigbee Device Object.
      7          
      8          
      9            Copyright 2004-2015 Texas Instruments Incorporated. All rights reserved.
     10          
     11            IMPORTANT: Your use of this Software is limited to those specific rights
     12            granted under the terms of a software license agreement between the user
     13            who downloaded the software, his/her employer (which must be your employer)
     14            and Texas Instruments Incorporated (the "License"). You may not use this
     15            Software unless you agree to abide by the terms of the License. The License
     16            limits your use, and you acknowledge, that the Software may not be modified,
     17            copied or distributed unless embedded on a Texas Instruments microcontroller
     18            or used solely and exclusively in conjunction with a Texas Instruments radio
     19            frequency transceiver, which is integrated into your product. Other than for
     20            the foregoing purpose, you may not use, reproduce, copy, prepare derivative
     21            works of, modify, distribute, perform, display or sell this Software and/or
     22            its documentation for any purpose.
     23          
     24            YOU FURTHER ACKNOWLEDGE AND AGREE THAT THE SOFTWARE AND DOCUMENTATION ARE
     25            PROVIDED "AS IS" WITHOUT WARRANTY OF ANY KIND, EITHER EXPRESS OR IMPLIED,
     26            INCLUDING WITHOUT LIMITATION, ANY WARRANTY OF MERCHANTABILITY, TITLE,
     27            NON-INFRINGEMENT AND FITNESS FOR A PARTICULAR PURPOSE. IN NO EVENT SHALL
     28            TEXAS INSTRUMENTS OR ITS LICENSORS BE LIABLE OR OBLIGATED UNDER CONTRACT,
     29            NEGLIGENCE, STRICT LIABILITY, CONTRIBUTION, BREACH OF WARRANTY, OR OTHER
     30            LEGAL EQUITABLE THEORY ANY DIRECT OR INDIRECT DAMAGES OR EXPENSES
     31            INCLUDING BUT NOT LIMITED TO ANY INCIDENTAL, SPECIAL, INDIRECT, PUNITIVE
     32            OR CONSEQUENTIAL DAMAGES, LOST PROFITS OR LOST DATA, COST OF PROCUREMENT
     33            OF SUBSTITUTE GOODS, TECHNOLOGY, SERVICES, OR ANY CLAIMS BY THIRD PARTIES
     34            (INCLUDING BUT NOT LIMITED TO ANY DEFENSE THEREOF), OR OTHER SIMILAR COSTS.
     35          
     36            Should you have any questions regarding your right to use this Software,
     37            contact Texas Instruments Incorporated at www.TI.com.
     38          **************************************************************************************************/
     39          
     40          /*********************************************************************
     41           * INCLUDES
     42           */
     43          #include "ZComDef.h"
     44          #include "OSAL.h"
     45          #include "OSAL_Nv.h"
     46          #include "rtg.h"
     47          #include "NLMEDE.h"
     48          #include "nwk_globals.h"
     49          #include "APS.h"
     50          #include "APSMEDE.h"
     51          #include "AssocList.h"
     52          #include "BindingTable.h"
     53          #include "AddrMgr.h"
     54          #include "AF.h"
     55          #include "ZDObject.h"
     56          #include "ZDProfile.h"
     57          #include "ZDConfig.h"
     58          #include "ZDSecMgr.h"
     59          #include "ZDApp.h"
     60          #include "nwk_util.h"   // NLME_IsAddressBroadcast()
     61          #include "ZGlobals.h"
     62          #if defined MT_ZDO_CB_FUNC
     63          #include "MT.h"
     64          #endif
     65          
     66          #include "bdb.h"
     67          
     68          #if !defined (DISABLE_GREENPOWER_BASIC_PROXY) && (ZG_BUILD_RTR_TYPE)
     69          #include "gp_common.h"
     70          #endif
     71           
     72          #if defined( LCD_SUPPORTED )
     73            #include "OnBoard.h"
     74          #endif
     75          
     76          /* HAL */
     77          #include "hal_lcd.h"
     78          
     79          #ifdef MODKAMRU_V3
     80          #include "hal_led.h"
     81          #endif
     82          
     83          /*********************************************************************
     84           * MACROS
     85           */
     86          
     87          /*********************************************************************
     88           * CONSTANTS
     89           */
     90          // NLME Stub Implementations
     91          #define ZDO_ProcessMgmtPermitJoinTimeout NLME_PermitJoiningTimeout
     92          
     93          /*********************************************************************
     94           * TYPEDEFS
     95           */
     96          #if defined ( REFLECTOR )
     97          typedef struct
     98          {
     99            byte SrcTransSeq;
    100            zAddrType_t SrcAddr;
    101            uint16 LocalCoordinator;
    102            byte epIntf;
    103            uint16 ProfileID;
    104            byte numInClusters;
    105            uint16 *inClusters;
    106            byte numOutClusters;
    107            uint16 *outClusters;
    108            byte SecurityUse;
    109            byte status;
    110          } ZDO_EDBind_t;
    111          #endif // defined ( REFLECTOR )
    112          
    113          enum
    114          {
    115            ZDMATCH_INIT,           // Initialized
    116            ZDMATCH_WAIT_REQ,       // Received first request, waiting for second
    117            ZDMATCH_SENDING_BINDS   // Received both requests, sending unbind/binds
    118          };
    119          
    120          enum
    121          {
    122            ZDMATCH_SENDING_NOT,
    123            ZDMATCH_SENDING_UNBIND,
    124            ZDMATCH_SENDING_BIND
    125          };
    126          
    127          /*********************************************************************
    128           * GLOBAL VARIABLES
    129           */
    130          
    131          /*********************************************************************
    132           * EXTERNAL VARIABLES
    133           */
    134          
    135          extern bool  requestNewTrustCenterLinkKey;   
    136             
    137          /*********************************************************************
    138           * EXTERNAL FUNCTIONS
    139           */
    140          
    141          /*********************************************************************
    142           * LOCAL VARIABLES
    143           */

   \                                 In  segment XDATA_Z, align 1, keep-with-next
    144          static uint16 ZDOBuildBuf[26];  // temp area to build data without allocation
   \                     ZDOBuildBuf:
   \   000000                DS 52
   \   000034                REQUIRE __INIT_XDATA_Z
    145          
    146          #if defined ( REFLECTOR )

   \                                 In  segment XDATA_Z, align 1, keep-with-next
    147          static ZDO_EDBind_t *ZDO_EDBind;     // Null when not used
   \                     ZDO_EDBind:
   \   000000                DS 2
   \   000002                REQUIRE __INIT_XDATA_Z
    148          #endif
    149          
    150          #if defined ( MANAGED_SCAN )
    151            uint32 managedScanNextChannel = 0;
    152            uint32 managedScanChannelMask = 0;
    153            uint8  managedScanTimesPerChannel = 0;
    154          #endif
    155          

   \                                 In  segment XDATA_Z, align 1, keep-with-next
    156          ZDMatchEndDeviceBind_t *matchED = (ZDMatchEndDeviceBind_t *)NULL;
   \                     matchED:
   \   000000                DS 2
   \   000002                REQUIRE __INIT_XDATA_Z
    157          

   \                                 In  segment XDATA_Z, align 1, keep-with-next
    158          uint32 apsChannelMask = 0;
   \                     apsChannelMask:
   \   000000                DS 4
   \   000004                REQUIRE __INIT_XDATA_Z
    159          

   \                                 In  segment XDATA_I, align 1, keep-with-next
    160          int16 zdpExternalStateTaskID = -1;
   \                     zdpExternalStateTaskID:
   \   000000                DS 2
   \   000002                REQUIRE `?<Initializer for zdpExternalStateTaskID>`
   \   000002                REQUIRE __INIT_XDATA_I
    161          
    162          /*********************************************************************
    163           * LOCAL FUNCTIONS
    164           */
    165          static void ZDODeviceSetup( void );
    166          #if defined ( MANAGED_SCAN )
    167            static void ZDOManagedScan_Next( void );
    168          #endif
    169          #if defined ( REFLECTOR )
    170            static void ZDO_RemoveEndDeviceBind( void );
    171            static void ZDO_SendEDBindRsp( byte TransSeq, zAddrType_t *dstAddr, byte Status, byte secUse );
    172          #endif
    173          #if ( ZG_BUILD_COORDINATOR_TYPE )
    174            static byte ZDO_CompareClusterLists( byte numList1, uint16 *list1,
    175                                                 byte numList2, uint16 *list2, uint16 *pMatches );
    176            static void ZDO_RemoveMatchMemory( void );
    177            static uint8 ZDO_CopyMatchInfo( ZDEndDeviceBind_t *destReq, ZDEndDeviceBind_t *srcReq );
    178            static void ZDO_EndDeviceBindMatchTimeoutCB( void );
    179          #endif
    180          uint8 *ZDO_ConvertOTAClusters( uint8 cnt, uint8 *inBuf, uint16 *outList );
    181          static void zdoSendStateChangeMsg(uint8 state, uint8 taskId);
    182          
    183          /*********************************************************************
    184           * @fn          ZDO_Init
    185           *
    186           * @brief       ZDObject and ZDProfile initialization.
    187           *
    188           * @param       none
    189           *
    190           * @return      none
    191           */

   \                                 In  segment BANKED_CODE, align 1, keep-with-next
    192          void ZDO_Init( void )
   \                     ZDO_Init:
    193          {
   \   000000   C082         PUSH      DPL
   \   000002   C083         PUSH      DPH
   \   000004                ; Saved register size: 2
   \   000004                ; Auto size: 0
    194            // Initialize ZD items
    195            #if defined ( REFLECTOR )
    196            ZDO_EDBind = NULL;
   \   000004   90....       MOV       DPTR,#ZDO_EDBind
   \   000007   E4           CLR       A
   \   000008   F0           MOVX      @DPTR,A
   \   000009   A3           INC       DPTR
   \   00000A   F0           MOVX      @DPTR,A
    197            #endif
    198          
    199            // Initialize default ZDO_UseExtendedPANID to the APS one.
    200            osal_cpyExtAddr( ZDO_UseExtendedPANID, AIB_apsUseExtendedPANID );
   \   00000B                ; Setup parameters for call to function sAddrExtCpy
   \   00000B   7C..         MOV       R4,#AIB_apsUseExtendedPANID & 0xff
   \   00000D   7D..         MOV       R5,#(AIB_apsUseExtendedPANID >> 8) & 0xff
   \   00000F   7A..         MOV       R2,#ZDO_UseExtendedPANID & 0xff
   \   000011   7B..         MOV       R3,#(ZDO_UseExtendedPANID >> 8) & 0xff
   \   000013   12....       LCALL     `??sAddrExtCpy::?relay`; Banked call to: sAddrExtCpy
    201          
    202            // Setup the device - type of device to create.
    203            ZDODeviceSetup();
   \   000016                ; Setup parameters for call to function NLME_CoordinatorInit
   \   000016   12....       LCALL     `??NLME_CoordinatorInit::?relay`; Banked call to: NLME_CoordinatorInit
   \   000019                ; Setup parameters for call to function APS_ReflectorInit
   \   000019   12....       LCALL     `??APS_ReflectorInit::?relay`; Banked call to: APS_ReflectorInit
    204          }
   \   00001C   02....       LJMP      ?Subroutine0 & 0xFFFF

   \                                 In  segment BANKED_CODE, align 1, keep-with-next
   \                     ?Subroutine0:
   \   000000   D083         POP       DPH
   \   000002   D082         POP       DPL
   \   000004   02....       LJMP      ?BRET
    205          
    206          #if defined ( MANAGED_SCAN )
    207          /*********************************************************************
    208           * @fn      ZDOManagedScan_Next()
    209           *
    210           * @brief   Setup a managed scan.
    211           *
    212           * @param   none
    213           *
    214           * @return  none
    215           */
    216          static void ZDOManagedScan_Next( void )
    217          {
    218            // Is it the first time
    219            if ( managedScanNextChannel == 0 && managedScanTimesPerChannel == 0 )
    220            {
    221              // Setup the defaults
    222              managedScanNextChannel  = 1;
    223          
    224              while( managedScanNextChannel && (runtimeChannel & managedScanNextChannel) == 0 )
    225                managedScanNextChannel <<= 1;
    226          
    227              managedScanChannelMask = managedScanNextChannel;
    228              managedScanTimesPerChannel = MANAGEDSCAN_TIMES_PRE_CHANNEL;
    229            }
    230            else
    231            {
    232              // Do we need to go to the next channel
    233              if ( managedScanTimesPerChannel == 0 )
    234              {
    235                // Find next active channel
    236                managedScanChannelMask  = managedScanNextChannel;
    237                managedScanTimesPerChannel = MANAGEDSCAN_TIMES_PRE_CHANNEL;
    238              }
    239              else
    240              {
    241                managedScanTimesPerChannel--;
    242          
    243                if ( managedScanTimesPerChannel == 0 )
    244                {
    245                  managedScanNextChannel  <<= 1;
    246                  while( managedScanNextChannel && (runtimeChannel & managedScanNextChannel) == 0 )
    247                    managedScanNextChannel <<= 1;
    248          
    249                  if ( managedScanNextChannel == 0 )
    250                    zdoDiscCounter  = NUM_DISC_ATTEMPTS + 1; // Stop
    251                }
    252              }
    253            }
    254          }
    255          #endif // MANAGED_SCAN
    256          
    257          /*********************************************************************
    258           * @fn      ZDODeviceSetup()
    259           *
    260           * @brief   Call set functions depending on the type of device compiled.
    261           *
    262           * @param   none
    263           *
    264           * @return  none
    265           */
    266          static void ZDODeviceSetup( void )
    267          {
    268            if ( ZG_BUILD_COORDINATOR_TYPE )
    269            {
    270              NLME_CoordinatorInit();
    271            }
    272          
    273          #if defined ( REFLECTOR )
    274            APS_ReflectorInit();
    275          #endif
    276          
    277            if ( ZG_BUILD_JOINING_TYPE )
    278            {
    279              NLME_DeviceJoiningInit();
    280            }
    281          }
    282          
    283          
    284          
    285          
    286          /*********************************************************************
    287           * @fn          ZDO_StartDevice
    288           *
    289           * @brief       This function starts a device in a network. Added distributed network for router devices
    290           *
    291           * @param       logicalType     - Device type to start
    292           *              startMode       - indicates mode of device startup
    293           *              beaconOrder     - indicates time betwen beacons
    294           *              superframeOrder - indicates length of active superframe
    295           *              distributed     - indicates if the network will be formed
    296           *
    297           * @return      none
    298           */

   \                                 In  segment BANKED_CODE, align 1, keep-with-next
    299          void ZDO_StartDevice( byte logicalType, devStartModes_t startMode, byte beaconOrder, byte superframeOrder )
   \                     ZDO_StartDevice:
    300          {
   \   000000                REQUIRE ?V0
   \   000000                REQUIRE ?V1
   \   000000                REQUIRE ?V2
   \   000000                REQUIRE ?V3
   \   000000   74F4         MOV       A,#-0xc
   \   000002   12....       LCALL     ?BANKED_ENTER_XDATA
   \   000005                ; Saved register size: 12
   \   000005                ; Auto size: 0
   \   000005   E9           MOV       A,R1
   \   000006   FF           MOV       R7,A
   \   000007   8A..         MOV       ?V0,R2
   \   000009   EB           MOV       A,R3
   \   00000A   FE           MOV       R6,A
   \   00000B   8C..         MOV       ?V1,R4
    301            ZStatus_t ret;
    302          #if defined ( ZIGBEE_FREQ_AGILITY )
    303            static uint8 discRetries = 0;
    304          #endif
    305          #if defined ( ZIGBEE_COMMISSIONING )
    306            static uint8 scanCnt = 0;
    307          #endif
    308          
    309            ret = ZUnsupportedMode;
    310          
    311            if ( ZG_BUILD_COORDINATOR_TYPE && logicalType == NODETYPE_COORDINATOR )
   \   00000D   EF           MOV       A,R7
   \   00000E   7072         JNZ       ??ZDO_StartDevice_0
    312            {
    313              if ( startMode == MODE_HARD )
   \   000010   7402         MOV       A,#0x2
   \   000012   65..         XRL       A,?V0
   \   000014   7049         JNZ       ??ZDO_StartDevice_1
    314              {
    315                ZDApp_ChangeState( DEV_COORD_STARTING );
   \   000016                ; Setup parameters for call to function ZDApp_ChangeState
   \   000016   7908         MOV       R1,#0x8
   \   000018   12....       LCALL     `??ZDApp_ChangeState::?relay`; Banked call to: ZDApp_ChangeState
    316                ret = NLME_NetworkFormationRequest( zgConfigPANID, zgApsUseExtendedPANID, runtimeChannel,
    317                                                    zgDefaultStartingScanDuration, beaconOrder,
    318                                                    superframeOrder, false, false, 0 );
   \   00001B                ; Setup parameters for call to function NLME_NetworkFormationRequest
   \   00001B   E4           CLR       A
   \   00001C   F5..         MOV       ?V2,A
   \   00001E   F5..         MOV       ?V3,A
   \   000020   78..         MOV       R0,#?V2
   \   000022   12....       LCALL     ?PUSH_XSTACK_I_TWO
   \   000025   78..         MOV       R0,#?V2
   \   000027   12....       LCALL     ?PUSH_XSTACK_I_ONE
   \   00002A   78..         MOV       R0,#?V2
   \   00002C   12....       LCALL     ?PUSH_XSTACK_I_ONE
   \   00002F   E5..         MOV       A,?V1
   \   000031   F5..         MOV       ?V2,A
   \   000033   78..         MOV       R0,#?V2
   \   000035   12....       LCALL     ?PUSH_XSTACK_I_ONE
   \   000038   EE           MOV       A,R6
   \   000039   F5..         MOV       ?V2,A
   \   00003B   78..         MOV       R0,#?V2
   \   00003D   12....       LCALL     ?PUSH_XSTACK_I_ONE
   \   000040   90....       MOV       DPTR,#runtimeChannel
   \   000043   12....       LCALL     ?PUSH_XSTACK8_X_FOUR
   \   000046   90....       MOV       DPTR,#bdbAttributes + 13
   \   000049   E0           MOVX      A,@DPTR
   \   00004A   F9           MOV       R1,A
   \   00004B   7C..         MOV       R4,#zgApsUseExtendedPANID & 0xff
   \   00004D   7D..         MOV       R5,#(zgApsUseExtendedPANID >> 8) & 0xff
   \   00004F   90....       MOV       DPTR,#zgConfigPANID
   \   000052   12....       LCALL     ??Subroutine192_0 & 0xFFFF
    319              }
   \                     ??CrossCallReturnLabel_414:
   \   000055   12....       LCALL     `??NLME_NetworkFormationRequest::?relay`; Banked call to: NLME_NetworkFormationRequest
   \   000058   740A         MOV       A,#0xa
   \   00005A   12....       LCALL     ?DEALLOC_XSTACK8
   \   00005D   8013         SJMP      ??ZDO_StartDevice_2
    320              else if ( startMode == MODE_RESUME )
   \                     ??ZDO_StartDevice_1:
   \   00005F   7401         MOV       A,#0x1
   \   000061   65..         XRL       A,?V0
   \   000063   7012         JNZ       ??ZDO_StartDevice_3
    321              {
    322                // Just start the coordinator
    323                ZDApp_ChangeState( DEV_COORD_STARTING );
   \   000065                ; Setup parameters for call to function ZDApp_ChangeState
   \   000065   7908         MOV       R1,#0x8
   \   000067   12....       LCALL     `??ZDApp_ChangeState::?relay`; Banked call to: ZDApp_ChangeState
    324                ret = NLME_StartRouterRequest( beaconOrder, beaconOrder, false );
   \   00006A                ; Setup parameters for call to function NLME_StartRouterRequest
   \   00006A   7B00         MOV       R3,#0x0
   \   00006C   EE           MOV       A,R6
   \   00006D   FA           MOV       R2,A
   \   00006E   F9           MOV       R1,A
   \   00006F   12....       LCALL     `??NLME_StartRouterRequest::?relay`; Banked call to: NLME_StartRouterRequest
   \                     ??ZDO_StartDevice_2:
   \   000072   E9           MOV       A,R1
    325              }
    326              else
    327              {
    328          #if defined( LCD_SUPPORTED )
    329                HalLcdWriteScreen( "StartDevice ERR", "MODE unknown" );
    330          #endif
    331              }
    332            }
    333          
    334            if ( ZG_BUILD_JOINING_TYPE && (logicalType == NODETYPE_ROUTER || logicalType == NODETYPE_DEVICE) )
    335            {
    336              if ( (startMode == MODE_JOIN) || (startMode == MODE_REJOIN) )
    337              {
    338                if(APSME_IsDistributedSecurity() && (startMode != MODE_REJOIN))
    339                {
    340                        ret = NLME_NetworkFormationRequest( zgConfigPANID, zgApsUseExtendedPANID, runtimeChannel,
    341                                                    zgDefaultStartingScanDuration, beaconOrder,
    342                                                    superframeOrder, false, true, osal_rand() );
    343                  
    344                }
    345                else
    346                {
    347                  ZDApp_ChangeState( DEV_NWK_DISC );
    348          
    349                #if defined( MANAGED_SCAN )
    350                  ZDOManagedScan_Next();
    351                  ret = NLME_NetworkDiscoveryRequest( managedScanChannelMask, BEACON_ORDER_15_MSEC );
    352                #else
    353                  ret = NLME_NetworkDiscoveryRequest( runtimeChannel, zgDefaultStartingScanDuration );
    354                  #if defined ( ZIGBEE_FREQ_AGILITY )
    355                  if ( !( ZDO_Config_Node_Descriptor.CapabilityFlags & CAPINFO_RCVR_ON_IDLE ) &&
    356                      ( ret == ZSuccess ) && ( ++discRetries == 4 ) )
    357                  {
    358                    // For devices with RxOnWhenIdle equals to FALSE, any network channel
    359                    // change will not be recieved. On these devices or routers that have
    360                    // lost the network, an active scan shall be conducted on the Default
    361                    // Channel list using the extended PANID to find the network. If the
    362                    // extended PANID isn't found using the Default Channel list, an scan
    363                    // should be completed using all channels.
    364                    runtimeChannel = MAX_CHANNELS_24GHZ;
    365                  }
    366                  #endif // ZIGBEE_FREQ_AGILITY
    367                  #if defined ( ZIGBEE_COMMISSIONING )
    368                  if (startMode == MODE_REJOIN && scanCnt++ >= 5 )
    369                  {
    370                    // When ApsUseExtendedPanID is commissioned to a non zero value via
    371                    // application specific means, the device shall conduct an active scan
    372                    // on the Default Channel list and join the PAN with the same
    373                    // ExtendedPanID. If the PAN is not found, an scan should be completed
    374                    // on all channels.
    375                    // When devices rejoin the network and the PAN is not found from
    376                    runtimeChannel = MAX_CHANNELS_24GHZ;
    377                  }
    378                  #endif // ZIGBEE_COMMISSIONING
    379                #endif
    380                }
    381              }
    382              else if ( startMode == MODE_RESUME )
    383              {
    384                if ( logicalType == NODETYPE_ROUTER )
    385                {
    386                  uint16 panID;
    387                  
    388                  ZDApp_ChangeState( DEV_NWK_ORPHAN );
    389                  
    390                  // Stop the rejoin timeout
    391                  osal_stop_timerEx( NWK_TaskID, NWK_REJOIN_TIMEOUT_EVT );
    392                  ZMacGetReq( ZMacPanId, (uint8 *)&( panID ) );
    393                  
    394                  _NIB.nwkPanId = panID;
    395                  NLME_JoinConfirm(  _NIB.nwkPanId, ZSuccess );
    396          
    397                  ret = ZSuccess;
    398                }
    399                else
    400                {
    401                  ZDApp_ChangeState( DEV_NWK_ORPHAN );
    402                  //set timer for scan and rejoin
    403                  osal_start_timerEx( ZDAppTaskID, ZDO_REJOIN_BACKOFF, zgDefaultRejoinScan );
    404                  ret = NLME_OrphanJoinRequest( runtimeChannel,
    405                                                zgDefaultStartingScanDuration );
    406                }
    407              }
    408              else
    409              {
    410          #if defined( LCD_SUPPORTED )
    411                HalLcdWriteScreen( "StartDevice ERR", "MODE unknown" );
    412          #endif
    413              }
    414            }
    415          
    416            if ( ret != ZSuccess )
   \   000073   700D         JNZ       ??ZDO_StartDevice_0
   \   000075   8022         SJMP      ??ZDO_StartDevice_4
   \                     ??ZDO_StartDevice_3:
   \   000077                ; Setup parameters for call to function HalLcdWriteScreen
   \   000077   7C..         MOV       R4,#`?<Constant "MODE unknown">` & 0xff
   \   000079   7D..         MOV       R5,#(`?<Constant "MODE unknown">` >> 8) & 0xff
   \   00007B   7A..         MOV       R2,#`?<Constant "StartDevice ERR">` & 0xff
   \   00007D   7B..         MOV       R3,#(`?<Constant "StartDevice ERR">` >> 8) & 0xff
   \   00007F   12....       LCALL     `??HalLcdWriteScreen::?relay`; Banked call to: HalLcdWriteScreen
    417            {
    418              osal_start_timerEx(ZDAppTaskID, ZDO_NETWORK_INIT, NWK_RETRY_DELAY );
   \                     ??ZDO_StartDevice_0:
   \   000082                ; Setup parameters for call to function osal_start_timerEx
   \   000082   90....       MOV       DPTR,#__Constant_3e8
   \   000085   12....       LCALL     ?PUSH_XSTACK8_X_FOUR
   \   000088   7A01         MOV       R2,#0x1
   \   00008A   7B00         MOV       R3,#0x0
   \   00008C   90....       MOV       DPTR,#ZDAppTaskID
   \   00008F   E0           MOVX      A,@DPTR
   \   000090   F9           MOV       R1,A
   \   000091   12....       LCALL     `??osal_start_timerEx::?relay`; Banked call to: osal_start_timerEx
   \   000094   7404         MOV       A,#0x4
   \   000096   12....       LCALL     ?DEALLOC_XSTACK8
    419            }
    420          }
   \                     ??ZDO_StartDevice_4:
   \   000099   80..         SJMP      ??Subroutine167_0

   \                                 In  segment BANKED_CODE, align 1, keep-with-next
   \                     ??Subroutine167_0:
   \   000000   7F04         MOV       R7,#0x4
   \   000002   02....       LJMP      ?BANKED_LEAVE_XDATA

   \                                 In  segment BANKED_CODE, align 1, keep-with-next
   \                     ??Subroutine192_0:
   \   000000   12....       LCALL     ??Subroutine203_0 & 0xFFFF
   \                     ??CrossCallReturnLabel_491:
   \   000003   22           RET

   \                                 In  segment BANKED_CODE, align 1, keep-with-next
   \                     ??Subroutine203_0:
   \   000000   E0           MOVX      A,@DPTR
   \   000001   FA           MOV       R2,A
   \   000002   A3           INC       DPTR
   \   000003   E0           MOVX      A,@DPTR
   \   000004   FB           MOV       R3,A
   \   000005   22           RET
    421          
    422          /**************************************************************************************************
    423           * @fn          zdoSendStateChangeMsg
    424           *
    425           * @brief       Helper function for ZDO_UpdateNwkStatus.
    426           *
    427           * input parameters
    428           *
    429           * @param       taskId - The OSAL task identifier to which to send the ZDO_STATE_CHANGE_EVT.
    430           * @param       state - The current device state.
    431           *
    432           * output parameters
    433           *
    434           * None.
    435           *
    436           * @return      None.
    437           **************************************************************************************************
    438           */

   \                                 In  segment BANKED_CODE, align 1, keep-with-next
    439          static void zdoSendStateChangeMsg(uint8 state, uint8 taskId)
   \                     zdoSendStateChangeMsg:
    440          {
   \   000000                REQUIRE ?V0
   \   000000                REQUIRE ?V1
   \   000000   74F6         MOV       A,#-0xa
   \   000002   12....       LCALL     ?BANKED_ENTER_XDATA
   \   000005                ; Saved register size: 10
   \   000005                ; Auto size: 0
   \   000005   E9           MOV       A,R1
   \   000006   FF           MOV       R7,A
   \   000007   EA           MOV       A,R2
   \   000008   FE           MOV       R6,A
    441            osal_event_hdr_t *pMsg = (osal_event_hdr_t *)osal_msg_find(taskId, ZDO_STATE_CHANGE);
   \   000009                ; Setup parameters for call to function osal_msg_find
   \   000009   7AD1         MOV       R2,#-0x2f
   \   00000B   F9           MOV       R1,A
   \   00000C   12....       LCALL     `??osal_msg_find::?relay`; Banked call to: osal_msg_find
   \   00000F   8A82         MOV       DPL,R2
   \   000011   8B83         MOV       DPH,R3
    442          
    443            if (NULL == pMsg)
   \   000013   E582         MOV       A,DPL
   \   000015   4583         ORL       A,DPH
   \   000017   702A         JNZ       ??zdoSendStateChangeMsg_0
    444            {
    445              if (NULL == (pMsg = (osal_event_hdr_t *)osal_msg_allocate(sizeof(osal_event_hdr_t))))
   \   000019                ; Setup parameters for call to function osal_msg_allocate
   \   000019   7A02         MOV       R2,#0x2
   \   00001B   7B00         MOV       R3,#0x0
   \   00001D   12....       LCALL     `??osal_msg_allocate::?relay`; Banked call to: osal_msg_allocate
   \   000020   EA           MOV       A,R2
   \   000021   4B           ORL       A,R3
   \   000022   700E         JNZ       ??zdoSendStateChangeMsg_1
    446              {
    447                // Upon failure to notify any EndPoint of the state change, re-set the ZDO event to
    448                // try again later when more Heap may be available.
    449                osal_set_event(ZDAppTaskID, ZDO_STATE_CHANGE_EVT);
   \   000024                ; Setup parameters for call to function osal_set_event
   \   000024   7A10         MOV       R2,#0x10
   \   000026   7B00         MOV       R3,#0x0
   \   000028   90....       MOV       DPTR,#ZDAppTaskID
   \   00002B   E0           MOVX      A,@DPTR
   \   00002C   F9           MOV       R1,A
   \   00002D   12....       LCALL     `??osal_set_event::?relay`; Banked call to: osal_set_event
   \   000030   8014         SJMP      ??zdoSendStateChangeMsg_2
    450              }
    451              else
    452              {
    453                pMsg->event = ZDO_STATE_CHANGE;
   \                     ??zdoSendStateChangeMsg_1:
   \   000032   8A82         MOV       DPL,R2
   \   000034   8B83         MOV       DPH,R3
   \   000036   74D1         MOV       A,#-0x2f
   \   000038   F0           MOVX      @DPTR,A
    454                pMsg->status = state;
   \   000039   EF           MOV       A,R7
   \   00003A   A3           INC       DPTR
   \   00003B   F0           MOVX      @DPTR,A
    455          
    456                (void)osal_msg_send(taskId, (uint8 *)pMsg);
   \   00003C                ; Setup parameters for call to function osal_msg_send
   \   00003C   EE           MOV       A,R6
   \   00003D   F9           MOV       R1,A
   \   00003E   12....       LCALL     `??osal_msg_send::?relay`; Banked call to: osal_msg_send
   \   000041   8003         SJMP      ??zdoSendStateChangeMsg_2
    457              }
    458            }
    459            else
    460            {
    461              // Modify in place the status of an existing ZDO_STATE_CHANGE message to the EndPoint.
    462              pMsg->status = state;
   \                     ??zdoSendStateChangeMsg_0:
   \   000043   EF           MOV       A,R7
   \   000044   A3           INC       DPTR
   \   000045   F0           MOVX      @DPTR,A
    463            }
    464          }
   \                     ??zdoSendStateChangeMsg_2:
   \   000046   02....       LJMP      ??Subroutine172_0 & 0xFFFF

   \                                 In  segment BANKED_CODE, align 1, keep-with-next
   \                     ??Subroutine172_0:
   \   000000   7F02         MOV       R7,#0x2
   \   000002   02....       LJMP      ?BANKED_LEAVE_XDATA
    465          
    466          /**************************************************************************************************
    467           * @fn          ZDO_UpdateNwkStatus
    468           *
    469           * @brief       This function sends a ZDO_STATE_CHANGE message to the task of every EndPoint
    470           *              registered with AF (except, of course, the ZDO_EP). Even if a single task has more
    471           *              than one registered EndPoint, it will only receive one notification per state
    472           *              change. Although the device may go through a sequence of state changes, the
    473           *              Application task may only receive notification of the final, steady-state state
    474           *              because it has the lowest priority and never even runs to receive the intermediate
    475           *              state change notifications.
    476           *
    477           * input parameters
    478           *
    479           * @param       state - The current device state.
    480           *
    481           * output parameters
    482           *
    483           * None.
    484           *
    485           * @return      None.
    486           **************************************************************************************************
    487           */

   \                                 In  segment BANKED_CODE, align 1, keep-with-next
    488          void ZDO_UpdateNwkStatus(devStates_t state)
   \                     ZDO_UpdateNwkStatus:
    489          {
   \   000000                REQUIRE ?V0
   \   000000   74F7         MOV       A,#-0x9
   \   000002   12....       LCALL     ?BANKED_ENTER_XDATA
   \   000005                ; Saved register size: 9
   \   000005                ; Auto size: 0
   \   000005   89..         MOV       ?V0,R1
    490            epList_t *pItem = epList;
   \   000007   90....       MOV       DPTR,#epList
   \   00000A   E0           MOVX      A,@DPTR
   \   00000B   FE           MOV       R6,A
   \   00000C   A3           INC       DPTR
   \   00000D   E0           MOVX      A,@DPTR
   \   00000E   801A         SJMP      ??CrossCallReturnLabel_157
    491          
    492          #if defined MT_ZDO_CB_FUNC
    493            if ( zdpExternalStateTaskID == -1 )
    494            {
    495              zdpExternalStateTaskID = MT_TaskID;
    496            }
    497          #endif
    498          
    499            while (pItem != NULL)
    500            {
    501              if (pItem->epDesc->endPoint != ZDO_EP)
   \                     ??ZDO_UpdateNwkStatus_0:
   \   000010   8E82         MOV       DPL,R6
   \   000012   8F83         MOV       DPH,R7
   \   000014   12....       LCALL     ?Subroutine76 & 0xFFFF
   \                     ??CrossCallReturnLabel_299:
   \   000017   E0           MOVX      A,@DPTR
   \   000018   6009         JZ        ??ZDO_UpdateNwkStatus_1
    502              {
    503                zdoSendStateChangeMsg(state, *(pItem->epDesc->task_id));
   \   00001A                ; Setup parameters for call to function zdoSendStateChangeMsg
   \   00001A   12....       LCALL     ?Subroutine81 & 0xFFFF
    504              }
   \                     ??CrossCallReturnLabel_290:
   \   00001D   FA           MOV       R2,A
   \   00001E   A9..         MOV       R1,?V0
   \   000020   12....       LCALL     `??zdoSendStateChangeMsg::?relay`; Banked call to: zdoSendStateChangeMsg
    505          
    506              pItem = pItem->nextDesc;
   \                     ??ZDO_UpdateNwkStatus_1:
   \   000023   8E82         MOV       DPL,R6
   \   000025   8F83         MOV       DPH,R7
   \   000027   12....       LCALL     ?Subroutine97 & 0xFFFF
    507            }
   \                     ??CrossCallReturnLabel_157:
   \   00002A   FF           MOV       R7,A
   \   00002B   EE           MOV       A,R6
   \   00002C   4F           ORL       A,R7
   \   00002D   70E1         JNZ       ??ZDO_UpdateNwkStatus_0
    508          
    509            if ( zdpExternalStateTaskID != -1 )
   \   00002F   90....       MOV       DPTR,#zdpExternalStateTaskID
   \   000032   E0           MOVX      A,@DPTR
   \   000033   F4           CPL       A
   \   000034   7003         JNZ       ??ZDO_UpdateNwkStatus_2
   \   000036   A3           INC       DPTR
   \   000037   E0           MOVX      A,@DPTR
   \   000038   F4           CPL       A
   \                     ??ZDO_UpdateNwkStatus_2:
   \   000039   600A         JZ        ??ZDO_UpdateNwkStatus_3
    510            {
    511              zdoSendStateChangeMsg( state, zdpExternalStateTaskID );
   \   00003B                ; Setup parameters for call to function zdoSendStateChangeMsg
   \   00003B   90....       MOV       DPTR,#zdpExternalStateTaskID
   \   00003E   E0           MOVX      A,@DPTR
   \   00003F   FA           MOV       R2,A
   \   000040   A9..         MOV       R1,?V0
   \   000042   12....       LCALL     `??zdoSendStateChangeMsg::?relay`; Banked call to: zdoSendStateChangeMsg
    512            }
    513          
    514            ZDAppNwkAddr.addr.shortAddr = NLME_GetShortAddr();
   \                     ??ZDO_UpdateNwkStatus_3:
   \   000045                ; Setup parameters for call to function NLME_GetShortAddr
   \   000045   12....       LCALL     `??NLME_GetShortAddr::?relay`; Banked call to: NLME_GetShortAddr
   \   000048   90....       MOV       DPTR,#ZDAppNwkAddr
   \   00004B   12....       LCALL     ??Subroutine179_0 & 0xFFFF
    515            (void)NLME_GetExtAddr();  // Load the saveExtAddr pointer.
   \                     ??CrossCallReturnLabel_352:
   \   00004E                ; Setup parameters for call to function NLME_GetExtAddr
   \   00004E   12....       LCALL     `??NLME_GetExtAddr::?relay`; Banked call to: NLME_GetExtAddr
    516          }
   \   000051                REQUIRE ?Subroutine3
   \   000051                ; // Fall through to label ?Subroutine3

   \                                 In  segment BANKED_CODE, align 1, keep-with-next
   \                     ?Subroutine3:
   \   000000   7F01         MOV       R7,#0x1
   \   000002   02....       LJMP      ?BANKED_LEAVE_XDATA

   \                                 In  segment BANKED_CODE, align 1, keep-with-next
   \                     ?Subroutine81:
   \   000000   A3           INC       DPTR
   \   000001   A3           INC       DPTR
   \   000002                REQUIRE ??Subroutine168_0
   \   000002                ; // Fall through to label ??Subroutine168_0

   \                                 In  segment BANKED_CODE, align 1, keep-with-next
   \                     ??Subroutine168_0:
   \   000000   12....       LCALL     ?Subroutine142 & 0xFFFF
   \                     ??CrossCallReturnLabel_295:
   \   000003   22           RET

   \                                 In  segment BANKED_CODE, align 1, keep-with-next
   \                     ?Subroutine142:
   \   000000   12....       LCALL     ?Subroutine161 & 0xFFFF
   \                     ??CrossCallReturnLabel_297:
   \   000003   E0           MOVX      A,@DPTR
   \   000004   22           RET

   \                                 In  segment BANKED_CODE, align 1, keep-with-next
   \                     ?Subroutine76:
   \   000000   A3           INC       DPTR
   \   000001   A3           INC       DPTR
   \   000002                REQUIRE ??Subroutine169_0
   \   000002                ; // Fall through to label ??Subroutine169_0

   \                                 In  segment BANKED_CODE, align 1, keep-with-next
   \                     ??Subroutine169_0:
   \   000000   12....       LCALL     ??Subroutine189_0 & 0xFFFF
   \                     ??CrossCallReturnLabel_401:
   \   000003   22           RET

   \                                 In  segment BANKED_CODE, align 1, keep-with-next
   \                     ?Subroutine161:
   \   000000   E0           MOVX      A,@DPTR
   \   000001   F8           MOV       R0,A
   \   000002   A3           INC       DPTR
   \   000003   E0           MOVX      A,@DPTR
   \   000004   F583         MOV       DPH,A
   \   000006   8882         MOV       DPL,R0
   \   000008   22           RET

   \                                 In  segment BANKED_CODE, align 1, keep-with-next
   \                     ?Subroutine154:
   \   000000   12....       LCALL     ??Subroutine199_0 & 0xFFFF
   \                     ??CrossCallReturnLabel_503:
   \   000003   F9           MOV       R1,A
   \   000004   22           RET

   \                                 In  segment BANKED_CODE, align 1, keep-with-next
   \                     ??Subroutine179_0:
   \   000000   EA           MOV       A,R2
   \   000001                REQUIRE ??Subroutine180_0
   \   000001                ; // Fall through to label ??Subroutine180_0

   \                                 In  segment BANKED_CODE, align 1, keep-with-next
   \                     ??Subroutine180_0:
   \   000000   F0           MOVX      @DPTR,A
   \   000001   A3           INC       DPTR
   \   000002   EB           MOV       A,R3
   \   000003   F0           MOVX      @DPTR,A
   \   000004   22           RET

   \                                 In  segment BANKED_CODE, align 1, keep-with-next
   \                     ??Subroutine189_0:
   \   000000   E0           MOVX      A,@DPTR
   \   000001                REQUIRE ??Subroutine190_0
   \   000001                ; // Fall through to label ??Subroutine190_0

   \                                 In  segment BANKED_CODE, align 1, keep-with-next
   \                     ??Subroutine190_0:
   \   000000   F8           MOV       R0,A
   \   000001   A3           INC       DPTR
   \   000002   E0           MOVX      A,@DPTR
   \   000003   F9           MOV       R1,A
   \   000004   8882         MOV       DPL,R0
   \   000006   8983         MOV       DPH,R1
   \   000008   22           RET

   \                                 In  segment BANKED_CODE, align 1, keep-with-next
   \                     ??Subroutine199_0:
   \   000000   E0           MOVX      A,@DPTR
   \   000001   F8           MOV       R0,A
   \   000002   A3           INC       DPTR
   \   000003   E0           MOVX      A,@DPTR
   \   000004   22           RET

   \                                 In  segment BANKED_CODE, align 1, keep-with-next
   \                     ?Subroutine97:
   \   000000   12....       LCALL     ?Subroutine154 & 0xFFFF
   \                     ??CrossCallReturnLabel_436:
   \   000003   E8           MOV       A,R0
   \   000004   FE           MOV       R6,A
   \   000005   E9           MOV       A,R1
   \   000006   22           RET
    517          
    518          #if defined ( REFLECTOR )
    519          /*********************************************************************
    520           * @fn          ZDO_RemoveEndDeviceBind
    521           *
    522           * @brief       Remove the end device bind
    523           *
    524           * @param  none
    525           *
    526           * @return      none
    527           */
    528          static void ZDO_RemoveEndDeviceBind( void )
    529          {
    530            if ( ZDO_EDBind != NULL )
    531            {
    532              // Free the RAM
    533              if ( ZDO_EDBind->inClusters != NULL )
    534              {
    535                osal_mem_free( ZDO_EDBind->inClusters );
    536              }
    537              if ( ZDO_EDBind->outClusters != NULL )
    538              {
    539                osal_mem_free( ZDO_EDBind->outClusters );
    540              }
    541              osal_mem_free( ZDO_EDBind );
    542              ZDO_EDBind = NULL;
    543            }
    544          }
    545          #endif // REFLECTOR
    546          
    547          #if defined ( REFLECTOR )
    548          /*********************************************************************
    549           * @fn          ZDO_SendEDBindRsp
    550           *
    551           * @brief       Send the end device bind response
    552           *
    553           * @param  none
    554           *
    555           * @return      none
    556           */
    557          static void ZDO_SendEDBindRsp( byte TransSeq, zAddrType_t *dstAddr, byte Status, byte secUse )
    558          {
    559            ZDP_EndDeviceBindRsp( TransSeq, dstAddr, Status, secUse );
    560          
    561          #if defined( LCD_SUPPORTED )
    562            HalLcdWriteString( "End Device Bind", HAL_LCD_LINE_1 );
    563            if ( Status == ZDP_SUCCESS )
    564            {
    565              HalLcdWriteString( "Success Sent", HAL_LCD_LINE_2 );
    566            }
    567            else
    568            {
    569              HalLcdWriteString( "Timeout", HAL_LCD_LINE_2 );
    570            }
    571          #endif
    572          
    573          }
    574          #endif // REFLECTOR
    575          
    576          #if ( ZG_BUILD_COORDINATOR_TYPE )
    577          /*********************************************************************
    578           * @fn          ZDO_CompareClusterLists
    579           *
    580           * @brief       Compare one list to another list
    581           *
    582           * @param       numList1 - number of items in list 1
    583           * @param       list1 - first list of cluster IDs
    584           * @param       numList2 - number of items in list 2
    585           * @param       list2 - second list of cluster IDs
    586           * @param       pMatches - buffer to put matches
    587           *
    588           * @return      number of matches
    589           */

   \                                 In  segment BANKED_CODE, align 1, keep-with-next
    590          static byte ZDO_CompareClusterLists( byte numList1, uint16 *list1,
   \                     ZDO_CompareClusterLists:
    591                                    byte numList2, uint16 *list2, uint16 *pMatches )
    592          {
   \   000000                REQUIRE ?V0
   \   000000                REQUIRE ?V1
   \   000000                REQUIRE ?V2
   \   000000                REQUIRE ?V3
   \   000000                REQUIRE ?V4
   \   000000                REQUIRE ?V6
   \   000000                REQUIRE ?V7
   \   000000   74F0         MOV       A,#-0x10
   \   000002   12....       LCALL     ?BANKED_ENTER_XDATA
   \   000005                ; Saved register size: 16
   \   000005                ; Auto size: 0
   \   000005   89..         MOV       ?V3,R1
   \   000007   8C..         MOV       ?V4,R4
    593            byte x, y;
    594            uint16 z;
    595            byte numMatches = 0;
   \   000009   75..00       MOV       ?V1,#0x0
    596          
    597            // Check the first in against the seconds out
    598            for ( x = 0; x < numList1; x++ )
   \   00000C   75..00       MOV       ?V0,#0x0
   \   00000F   7410         MOV       A,#0x10
   \   000011   12....       LCALL     ?XSTACK_DISP0_8
   \   000014   12....       LCALL     ??Subroutine176_0 & 0xFFFF
   \                     ??CrossCallReturnLabel_322:
   \   000017   7412         MOV       A,#0x12
   \   000019   12....       LCALL     ?XSTACK_DISP0_8
   \   00001C   12....       LCALL     ?Subroutine151 & 0xFFFF
   \                     ??CrossCallReturnLabel_268:
   \   00001F   8046         SJMP      ??ZDO_CompareClusterLists_0
    599            {
    600              for ( y = 0; y < numList2; y++ )
    601              {
    602                z = list2[y];
   \                     ??ZDO_CompareClusterLists_1:
   \   000021   12....       LCALL     ?Subroutine99 & 0xFFFF
   \                     ??CrossCallReturnLabel_159:
   \   000024   12....       LCALL     ?Subroutine90 & 0xFFFF
   \                     ??CrossCallReturnLabel_144:
   \   000027   F5..         MOV       ?V7,A
    603                if ( list1[x] == z )
   \   000029   AE..         MOV       R6,?V0
   \   00002B   EE           MOV       A,R6
   \   00002C   2E           ADD       A,R6
   \   00002D   FE           MOV       R6,A
   \   00002E   E4           CLR       A
   \   00002F   33           RLC       A
   \   000030   FF           MOV       R7,A
   \   000031   EA           MOV       A,R2
   \   000032   2E           ADD       A,R6
   \   000033   F582         MOV       DPL,A
   \   000035   EB           MOV       A,R3
   \   000036   12....       LCALL     ??Subroutine187_0 & 0xFFFF
   \                     ??CrossCallReturnLabel_389:
   \   000039   65..         XRL       A,?V6
   \   00003B   7004         JNZ       ??ZDO_CompareClusterLists_2
   \   00003D   A3           INC       DPTR
   \   00003E   E0           MOVX      A,@DPTR
   \   00003F   65..         XRL       A,?V7
   \                     ??ZDO_CompareClusterLists_2:
   \   000041   7019         JNZ       ??ZDO_CompareClusterLists_3
    604                {
    605                  pMatches[numMatches++] = z;
   \   000043   AE..         MOV       R6,?V1
   \   000045   EE           MOV       A,R6
   \   000046   2E           ADD       A,R6
   \   000047   FE           MOV       R6,A
   \   000048   E4           CLR       A
   \   000049   33           RLC       A
   \   00004A   FF           MOV       R7,A
   \   00004B   EC           MOV       A,R4
   \   00004C   2E           ADD       A,R6
   \   00004D   F582         MOV       DPL,A
   \   00004F   ED           MOV       A,R5
   \   000050   3F           ADDC      A,R7
   \   000051   F583         MOV       DPH,A
   \   000053   E5..         MOV       A,?V6
   \   000055   F0           MOVX      @DPTR,A
   \   000056   A3           INC       DPTR
   \   000057   E5..         MOV       A,?V7
   \   000059   F0           MOVX      @DPTR,A
   \   00005A   05..         INC       ?V1
    606                }
    607              }
   \                     ??ZDO_CompareClusterLists_3:
   \   00005C   05..         INC       ?V2
   \                     ??ZDO_CompareClusterLists_4:
   \   00005E   E5..         MOV       A,?V2
   \   000060   C3           CLR       C
   \   000061   95..         SUBB      A,?V4
   \   000063   40BC         JC        ??ZDO_CompareClusterLists_1
   \   000065   05..         INC       ?V0
   \                     ??ZDO_CompareClusterLists_0:
   \   000067   E5..         MOV       A,?V0
   \   000069   C3           CLR       C
   \   00006A   95..         SUBB      A,?V3
   \   00006C   5005         JNC       ??ZDO_CompareClusterLists_5
   \   00006E   75..00       MOV       ?V2,#0x0
   \   000071   80EB         SJMP      ??ZDO_CompareClusterLists_4
    608            }
    609          
    610            return ( numMatches );
   \                     ??ZDO_CompareClusterLists_5:
   \   000073   A9..         MOV       R1,?V1
   \   000075   02....       LJMP      ??Subroutine188_0 & 0xFFFF
    611          }

   \                                 In  segment BANKED_CODE, align 1, keep-with-next
   \                     ?Subroutine99:
   \   000000   AE..         MOV       R6,?V2
   \   000002   EE           MOV       A,R6
   \   000003   2E           ADD       A,R6
   \   000004   FE           MOV       R6,A
   \   000005   E4           CLR       A
   \   000006   33           RLC       A
   \   000007   FF           MOV       R7,A
   \   000008   E8           MOV       A,R0
   \   000009   2E           ADD       A,R6
   \   00000A   F582         MOV       DPL,A
   \   00000C   E9           MOV       A,R1
   \   00000D   3F           ADDC      A,R7
   \   00000E   F583         MOV       DPH,A
   \   000010   22           RET

   \                                 In  segment BANKED_CODE, align 1, keep-with-next
   \                     ?Subroutine151:
   \   000000   E0           MOVX      A,@DPTR
   \   000001   FC           MOV       R4,A
   \   000002   A3           INC       DPTR
   \   000003   E0           MOVX      A,@DPTR
   \   000004   FD           MOV       R5,A
   \   000005   22           RET

   \                                 In  segment BANKED_CODE, align 1, keep-with-next
   \                     ??Subroutine176_0:
   \   000000   12....       LCALL     ?Subroutine154 & 0xFFFF
   \                     ??CrossCallReturnLabel_437:
   \   000003   22           RET

   \                                 In  segment BANKED_CODE, align 1, keep-with-next
   \                     ??Subroutine187_0:
   \   000000   3F           ADDC      A,R7
   \   000001   F583         MOV       DPH,A
   \   000003   E0           MOVX      A,@DPTR
   \   000004   22           RET

   \                                 In  segment BANKED_CODE, align 1, keep-with-next
   \                     ??Subroutine188_0:
   \   000000   7F08         MOV       R7,#0x8
   \   000002   02....       LJMP      ?BANKED_LEAVE_XDATA

   \                                 In  segment BANKED_CODE, align 1, keep-with-next
   \                     ?Subroutine90:
   \   000000   E0           MOVX      A,@DPTR
   \   000001   F5..         MOV       ?V6,A
   \   000003   A3           INC       DPTR
   \   000004   E0           MOVX      A,@DPTR
   \   000005   22           RET
    612          #endif // ZG_BUILD_COORDINATOR_TYPE
    613          
    614          /*********************************************************************
    615           * Utility functions
    616           */
    617          
    618          /*********************************************************************
    619           * @fn          ZDO_CompareByteLists
    620           *
    621           * @brief       Compares two lists for matches.
    622           *
    623           * @param       ACnt  - number of entries in list A
    624           * @param       AList  - List A
    625           * @param       BCnt  - number of entries in list B
    626           * @param       BList  - List B
    627           *
    628           * @return      true if a match is found
    629           */

   \                                 In  segment BANKED_CODE, align 1, keep-with-next
    630          byte ZDO_AnyClusterMatches( byte ACnt, uint16 *AList, byte BCnt, uint16 *BList )
   \                     ZDO_AnyClusterMatches:
    631          {
   \   000000                REQUIRE ?V0
   \   000000                REQUIRE ?V1
   \   000000                REQUIRE ?V2
   \   000000                REQUIRE ?V3
   \   000000   74F4         MOV       A,#-0xc
   \   000002   12....       LCALL     ?BANKED_ENTER_XDATA
   \   000005                ; Saved register size: 12
   \   000005                ; Auto size: 0
   \   000005   89..         MOV       ?V3,R1
    632            byte x, y;
    633          
    634            for ( x = 0; x < ACnt; x++ )
   \   000007   7D00         MOV       R5,#0x0
   \   000009   740C         MOV       A,#0xc
   \   00000B   12....       LCALL     ?XSTACK_DISP0_8
   \   00000E   12....       LCALL     ??Subroutine176_0 & 0xFFFF
   \                     ??CrossCallReturnLabel_323:
   \   000011   8001         SJMP      ??ZDO_AnyClusterMatches_0
   \                     ??ZDO_AnyClusterMatches_1:
   \   000013   0D           INC       R5
   \                     ??ZDO_AnyClusterMatches_0:
   \   000014   ED           MOV       A,R5
   \   000015   C3           CLR       C
   \   000016   95..         SUBB      A,?V3
   \   000018   502F         JNC       ??ZDO_AnyClusterMatches_2
    635            {
    636              for ( y = 0; y < BCnt; y++ )
   \   00001A   75..00       MOV       ?V2,#0x0
   \   00001D   8002         SJMP      ??ZDO_AnyClusterMatches_3
   \                     ??ZDO_AnyClusterMatches_4:
   \   00001F   05..         INC       ?V2
   \                     ??ZDO_AnyClusterMatches_3:
   \   000021   E5..         MOV       A,?V2
   \   000023   C3           CLR       C
   \   000024   9C           SUBB      A,R4
   \   000025   50EC         JNC       ??ZDO_AnyClusterMatches_1
    637              {
    638                if ( AList[x] == BList[y] )
   \   000027   ED           MOV       A,R5
   \   000028   25E0         ADD       A,0xE0 /* A   */
   \   00002A   FE           MOV       R6,A
   \   00002B   E4           CLR       A
   \   00002C   33           RLC       A
   \   00002D   FF           MOV       R7,A
   \   00002E   EA           MOV       A,R2
   \   00002F   2E           ADD       A,R6
   \   000030   F582         MOV       DPL,A
   \   000032   EB           MOV       A,R3
   \   000033   3F           ADDC      A,R7
   \   000034   12....       LCALL     ?Subroutine84 & 0xFFFF
   \                     ??CrossCallReturnLabel_302:
   \   000037   12....       LCALL     ?Subroutine99 & 0xFFFF
   \                     ??CrossCallReturnLabel_160:
   \   00003A   E0           MOVX      A,@DPTR
   \   00003B   65..         XRL       A,?V0
   \   00003D   7004         JNZ       ??ZDO_AnyClusterMatches_5
   \   00003F   A3           INC       DPTR
   \   000040   E0           MOVX      A,@DPTR
   \   000041   65..         XRL       A,?V1
   \                     ??ZDO_AnyClusterMatches_5:
   \   000043   70DA         JNZ       ??ZDO_AnyClusterMatches_4
    639                {
    640                  return true;
   \   000045   7901         MOV       R1,#0x1
   \   000047   8002         SJMP      ??ZDO_AnyClusterMatches_6
    641                }
    642              }
    643            }
    644          
    645            return false;
   \                     ??ZDO_AnyClusterMatches_2:
   \   000049   7900         MOV       R1,#0x0
   \                     ??ZDO_AnyClusterMatches_6:
   \   00004B   02....       LJMP      ??Subroutine167_0 & 0xFFFF
    646          }

   \                                 In  segment BANKED_CODE, align 1, keep-with-next
   \                     ?Subroutine84:
   \   000000   F583         MOV       DPH,A
   \   000002                REQUIRE ??Subroutine170_0
   \   000002                ; // Fall through to label ??Subroutine170_0

   \                                 In  segment BANKED_CODE, align 1, keep-with-next
   \                     ??Subroutine170_0:
   \   000000   12....       LCALL     ?Subroutine152 & 0xFFFF
   \                     ??CrossCallReturnLabel_307:
   \   000003   F5..         MOV       ?V1,A
   \   000005   22           RET

   \                                 In  segment BANKED_CODE, align 1, keep-with-next
   \                     ?Subroutine152:
   \   000000   E0           MOVX      A,@DPTR
   \   000001   F5..         MOV       ?V0,A
   \   000003   A3           INC       DPTR
   \   000004   E0           MOVX      A,@DPTR
   \   000005   22           RET
    647          
    648          /*********************************************************************
    649           * Callback functions from ZDProfile
    650           */
    651          
    652          
    653          /*********************************************************************
    654           * @fn          ZDO_ProcessNodeDescRsp
    655           *
    656           * @brief       This function processes the Node_Desc_rsp and request
    657           *              Update the TC Link key if the TC supports it.
    658           *
    659           * @param       inMsg - incoming message
    660           *
    661           * @return      none
    662           */

   \                                 In  segment BANKED_CODE, align 1, keep-with-next
    663          void ZDO_ProcessNodeDescRsp ( zdoIncomingMsg_t *inMsg )
   \                     ZDO_ProcessNodeDescRsp:
    664          {
   \   000000                ; Saved register size: 0
   \   000000                ; Auto size: 0
    665          }
   \   000000   02....       LJMP      ?BRET
    666          
    667          
    668          
    669          /*********************************************************************
    670           * @fn          ZDO_ProcessNodeDescReq
    671           *
    672           * @brief       This function processes and responds to the
    673           *              Node_Desc_req message.
    674           *
    675           * @param       inMsg - incoming message
    676           *
    677           * @return      none
    678           */

   \                                 In  segment BANKED_CODE, align 1, keep-with-next
    679          void ZDO_ProcessNodeDescReq( zdoIncomingMsg_t *inMsg )
   \                     ZDO_ProcessNodeDescReq:
    680          {
   \   000000                REQUIRE ?V0
   \   000000                REQUIRE ?V1
   \   000000   74F6         MOV       A,#-0xa
   \   000002   12....       LCALL     ?BANKED_ENTER_XDATA
   \   000005                ; Saved register size: 10
   \   000005                ; Auto size: 0
   \   000005   12....       LCALL     ?Subroutine55 & 0xFFFF
    681            uint16 aoi = BUILD_UINT16( inMsg->asdu[0], inMsg->asdu[1] );
    682            NodeDescriptorFormat_t *desc = NULL;
    683          
    684            if ( aoi == ZDAppNwkAddr.addr.shortAddr )
   \                     ??CrossCallReturnLabel_92:
   \   000008   7003         JNZ       ??ZDO_ProcessNodeDescReq_0
   \   00000A   A3           INC       DPTR
   \   00000B   E0           MOVX      A,@DPTR
   \   00000C   6D           XRL       A,R5
   \                     ??ZDO_ProcessNodeDescReq_0:
   \   00000D   7017         JNZ       ??ZDO_ProcessNodeDescReq_1
    685            {
    686              desc = &ZDO_Config_Node_Descriptor;
    687            }
    688          
    689            if ( desc != NULL )
    690            {
    691              ZDP_NodeDescMsg( inMsg, aoi, desc );
   \   00000F                ; Setup parameters for call to function ZDP_NodeDescMsg
   \   00000F   75....       MOV       ?V0,#ZDO_Config_Node_Descriptor & 0xff
   \   000012   75....       MOV       ?V1,#(ZDO_Config_Node_Descriptor >> 8) & 0xff
   \   000015   78..         MOV       R0,#?V0
   \   000017   12....       LCALL     ?PUSH_XSTACK_I_TWO
   \   00001A   EE           MOV       A,R6
   \   00001B   FA           MOV       R2,A
   \   00001C   12....       LCALL     `??ZDP_NodeDescMsg::?relay`; Banked call to: ZDP_NodeDescMsg
   \   00001F   7402         MOV       A,#0x2
   \   000021   12....       LCALL     ?DEALLOC_XSTACK8
   \   000024   801F         SJMP      ??ZDO_ProcessNodeDescReq_2
    692            }
    693            else
    694            {
    695              ZDP_GenericRsp( inMsg->TransSeq, &(inMsg->srcAddr),
    696                        ZDP_INVALID_REQTYPE, aoi, Node_Desc_rsp, inMsg->SecurityUse );
   \                     ??ZDO_ProcessNodeDescReq_1:
   \   000026                ; Setup parameters for call to function ZDP_GenericRsp
   \   000026   75..02       MOV       ?V0,#0x2
   \   000029   75..80       MOV       ?V1,#-0x80
   \   00002C   78..         MOV       R0,#?V0
   \   00002E   12....       LCALL     ?PUSH_XSTACK_I_TWO
   \   000031   8C..         MOV       ?V0,R4
   \   000033   8D..         MOV       ?V1,R5
   \   000035   78..         MOV       R0,#?V0
   \   000037   12....       LCALL     ?PUSH_XSTACK_I_TWO
   \   00003A   12....       LCALL     ?Subroutine60 & 0xFFFF
    697            }
   \                     ??CrossCallReturnLabel_99:
   \   00003D   12....       LCALL     `??ZDP_GenericRsp::?relay`; Banked call to: ZDP_GenericRsp
   \   000040   7404         MOV       A,#0x4
   \   000042   12....       LCALL     ?DEALLOC_XSTACK8
    698          }
   \                     ??ZDO_ProcessNodeDescReq_2:
   \   000045   02....       LJMP      ??Subroutine172_0 & 0xFFFF

   \                                 In  segment BANKED_CODE, align 1, keep-with-next
   \                     ?Subroutine60:
   \   000000   EE           MOV       A,R6
   \   000001   240E         ADD       A,#0xe
   \   000003   F582         MOV       DPL,A
   \   000005   E4           CLR       A
   \   000006   3F           ADDC      A,R7
   \   000007   F583         MOV       DPH,A
   \   000009   E0           MOVX      A,@DPTR
   \   00000A   FD           MOV       R5,A
   \   00000B   7C80         MOV       R4,#-0x80
   \   00000D   EE           MOV       A,R6
   \   00000E   2402         ADD       A,#0x2
   \   000010   FA           MOV       R2,A
   \   000011   E4           CLR       A
   \   000012   3F           ADDC      A,R7
   \   000013   FB           MOV       R3,A
   \   000014   EE           MOV       A,R6
   \   000015   240F         ADD       A,#0xf
   \   000017   F582         MOV       DPL,A
   \   000019   E4           CLR       A
   \   00001A   3F           ADDC      A,R7
   \   00001B   F583         MOV       DPH,A
   \   00001D   E0           MOVX      A,@DPTR
   \   00001E   F9           MOV       R1,A
   \   00001F   22           RET

   \                                 In  segment BANKED_CODE, align 1, keep-with-next
   \                     ?Subroutine55:
   \   000000   12....       LCALL     ?Subroutine143 & 0xFFFF
   \                     ??CrossCallReturnLabel_262:
   \   000003   F8           MOV       R0,A
   \   000004   E4           CLR       A
   \   000005   C8           XCH       A,R0
   \   000006   F9           MOV       R1,A
   \   000007   EA           MOV       A,R2
   \   000008   28           ADD       A,R0
   \   000009   FC           MOV       R4,A
   \   00000A   E4           CLR       A
   \   00000B   39           ADDC      A,R1
   \   00000C   FD           MOV       R5,A
   \   00000D   90....       MOV       DPTR,#ZDAppNwkAddr
   \   000010   E0           MOVX      A,@DPTR
   \   000011   6C           XRL       A,R4
   \   000012   22           RET

   \                                 In  segment BANKED_CODE, align 1, keep-with-next
   \                     ?Subroutine143:
   \   000000   EA           MOV       A,R2
   \   000001   FE           MOV       R6,A
   \   000002   EB           MOV       A,R3
   \   000003   FF           MOV       R7,A
   \   000004   EE           MOV       A,R6
   \   000005   12....       LCALL     ?Subroutine163 & 0xFFFF
   \                     ??CrossCallReturnLabel_285:
   \   000008   12....       LCALL     ??Subroutine199_0 & 0xFFFF
   \                     ??CrossCallReturnLabel_500:
   \   00000B   F9           MOV       R1,A
   \   00000C   8882         MOV       DPL,R0
   \   00000E   8983         MOV       DPH,R1
   \   000010   E0           MOVX      A,@DPTR
   \   000011   FA           MOV       R2,A
   \   000012   A3           INC       DPTR
   \   000013   E0           MOVX      A,@DPTR
   \   000014   22           RET

   \                                 In  segment BANKED_CODE, align 1, keep-with-next
   \                     ?Subroutine163:
   \   000000   2413         ADD       A,#0x13
   \   000002   F582         MOV       DPL,A
   \   000004   E4           CLR       A
   \   000005   3F           ADDC      A,R7
   \   000006   F583         MOV       DPH,A
   \   000008   22           RET
    699          
    700          /*********************************************************************
    701           * @fn          ZDO_ProcessPowerDescReq
    702           *
    703           * @brief       This function processes and responds to the
    704           *              Node_Power_req message.
    705           *
    706           * @param       inMsg  - incoming request
    707           *
    708           * @return      none
    709           */

   \                                 In  segment BANKED_CODE, align 1, keep-with-next
    710          void ZDO_ProcessPowerDescReq( zdoIncomingMsg_t *inMsg )
   \                     ZDO_ProcessPowerDescReq:
    711          {
   \   000000                REQUIRE ?V0
   \   000000                REQUIRE ?V1
   \   000000   74F6         MOV       A,#-0xa
   \   000002   12....       LCALL     ?BANKED_ENTER_XDATA
   \   000005                ; Saved register size: 10
   \   000005                ; Auto size: 0
   \   000005   12....       LCALL     ?Subroutine55 & 0xFFFF
    712            uint16 aoi = BUILD_UINT16( inMsg->asdu[0], inMsg->asdu[1] );
    713            NodePowerDescriptorFormat_t *desc = NULL;
    714          
    715            if ( aoi == ZDAppNwkAddr.addr.shortAddr )
   \                     ??CrossCallReturnLabel_93:
   \   000008   7003         JNZ       ??ZDO_ProcessPowerDescReq_0
   \   00000A   A3           INC       DPTR
   \   00000B   E0           MOVX      A,@DPTR
   \   00000C   6D           XRL       A,R5
   \                     ??ZDO_ProcessPowerDescReq_0:
   \   00000D   7017         JNZ       ??ZDO_ProcessPowerDescReq_1
    716            {
    717              desc = &ZDO_Config_Power_Descriptor;
    718            }
    719          
    720            if ( desc != NULL )
    721            {
    722              ZDP_PowerDescMsg( inMsg, aoi, desc );
   \   00000F                ; Setup parameters for call to function ZDP_PowerDescMsg
   \   00000F   75....       MOV       ?V0,#ZDO_Config_Power_Descriptor & 0xff
   \   000012   75....       MOV       ?V1,#(ZDO_Config_Power_Descriptor >> 8) & 0xff
   \   000015   78..         MOV       R0,#?V0
   \   000017   12....       LCALL     ?PUSH_XSTACK_I_TWO
   \   00001A   EE           MOV       A,R6
   \   00001B   FA           MOV       R2,A
   \   00001C   12....       LCALL     `??ZDP_PowerDescMsg::?relay`; Banked call to: ZDP_PowerDescMsg
   \   00001F   7402         MOV       A,#0x2
   \   000021   12....       LCALL     ?DEALLOC_XSTACK8
   \   000024   801F         SJMP      ??ZDO_ProcessPowerDescReq_2
    723            }
    724            else
    725            {
    726              ZDP_GenericRsp( inMsg->TransSeq, &(inMsg->srcAddr),
    727                        ZDP_INVALID_REQTYPE, aoi, Power_Desc_rsp, inMsg->SecurityUse );
   \                     ??ZDO_ProcessPowerDescReq_1:
   \   000026                ; Setup parameters for call to function ZDP_GenericRsp
   \   000026   75..03       MOV       ?V0,#0x3
   \   000029   75..80       MOV       ?V1,#-0x80
   \   00002C   78..         MOV       R0,#?V0
   \   00002E   12....       LCALL     ?PUSH_XSTACK_I_TWO
   \   000031   8C..         MOV       ?V0,R4
   \   000033   8D..         MOV       ?V1,R5
   \   000035   78..         MOV       R0,#?V0
   \   000037   12....       LCALL     ?PUSH_XSTACK_I_TWO
   \   00003A   12....       LCALL     ?Subroutine60 & 0xFFFF
    728            }
   \                     ??CrossCallReturnLabel_100:
   \   00003D   12....       LCALL     `??ZDP_GenericRsp::?relay`; Banked call to: ZDP_GenericRsp
   \   000040   7404         MOV       A,#0x4
   \   000042   12....       LCALL     ?DEALLOC_XSTACK8
    729          }
   \                     ??ZDO_ProcessPowerDescReq_2:
   \   000045   80..         SJMP      ??Subroutine172_0
    730          
    731          /*********************************************************************
    732           * @fn          ZDO_ProcessSimpleDescReq
    733           *
    734           * @brief       This function processes and responds to the
    735           *              Simple_Desc_req message.
    736           *
    737           * @param       inMsg - incoming message (request)
    738           *
    739           * @return      none
    740           */

   \                                 In  segment BANKED_CODE, align 1, keep-with-next
   \                     ?Subroutine2:
   \   000000   7402         MOV       A,#0x2
   \   000002                REQUIRE ??Subroutine171_0
   \   000002                ; // Fall through to label ??Subroutine171_0

   \                                 In  segment BANKED_CODE, align 1, keep-with-next
   \                     ??Subroutine171_0:
   \   000000   12....       LCALL     ?DEALLOC_XSTACK8
   \   000003                REQUIRE ??Subroutine172_0
   \   000003                ; // Fall through to label ??Subroutine172_0

   \                                 In  segment BANKED_CODE, align 1, keep-with-next
    741          void ZDO_ProcessSimpleDescReq( zdoIncomingMsg_t *inMsg )
   \                     ZDO_ProcessSimpleDescReq:
    742          {
   \   000000                REQUIRE ?V0
   \   000000                REQUIRE ?V1
   \   000000   74F6         MOV       A,#-0xa
   \   000002   12....       LCALL     ?BANKED_ENTER_XDATA
   \   000005                ; Saved register size: 10
   \   000005                ; Auto size: 2
   \   000005   74FE         MOV       A,#-0x2
   \   000007   12....       LCALL     ?ALLOC_XSTACK8
   \   00000A   EA           MOV       A,R2
   \   00000B   FE           MOV       R6,A
   \   00000C   EB           MOV       A,R3
   \   00000D   FF           MOV       R7,A
    743            SimpleDescriptionFormat_t *sDesc = NULL;
   \   00000E   85..82       MOV       DPL,?XSP + 0
   \   000011   85..83       MOV       DPH,?XSP + 1
   \   000014   E4           CLR       A
   \   000015   F0           MOVX      @DPTR,A
   \   000016   A3           INC       DPTR
   \   000017   F0           MOVX      @DPTR,A
    744            uint16 aoi = BUILD_UINT16( inMsg->asdu[0], inMsg->asdu[1] );
   \   000018   12....       LCALL     ?Subroutine109 & 0xFFFF
   \                     ??CrossCallReturnLabel_182:
   \   00001B   12....       LCALL     ?Subroutine73 & 0xFFFF
   \                     ??CrossCallReturnLabel_121:
   \   00001E   FB           MOV       R3,A
   \   00001F   EC           MOV       A,R4
   \   000020   FA           MOV       R2,A
    745            byte endPoint = inMsg->asdu[2];
   \   000021   8882         MOV       DPL,R0
   \   000023   8983         MOV       DPH,R1
   \   000025   A3           INC       DPTR
   \   000026   A3           INC       DPTR
   \   000027   E0           MOVX      A,@DPTR
   \   000028   F9           MOV       R1,A
    746            byte free = false;
   \   000029   75..00       MOV       ?V1,#0x0
    747            byte stat = ZDP_SUCCESS;
   \   00002C   75..00       MOV       ?V0,#0x0
    748          
    749            if ( (endPoint == ZDO_EP) || (endPoint > MAX_ENDPOINTS) )
   \   00002F   6005         JZ        ??ZDO_ProcessSimpleDescReq_0
   \   000031   74FF         MOV       A,#-0x1
   \   000033   69           XRL       A,R1
   \   000034   7005         JNZ       ??ZDO_ProcessSimpleDescReq_1
    750            {
    751              stat = ZDP_INVALID_EP;
   \                     ??ZDO_ProcessSimpleDescReq_0:
   \   000036   75..82       MOV       ?V0,#-0x7e
   \   000039   802F         SJMP      ??ZDO_ProcessSimpleDescReq_2
    752            }
    753            else if ( aoi == ZDAppNwkAddr.addr.shortAddr )
   \                     ??ZDO_ProcessSimpleDescReq_1:
   \   00003B   90....       MOV       DPTR,#ZDAppNwkAddr
   \   00003E   E0           MOVX      A,@DPTR
   \   00003F   6A           XRL       A,R2
   \   000040   7003         JNZ       ??ZDO_ProcessSimpleDescReq_3
   \   000042   A3           INC       DPTR
   \   000043   E0           MOVX      A,@DPTR
   \   000044   6B           XRL       A,R3
   \                     ??ZDO_ProcessSimpleDescReq_3:
   \   000045   7015         JNZ       ??ZDO_ProcessSimpleDescReq_4
    754            {
    755              free = afFindSimpleDesc( &sDesc, endPoint );
   \   000047                ; Setup parameters for call to function afFindSimpleDesc
   \   000047   AA..         MOV       R2,?XSP + 0
   \   000049   AB..         MOV       R3,?XSP + 1
   \   00004B   12....       LCALL     `??afFindSimpleDesc::?relay`; Banked call to: afFindSimpleDesc
   \   00004E   E9           MOV       A,R1
   \   00004F   FA           MOV       R2,A
    756              if ( sDesc == NULL )
   \   000050   12....       LCALL     ?Subroutine50 & 0xFFFF
   \                     ??CrossCallReturnLabel_412:
   \   000053   7003         JNZ       ??ZDO_ProcessSimpleDescReq_5
    757              {
    758                stat = ZDP_NOT_ACTIVE;
   \   000055   75..83       MOV       ?V0,#-0x7d
   \                     ??ZDO_ProcessSimpleDescReq_5:
   \   000058   8A..         MOV       ?V1,R2
   \   00005A   800E         SJMP      ??ZDO_ProcessSimpleDescReq_2
    759              }
    760            }
    761            else
    762            {
    763              if ( ZSTACK_ROUTER_BUILD )
    764              {
    765                //If child found, then no descriptor
    766                if(AssocIsChild(aoi))
   \                     ??ZDO_ProcessSimpleDescReq_4:
   \   00005C                ; Setup parameters for call to function AssocIsChild
   \   00005C   12....       LCALL     `??AssocIsChild::?relay`; Banked call to: AssocIsChild
   \   00005F   E9           MOV       A,R1
   \   000060   6005         JZ        ??ZDO_ProcessSimpleDescReq_6
    767                {
    768                  stat = ZDP_NO_DESCRIPTOR;
   \   000062   75..89       MOV       ?V0,#-0x77
   \   000065   8003         SJMP      ??ZDO_ProcessSimpleDescReq_2
    769                }
    770                //Otherwise no device found
    771                else
    772                {
    773                  stat = ZDP_DEVICE_NOT_FOUND;
   \                     ??ZDO_ProcessSimpleDescReq_6:
   \   000067   75..81       MOV       ?V0,#-0x7f
    774                }
    775              }
    776              else if ( ZSTACK_END_DEVICE_BUILD )
    777              {
    778                stat = ZDP_INVALID_REQTYPE;
    779              }
    780            }
    781          
    782            ZDP_SimpleDescMsg( inMsg, stat, sDesc );
   \                     ??ZDO_ProcessSimpleDescReq_2:
   \   00006A                ; Setup parameters for call to function ZDP_SimpleDescMsg
   \   00006A   85..82       MOV       DPL,?XSP + 0
   \   00006D   85..83       MOV       DPH,?XSP + 1
   \   000070   12....       LCALL     ?Subroutine151 & 0xFFFF
   \                     ??CrossCallReturnLabel_269:
   \   000073   A9..         MOV       R1,?V0
   \   000075   EE           MOV       A,R6
   \   000076   FA           MOV       R2,A
   \   000077   EF           MOV       A,R7
   \   000078   FB           MOV       R3,A
   \   000079   12....       LCALL     `??ZDP_SimpleDescMsg::?relay`; Banked call to: ZDP_SimpleDescMsg
    783          
    784            if ( free && sDesc )
   \   00007C   E5..         MOV       A,?V1
   \   00007E   600B         JZ        ??ZDO_ProcessSimpleDescReq_7
   \   000080   12....       LCALL     ?Subroutine50 & 0xFFFF
   \                     ??CrossCallReturnLabel_413:
   \   000083   6006         JZ        ??ZDO_ProcessSimpleDescReq_7
    785            {
    786              osal_mem_free( sDesc );
   \   000085                ; Setup parameters for call to function osal_mem_free
   \   000085   12....       LCALL     ?Subroutine88 & 0xFFFF
    787            }
   \                     ??CrossCallReturnLabel_426:
   \   000088   12....       LCALL     `??osal_mem_free::?relay`; Banked call to: osal_mem_free
    788          }
   \                     ??ZDO_ProcessSimpleDescReq_7:
   \   00008B   02....       LJMP      ?Subroutine2 & 0xFFFF

   \                                 In  segment BANKED_CODE, align 1, keep-with-next
   \                     ?Subroutine109:
   \   000000   EE           MOV       A,R6
   \   000001   12....       LCALL     ??Subroutine206_0 & 0xFFFF
   \                     ??CrossCallReturnLabel_507:
   \   000004   3F           ADDC      A,R7
   \   000005   22           RET

   \                                 In  segment BANKED_CODE, align 1, keep-with-next
   \                     ?Subroutine73:
   \   000000   12....       LCALL     ?Subroutine145 & 0xFFFF
   \                     ??CrossCallReturnLabel_398:
   \   000003   E0           MOVX      A,@DPTR
   \   000004   FC           MOV       R4,A
   \   000005   A3           INC       DPTR
   \   000006   E0           MOVX      A,@DPTR
   \   000007   22           RET

   \                                 In  segment BANKED_CODE, align 1, keep-with-next
   \                     ?Subroutine145:
   \   000000   F583         MOV       DPH,A
   \   000002                REQUIRE ??Subroutine189_0
   \   000002                ; // Fall through to label ??Subroutine189_0

   \                                 In  segment BANKED_CODE, align 1, keep-with-next
   \                     ?Subroutine50:
   \   000000   85..82       MOV       DPL,?XSP + 0
   \   000003   85..83       MOV       DPH,?XSP + 1
   \   000006                REQUIRE ??Subroutine191_0
   \   000006                ; // Fall through to label ??Subroutine191_0

   \                                 In  segment BANKED_CODE, align 1, keep-with-next
   \                     ??Subroutine191_0:
   \   000000   12....       LCALL     ?Subroutine154 & 0xFFFF
   \                     ??CrossCallReturnLabel_438:
   \   000003   E8           MOV       A,R0
   \   000004   49           ORL       A,R1
   \   000005   22           RET

   \                                 In  segment BANKED_CODE, align 1, keep-with-next
   \                     ?Subroutine88:
   \   000000   85..82       MOV       DPL,?XSP + 0
   \   000003   85..83       MOV       DPH,?XSP + 1
   \   000006                REQUIRE ??Subroutine192_0
   \   000006                ; // Fall through to label ??Subroutine192_0

   \                                 In  segment BANKED_CODE, align 1, keep-with-next
   \                     ??Subroutine206_0:
   \   000000   2413         ADD       A,#0x13
   \   000002   F582         MOV       DPL,A
   \   000004   E4           CLR       A
   \   000005   22           RET
    789          
    790          /*********************************************************************
    791           * @fn          ZDO_ProcessSimpleDescRsp
    792           *
    793           * @brief       This function processes and responds to the
    794           *              Simple_Desc_rsp message.
    795           *
    796           * @param       inMsg - incoming message (request)
    797           *
    798           * @return      none
    799           */

   \                                 In  segment BANKED_CODE, align 1, keep-with-next
    800          void ZDO_ProcessSimpleDescRsp( zdoIncomingMsg_t *inMsg )
   \                     ZDO_ProcessSimpleDescRsp:
    801          {
   \   000000                ; Saved register size: 0
   \   000000                ; Auto size: 0
    802          
    803          }
   \   000000   02....       LJMP      ?BRET
    804          
    805          /*********************************************************************
    806           * @fn          ZDO_ProcessActiveEPReq
    807           *
    808           * @brief       This function processes and responds to the
    809           *              Active_EP_req message.
    810           *
    811           * @param       inMsg  - incoming message (request)
    812           *
    813           * @return      none
    814           */

   \                                 In  segment BANKED_CODE, align 1, keep-with-next
    815          void ZDO_ProcessActiveEPReq( zdoIncomingMsg_t *inMsg )
   \                     ZDO_ProcessActiveEPReq:
    816          {
   \   000000                REQUIRE ?V0
   \   000000                REQUIRE ?V1
   \   000000                REQUIRE ?V2
   \   000000                REQUIRE ?V3
   \   000000                REQUIRE ?V4
   \   000000                REQUIRE ?V5
   \   000000   74F2         MOV       A,#-0xe
   \   000002   12....       LCALL     ?BANKED_ENTER_XDATA
   \   000005                ; Saved register size: 14
   \   000005                ; Auto size: 0
   \   000005   EA           MOV       A,R2
   \   000006   FE           MOV       R6,A
   \   000007   EB           MOV       A,R3
   \   000008   FF           MOV       R7,A
    817            byte cnt = 0;
   \   000009   75..00       MOV       ?V0,#0x0
    818            uint16 aoi;
    819            byte stat = ZDP_SUCCESS;
   \   00000C   75..00       MOV       ?V1,#0x0
    820          
    821            aoi = BUILD_UINT16( inMsg->asdu[0], inMsg->asdu[1] );
   \   00000F   12....       LCALL     ?Subroutine109 & 0xFFFF
   \                     ??CrossCallReturnLabel_183:
   \   000012   F583         MOV       DPH,A
   \   000014   12....       LCALL     ??Subroutine169_0 & 0xFFFF
   \                     ??CrossCallReturnLabel_298:
   \   000017   12....       LCALL     ?Subroutine59 & 0xFFFF
    822          
    823            if ( aoi == NLME_GetShortAddr() )
   \                     ??CrossCallReturnLabel_309:
   \   00001A                ; Setup parameters for call to function NLME_GetShortAddr
   \   00001A   12....       LCALL     `??NLME_GetShortAddr::?relay`; Banked call to: NLME_GetShortAddr
   \   00001D   EA           MOV       A,R2
   \   00001E   65..         XRL       A,?V2
   \   000020   7003         JNZ       ??ZDO_ProcessActiveEPReq_0
   \   000022   EB           MOV       A,R3
   \   000023   65..         XRL       A,?V3
   \                     ??ZDO_ProcessActiveEPReq_0:
   \   000025   7012         JNZ       ??ZDO_ProcessActiveEPReq_1
    824            {
    825              cnt = afNumEndPoints() - 1;  // -1 for ZDO endpoint descriptor
   \   000027                ; Setup parameters for call to function afNumEndPoints
   \   000027   12....       LCALL     `??afNumEndPoints::?relay`; Banked call to: afNumEndPoints
   \   00002A   E9           MOV       A,R1
   \   00002B   14           DEC       A
   \   00002C   F5..         MOV       ?V0,A
    826              afEndPoints( (uint8 *)ZDOBuildBuf, true );
   \   00002E                ; Setup parameters for call to function afEndPoints
   \   00002E   7901         MOV       R1,#0x1
   \   000030   7A..         MOV       R2,#ZDOBuildBuf & 0xff
   \   000032   7B..         MOV       R3,#(ZDOBuildBuf >> 8) & 0xff
   \   000034   12....       LCALL     `??afEndPoints::?relay`; Banked call to: afEndPoints
   \   000037   8003         SJMP      ??ZDO_ProcessActiveEPReq_2
    827            }
    828            else
    829            {
    830              if(ZG_BUILD_ENDDEVICE_TYPE)
    831              {
    832                stat = ZDP_INVALID_REQTYPE;
    833              }
    834              else
    835              {
    836                stat = ZDP_DEVICE_NOT_FOUND;
   \                     ??ZDO_ProcessActiveEPReq_1:
   \   000039   75..81       MOV       ?V1,#-0x7f
    837              }
    838            }
    839          
    840            ZDP_ActiveEPRsp( inMsg->TransSeq, &(inMsg->srcAddr), stat,
    841                            aoi, cnt, (uint8 *)ZDOBuildBuf, inMsg->SecurityUse );
   \                     ??ZDO_ProcessActiveEPReq_2:
   \   00003C                ; Setup parameters for call to function ZDP_EPRsp
   \   00003C   12....       LCALL     ?Subroutine100 & 0xFFFF
   \                     ??CrossCallReturnLabel_395:
   \   00003F   F5..         MOV       ?V4,A
   \   000041   78..         MOV       R0,#?V4
   \   000043   12....       LCALL     ?PUSH_XSTACK_I_ONE
   \   000046   75....       MOV       ?V4,#ZDOBuildBuf & 0xff
   \   000049   75....       MOV       ?V5,#(ZDOBuildBuf >> 8) & 0xff
   \   00004C   78..         MOV       R0,#?V4
   \   00004E   12....       LCALL     ?PUSH_XSTACK_I_TWO
   \   000051   78..         MOV       R0,#?V0
   \   000053   12....       LCALL     ?PUSH_XSTACK_I_ONE
   \   000056   78..         MOV       R0,#?V2
   \   000058   12....       LCALL     ?PUSH_XSTACK_I_TWO
   \   00005B   E5..         MOV       A,?V1
   \   00005D   F5..         MOV       ?V0,A
   \   00005F   78..         MOV       R0,#?V0
   \   000061   12....       LCALL     ?PUSH_XSTACK_I_ONE
   \   000064   12....       LCALL     ?Subroutine116 & 0xFFFF
   \                     ??CrossCallReturnLabel_200:
   \   000067   12....       LCALL     ??Subroutine186_0 & 0xFFFF
   \                     ??CrossCallReturnLabel_390:
   \   00006A   F9           MOV       R1,A
   \   00006B   7A05         MOV       R2,#0x5
   \   00006D   7B80         MOV       R3,#-0x80
   \   00006F   12....       LCALL     `??ZDP_EPRsp::?relay`; Banked call to: ZDP_EPRsp
   \   000072   7407         MOV       A,#0x7
   \   000074   12....       LCALL     ?DEALLOC_XSTACK8
    842          }
   \   000077   02....       LJMP      ?Subroutine5 & 0xFFFF

   \                                 In  segment BANKED_CODE, align 1, keep-with-next
   \                     ?Subroutine59:
   \   000000   E0           MOVX      A,@DPTR
   \   000001                REQUIRE ??Subroutine173_0
   \   000001                ; // Fall through to label ??Subroutine173_0

   \                                 In  segment BANKED_CODE, align 1, keep-with-next
   \                     ??Subroutine173_0:
   \   000000   FA           MOV       R2,A
   \   000001   A3           INC       DPTR
   \   000002   E0           MOVX      A,@DPTR
   \   000003   F8           MOV       R0,A
   \   000004   E4           CLR       A
   \   000005   C8           XCH       A,R0
   \   000006   F9           MOV       R1,A
   \   000007   EA           MOV       A,R2
   \   000008   28           ADD       A,R0
   \   000009   F5..         MOV       ?V2,A
   \   00000B   E4           CLR       A
   \   00000C   39           ADDC      A,R1
   \   00000D   F5..         MOV       ?V3,A
   \   00000F   22           RET

   \                                 In  segment BANKED_CODE, align 1, keep-with-next
   \                     ?Subroutine116:
   \   000000   EE           MOV       A,R6
   \   000001   2402         ADD       A,#0x2
   \   000003   FC           MOV       R4,A
   \   000004   E4           CLR       A
   \   000005   3F           ADDC      A,R7
   \   000006   FD           MOV       R5,A
   \   000007   EE           MOV       A,R6
   \   000008   240F         ADD       A,#0xf
   \   00000A   22           RET

   \                                 In  segment BANKED_CODE, align 1, keep-with-next
   \                     ?Subroutine100:
   \   000000   EE           MOV       A,R6
   \   000001   240E         ADD       A,#0xe
   \   000003                REQUIRE ??Subroutine186_0
   \   000003                ; // Fall through to label ??Subroutine186_0

   \                                 In  segment BANKED_CODE, align 1, keep-with-next
   \                     ??Subroutine186_0:
   \   000000   F582         MOV       DPL,A
   \   000002   E4           CLR       A
   \   000003                REQUIRE ??Subroutine187_0
   \   000003                ; // Fall through to label ??Subroutine187_0

   \                                 In  segment BANKED_CODE, align 1, keep-with-next
   \                     ?Subroutine5:
   \   000000   7F06         MOV       R7,#0x6
   \   000002   02....       LJMP      ?BANKED_LEAVE_XDATA
    843          
    844          /*********************************************************************
    845           * @fn          ZDO_ConvertOTAClusters
    846           *
    847           * @brief       This function will convert the over-the-air cluster list
    848           *              format to an internal format.
    849           *
    850           * @param       inMsg  - incoming message (request)
    851           *
    852           * @return      pointer to incremented inBuf
    853           */

   \                                 In  segment BANKED_CODE, align 1, keep-with-next
    854          uint8 *ZDO_ConvertOTAClusters( uint8 cnt, uint8 *inBuf, uint16 *outList )
   \                     ZDO_ConvertOTAClusters:
    855          {
   \   000000                REQUIRE ?V0
   \   000000                REQUIRE ?V1
   \   000000   74F6         MOV       A,#-0xa
   \   000002   12....       LCALL     ?BANKED_ENTER_XDATA
   \   000005                ; Saved register size: 10
   \   000005                ; Auto size: 0
   \   000005   E9           MOV       A,R1
   \   000006   FF           MOV       R7,A
    856            uint8 x;
    857          
    858            for ( x = 0; x < cnt; x++ )
   \   000007   7E00         MOV       R6,#0x0
   \   000009   8030         SJMP      ??ZDO_ConvertOTAClusters_0
    859            {
    860              // convert ota format to internal
    861              outList[x] = BUILD_UINT16( inBuf[0], inBuf[1] );
   \                     ??ZDO_ConvertOTAClusters_1:
   \   00000B   8A82         MOV       DPL,R2
   \   00000D   8B83         MOV       DPH,R3
   \   00000F   12....       LCALL     ?Subroutine152 & 0xFFFF
   \                     ??CrossCallReturnLabel_304:
   \   000012   F8           MOV       R0,A
   \   000013   E4           CLR       A
   \   000014   C8           XCH       A,R0
   \   000015   F9           MOV       R1,A
   \   000016   E5..         MOV       A,?V0
   \   000018   28           ADD       A,R0
   \   000019   E4           CLR       A
   \   00001A   39           ADDC      A,R1
   \   00001B   F5..         MOV       ?V1,A
   \   00001D   EE           MOV       A,R6
   \   00001E   25E0         ADD       A,0xE0 /* A   */
   \   000020   F8           MOV       R0,A
   \   000021   E4           CLR       A
   \   000022   33           RLC       A
   \   000023   F9           MOV       R1,A
   \   000024   EC           MOV       A,R4
   \   000025   28           ADD       A,R0
   \   000026   F582         MOV       DPL,A
   \   000028   ED           MOV       A,R5
   \   000029   39           ADDC      A,R1
   \   00002A   F583         MOV       DPH,A
   \   00002C   E5..         MOV       A,?V0
   \   00002E   F0           MOVX      @DPTR,A
   \   00002F   A3           INC       DPTR
   \   000030   E5..         MOV       A,?V1
   \   000032   F0           MOVX      @DPTR,A
    862              inBuf += sizeof( uint16 );
   \   000033   EA           MOV       A,R2
   \   000034   2402         ADD       A,#0x2
   \   000036   FA           MOV       R2,A
   \   000037   5001         JNC       ??ZDO_ConvertOTAClusters_2
   \   000039   0B           INC       R3
    863            }
   \                     ??ZDO_ConvertOTAClusters_2:
   \   00003A   0E           INC       R6
   \                     ??ZDO_ConvertOTAClusters_0:
   \   00003B   EE           MOV       A,R6
   \   00003C   C3           CLR       C
   \   00003D   9F           SUBB      A,R7
   \   00003E   40CB         JC        ??ZDO_ConvertOTAClusters_1
    864            return ( inBuf );
   \   000040   02....       LJMP      ??Subroutine172_0 & 0xFFFF
    865          }
    866          
    867          /*********************************************************************
    868           * @fn          ZDO_ProcessMatchDescReq
    869           *
    870           * @brief       This function processes and responds to the
    871           *              Match_Desc_req message.
    872           *
    873           * @param       inMsg  - incoming message (request)
    874           *
    875           * @return      none
    876           */

   \                                 In  segment BANKED_CODE, align 1, keep-with-next
    877          void ZDO_ProcessMatchDescReq( zdoIncomingMsg_t *inMsg )
   \                     ZDO_ProcessMatchDescReq:
    878          {
   \   000000                REQUIRE ?V0
   \   000000                REQUIRE ?V1
   \   000000                REQUIRE ?V2
   \   000000                REQUIRE ?V3
   \   000000                REQUIRE ?V4
   \   000000                REQUIRE ?V5
   \   000000                REQUIRE ?V6
   \   000000                REQUIRE ?V7
   \   000000                REQUIRE ?V8
   \   000000                REQUIRE ?V9
   \   000000                REQUIRE ?V10
   \   000000                REQUIRE ?V11
   \   000000                REQUIRE ?V12
   \   000000                REQUIRE ?V13
   \   000000                REQUIRE ?V14
   \   000000                REQUIRE ?V15
   \   000000   74E8         MOV       A,#-0x18
   \   000002   12....       LCALL     ?BANKED_ENTER_XDATA
   \   000005                ; Saved register size: 24
   \   000005                ; Auto size: 8
   \   000005   74F8         MOV       A,#-0x8
   \   000007   12....       LCALL     ?ALLOC_XSTACK8
   \   00000A   7402         MOV       A,#0x2
   \   00000C   12....       LCALL     ?XSTACK_DISP0_8
   \   00000F   12....       LCALL     ??Subroutine179_0 & 0xFFFF
    879            uint8 epCnt = 0;
   \                     ??CrossCallReturnLabel_353:
   \   000012   75..00       MOV       ?V7,#0x0
    880            uint8 numInClusters;
    881            uint16 *inClusters = NULL;
   \   000015   75..00       MOV       ?V14,#0x0
   \   000018   75..00       MOV       ?V15,#0x0
    882            uint8 numOutClusters;
    883            uint16 *outClusters = NULL;
   \   00001B   75..00       MOV       ?V12,#0x0
   \   00001E   75..00       MOV       ?V13,#0x0
    884            epList_t *epDesc;
    885            SimpleDescriptionFormat_t *sDesc = NULL;
    886            uint8 allocated;
    887            uint8 *msg;
    888            uint16 aoi;
    889            uint16 profileID;
    890          
    891            // Parse the incoming message
    892            msg = inMsg->asdu;
   \   000021   7402         MOV       A,#0x2
   \   000023   12....       LCALL     ?XSTACK_DISP0_8
   \   000026   12....       LCALL     ??Subroutine202_0 & 0xFFFF
   \                     ??CrossCallReturnLabel_463:
   \   000029   12....       LCALL     ??Subroutine185_0 & 0xFFFF
   \                     ??CrossCallReturnLabel_384:
   \   00002C   38           ADDC      A,R0
   \   00002D   12....       LCALL     ??Subroutine209_0 & 0xFFFF
    893            aoi = BUILD_UINT16( msg[0], msg[1] );
   \                     ??CrossCallReturnLabel_525:
   \   000030   12....       LCALL     ??Subroutine173_0 & 0xFFFF
    894            profileID = BUILD_UINT16( msg[2], msg[3] );
   \                     ??CrossCallReturnLabel_308:
   \   000033   8E82         MOV       DPL,R6
   \   000035   8F83         MOV       DPH,R7
   \   000037   A3           INC       DPTR
   \   000038   A3           INC       DPTR
   \   000039   E0           MOVX      A,@DPTR
   \   00003A   FA           MOV       R2,A
   \   00003B   8E82         MOV       DPL,R6
   \   00003D   8F83         MOV       DPH,R7
   \   00003F   A3           INC       DPTR
   \   000040   A3           INC       DPTR
   \   000041   A3           INC       DPTR
   \   000042   E0           MOVX      A,@DPTR
   \   000043   F9           MOV       R1,A
   \   000044   EA           MOV       A,R2
   \   000045   F5..         MOV       ?V0,A
   \   000047   E4           CLR       A
   \   000048   39           ADDC      A,R1
   \   000049   F5..         MOV       ?V1,A
    895            msg += 4;
    896          
    897            if ( ADDR_BCAST_NOT_ME == NLME_IsAddressBroadcast(aoi) )
   \   00004B   7402         MOV       A,#0x2
   \   00004D   12....       LCALL     ?XSTACK_DISP0_8
   \   000050   E0           MOVX      A,@DPTR
   \   000051   240F         ADD       A,#0xf
   \   000053   F8           MOV       R0,A
   \   000054   A3           INC       DPTR
   \   000055   E0           MOVX      A,@DPTR
   \   000056   3400         ADDC      A,#0x0
   \   000058   F9           MOV       R1,A
   \   000059   7406         MOV       A,#0x6
   \   00005B   12....       LCALL     ?XSTACK_DISP0_8
   \   00005E   12....       LCALL     ??Subroutine177_0 & 0xFFFF
   \                     ??CrossCallReturnLabel_338:
   \   000061   7402         MOV       A,#0x2
   \   000063   12....       LCALL     ?XSTACK_DISP0_8
   \   000066   E0           MOVX      A,@DPTR
   \   000067   2402         ADD       A,#0x2
   \   000069   F8           MOV       R0,A
   \   00006A   A3           INC       DPTR
   \   00006B   E0           MOVX      A,@DPTR
   \   00006C   3400         ADDC      A,#0x0
   \   00006E   12....       LCALL     ?Subroutine37 & 0xFFFF
   \                     ??CrossCallReturnLabel_349:
   \   000071   7402         MOV       A,#0x2
   \   000073   12....       LCALL     ?XSTACK_DISP0_8
   \   000076   E0           MOVX      A,@DPTR
   \   000077   240E         ADD       A,#0xe
   \   000079   F8           MOV       R0,A
   \   00007A   A3           INC       DPTR
   \   00007B   E0           MOVX      A,@DPTR
   \   00007C   3400         ADDC      A,#0x0
   \   00007E   F9           MOV       R1,A
   \   00007F   7404         MOV       A,#0x4
   \   000081   12....       LCALL     ?XSTACK_DISP0_8
   \   000084   12....       LCALL     ??Subroutine177_0 & 0xFFFF
   \                     ??CrossCallReturnLabel_339:
   \   000087                ; Setup parameters for call to function NLME_IsAddressBroadcast
   \   000087   AA..         MOV       R2,?V2
   \   000089   AB..         MOV       R3,?V3
   \   00008B   12....       LCALL     `??NLME_IsAddressBroadcast::?relay`; Banked call to: NLME_IsAddressBroadcast
   \   00008E   E9           MOV       A,R1
   \   00008F   6401         XRL       A,#0x1
   \   000091   7040         JNZ       ??ZDO_ProcessMatchDescReq_0
    898            {
    899              ZDP_MatchDescRsp( inMsg->TransSeq, &(inMsg->srcAddr), ZDP_INVALID_REQTYPE,
    900                                    aoi, 0, NULL, inMsg->SecurityUse );
   \   000093                ; Setup parameters for call to function ZDP_EPRsp
   \   000093   7404         MOV       A,#0x4
   \   000095   12....       LCALL     ?XSTACK_DISP0_8
   \   000098   12....       LCALL     ?Subroutine53 & 0xFFFF
   \                     ??CrossCallReturnLabel_88:
   \   00009B   12....       LCALL     ?PUSH_XSTACK_I_ONE
   \   00009E   E4           CLR       A
   \   00009F   F5..         MOV       ?V0,A
   \   0000A1   F5..         MOV       ?V1,A
   \   0000A3   78..         MOV       R0,#?V0
   \   0000A5   12....       LCALL     ?PUSH_XSTACK_I_TWO
   \   0000A8   78..         MOV       R0,#?V0
   \   0000AA   12....       LCALL     ?PUSH_XSTACK_I_ONE
   \   0000AD   78..         MOV       R0,#?V2
   \   0000AF   12....       LCALL     ?PUSH_XSTACK_I_TWO
   \   0000B2   75..80       MOV       ?V0,#-0x80
   \   0000B5   78..         MOV       R0,#?V0
   \   0000B7   12....       LCALL     ?PUSH_XSTACK_I_ONE
   \   0000BA   7407         MOV       A,#0x7
   \   0000BC   12....       LCALL     ?XSTACK_DISP0_8
   \   0000BF   12....       LCALL     ?Subroutine67 & 0xFFFF
   \                     ??CrossCallReturnLabel_111:
   \   0000C2   12....       LCALL     ?XSTACK_DISP0_8
   \   0000C5   12....       LCALL     ?Subroutine52 & 0xFFFF
   \                     ??CrossCallReturnLabel_84:
   \   0000C8   12....       LCALL     `??ZDP_EPRsp::?relay`; Banked call to: ZDP_EPRsp
   \   0000CB   7407         MOV       A,#0x7
   \   0000CD   12....       LCALL     ?DEALLOC_XSTACK8
    901              return;
   \   0000D0   02....       LJMP      ??ZDO_ProcessMatchDescReq_1 & 0xFFFF
    902            }
    903            else if ( (ADDR_NOT_BCAST == NLME_IsAddressBroadcast(aoi)) && (aoi != ZDAppNwkAddr.addr.shortAddr) )
   \                     ??ZDO_ProcessMatchDescReq_0:
   \   0000D3                ; Setup parameters for call to function NLME_IsAddressBroadcast
   \   0000D3   AA..         MOV       R2,?V2
   \   0000D5   AB..         MOV       R3,?V3
   \   0000D7   12....       LCALL     `??NLME_IsAddressBroadcast::?relay`; Banked call to: NLME_IsAddressBroadcast
   \   0000DA   E9           MOV       A,R1
   \   0000DB   7058         JNZ       ??ZDO_ProcessMatchDescReq_2
   \   0000DD   90....       MOV       DPTR,#ZDAppNwkAddr
   \   0000E0   E0           MOVX      A,@DPTR
   \   0000E1   65..         XRL       A,?V2
   \   0000E3   7004         JNZ       ??ZDO_ProcessMatchDescReq_3
   \   0000E5   A3           INC       DPTR
   \   0000E6   E0           MOVX      A,@DPTR
   \   0000E7   65..         XRL       A,?V3
   \                     ??ZDO_ProcessMatchDescReq_3:
   \   0000E9   604A         JZ        ??ZDO_ProcessMatchDescReq_2
    904            {
    905          #if (ZG_BUILD_ENDDEVICE_TYPE)
    906              if(ZG_DEVICE_ENDDEVICE_TYPE)
    907              {    
    908              ZDP_MatchDescRsp( inMsg->TransSeq, &(inMsg->srcAddr), ZDP_INVALID_REQTYPE,
    909                                       aoi, 0, NULL, inMsg->SecurityUse );
    910              }
    911          #else 
    912              if (ZG_DEVICE_RTR_TYPE)
   \   0000EB   90....       MOV       DPTR,#zgDeviceLogicalType
   \   0000EE   E0           MOVX      A,@DPTR
   \   0000EF   6004         JZ        ??ZDO_ProcessMatchDescReq_4
   \   0000F1   6401         XRL       A,#0x1
   \   0000F3   703D         JNZ       ??ZDO_ProcessMatchDescReq_5
    913              {
    914              ZDP_MatchDescRsp( inMsg->TransSeq, &(inMsg->srcAddr), ZDP_DEVICE_NOT_FOUND,
    915                                       aoi, 0, NULL, inMsg->SecurityUse );
   \                     ??ZDO_ProcessMatchDescReq_4:
   \   0000F5                ; Setup parameters for call to function ZDP_EPRsp
   \   0000F5   7404         MOV       A,#0x4
   \   0000F7   12....       LCALL     ?XSTACK_DISP0_8
   \   0000FA   12....       LCALL     ?Subroutine53 & 0xFFFF
    916              }
   \                     ??CrossCallReturnLabel_89:
   \   0000FD   12....       LCALL     ?PUSH_XSTACK_I_ONE
   \   000100   E4           CLR       A
   \   000101   F5..         MOV       ?V0,A
   \   000103   F5..         MOV       ?V1,A
   \   000105   78..         MOV       R0,#?V0
   \   000107   12....       LCALL     ?PUSH_XSTACK_I_TWO
   \   00010A   78..         MOV       R0,#?V0
   \   00010C   12....       LCALL     ?PUSH_XSTACK_I_ONE
   \   00010F   78..         MOV       R0,#?V2
   \   000111   12....       LCALL     ?PUSH_XSTACK_I_TWO
   \   000114   75..81       MOV       ?V0,#-0x7f
   \   000117   78..         MOV       R0,#?V0
   \   000119   12....       LCALL     ?PUSH_XSTACK_I_ONE
   \   00011C   7407         MOV       A,#0x7
   \   00011E   12....       LCALL     ?XSTACK_DISP0_8
   \   000121   12....       LCALL     ?Subroutine67 & 0xFFFF
   \                     ??CrossCallReturnLabel_112:
   \   000124   12....       LCALL     ?XSTACK_DISP0_8
   \   000127   12....       LCALL     ?Subroutine52 & 0xFFFF
   \                     ??CrossCallReturnLabel_85:
   \   00012A   12....       LCALL     `??ZDP_EPRsp::?relay`; Banked call to: ZDP_EPRsp
   \   00012D   7407         MOV       A,#0x7
   \   00012F   12....       LCALL     ?DEALLOC_XSTACK8
    917          #endif
    918              return;
   \                     ??ZDO_ProcessMatchDescReq_5:
   \   000132   02....       LJMP      ??ZDO_ProcessMatchDescReq_1 & 0xFFFF
    919            }
    920          
    921            if ((numInClusters = *msg++) &&
    922                (inClusters = (uint16*)osal_mem_alloc( numInClusters * sizeof( uint16 ) )))
   \                     ??ZDO_ProcessMatchDescReq_2:
   \   000135   8E82         MOV       DPL,R6
   \   000137   8F83         MOV       DPH,R7
   \   000139   A3           INC       DPTR
   \   00013A   A3           INC       DPTR
   \   00013B   A3           INC       DPTR
   \   00013C   A3           INC       DPTR
   \   00013D   E0           MOVX      A,@DPTR
   \   00013E   F5..         MOV       ?V3,A
   \   000140   EE           MOV       A,R6
   \   000141   2405         ADD       A,#0x5
   \   000143   FE           MOV       R6,A
   \   000144   5001         JNC       ??ZDO_ProcessMatchDescReq_6
   \   000146   0F           INC       R7
   \                     ??ZDO_ProcessMatchDescReq_6:
   \   000147   E5..         MOV       A,?V3
   \   000149   6026         JZ        ??ZDO_ProcessMatchDescReq_7
   \   00014B                ; Setup parameters for call to function osal_mem_alloc
   \   00014B   12....       LCALL     ?Subroutine103 & 0xFFFF
   \                     ??CrossCallReturnLabel_165:
   \   00014E   12....       LCALL     `??osal_mem_alloc::?relay`; Banked call to: osal_mem_alloc
   \   000151   8A..         MOV       ?V14,R2
   \   000153   8B..         MOV       ?V15,R3
   \   000155   EA           MOV       A,R2
   \   000156   45..         ORL       A,?V15
   \   000158   6017         JZ        ??ZDO_ProcessMatchDescReq_7
    923            {
    924              msg = ZDO_ConvertOTAClusters( numInClusters, msg, inClusters );
   \   00015A                ; Setup parameters for call to function ZDO_ConvertOTAClusters
   \   00015A   AC..         MOV       R4,?V14
   \   00015C   AD..         MOV       R5,?V15
   \   00015E   EE           MOV       A,R6
   \   00015F   FA           MOV       R2,A
   \   000160   EF           MOV       A,R7
   \   000161   FB           MOV       R3,A
   \   000162   A9..         MOV       R1,?V3
   \   000164   12....       LCALL     `??ZDO_ConvertOTAClusters::?relay`; Banked call to: ZDO_ConvertOTAClusters
   \   000167   8A..         MOV       ?V4,R2
   \   000169   8B..         MOV       ?V5,R3
   \   00016B   AE..         MOV       R6,?V4
   \   00016D   AF..         MOV       R7,?V5
   \   00016F   8003         SJMP      ??ZDO_ProcessMatchDescReq_8
    925            }
    926            else
    927            {
    928              numInClusters = 0;
   \                     ??ZDO_ProcessMatchDescReq_7:
   \   000171   75..00       MOV       ?V3,#0x0
    929            }
    930          
    931            if ((numOutClusters = *msg++) &&
    932                (outClusters = (uint16 *)osal_mem_alloc( numOutClusters * sizeof( uint16 ) )))
   \                     ??ZDO_ProcessMatchDescReq_8:
   \   000174   8E82         MOV       DPL,R6
   \   000176   8F83         MOV       DPH,R7
   \   000178   E0           MOVX      A,@DPTR
   \   000179   F5..         MOV       ?V2,A
   \   00017B   A3           INC       DPTR
   \   00017C   AE82         MOV       R6,DPL
   \   00017E   AF83         MOV       R7,DPH
   \   000180   601E         JZ        ??ZDO_ProcessMatchDescReq_9
   \   000182                ; Setup parameters for call to function osal_mem_alloc
   \   000182   12....       LCALL     ?Subroutine103 & 0xFFFF
   \                     ??CrossCallReturnLabel_166:
   \   000185   12....       LCALL     `??osal_mem_alloc::?relay`; Banked call to: osal_mem_alloc
   \   000188   8A..         MOV       ?V12,R2
   \   00018A   8B..         MOV       ?V13,R3
   \   00018C   EA           MOV       A,R2
   \   00018D   45..         ORL       A,?V13
   \   00018F   600F         JZ        ??ZDO_ProcessMatchDescReq_9
    933            {
    934              msg = ZDO_ConvertOTAClusters( numOutClusters, msg, outClusters );
   \   000191                ; Setup parameters for call to function ZDO_ConvertOTAClusters
   \   000191   AC..         MOV       R4,?V12
   \   000193   AD..         MOV       R5,?V13
   \   000195   EE           MOV       A,R6
   \   000196   FA           MOV       R2,A
   \   000197   EF           MOV       A,R7
   \   000198   FB           MOV       R3,A
   \   000199   A9..         MOV       R1,?V2
   \   00019B   12....       LCALL     `??ZDO_ConvertOTAClusters::?relay`; Banked call to: ZDO_ConvertOTAClusters
   \   00019E   8003         SJMP      ??ZDO_ProcessMatchDescReq_10
    935            }
    936            else
    937            {
    938              numOutClusters = 0;
   \                     ??ZDO_ProcessMatchDescReq_9:
   \   0001A0   75..00       MOV       ?V2,#0x0
    939            }
    940          
    941            // First count the number of endpoints that match.
    942            epDesc = epList;
   \                     ??ZDO_ProcessMatchDescReq_10:
   \   0001A3   90....       MOV       DPTR,#epList
   \   0001A6   8045         SJMP      ??ZDO_ProcessMatchDescReq_11
    943            while ( epDesc )
    944            {
    945              // Don't search endpoint 0 and check if response is allowed
    946              if ( epDesc->epDesc->endPoint != ZDO_EP && (epDesc->flags&eEP_AllowMatch) )
    947              {
    948                if ( epDesc->pfnDescCB )
    949                {
    950                  sDesc = (SimpleDescriptionFormat_t *)epDesc->pfnDescCB( AF_DESCRIPTOR_SIMPLE, epDesc->epDesc->endPoint );
    951                  allocated = TRUE;
    952                }
    953                else
    954                {
    955                  sDesc = epDesc->epDesc->simpleDesc;
    956                  allocated = FALSE;
    957                }
    958          
    959                // Allow specific ProfileId or Wildcard ProfileID
    960                if ( sDesc && ( ( sDesc->AppProfId == profileID ) || ( profileID == ZDO_WILDCARD_PROFILE_ID ) ) )
    961                {
    962                  uint8 *uint8Buf = (uint8 *)ZDOBuildBuf;
    963          
    964                  // Are there matching input clusters?
    965                  if ((ZDO_AnyClusterMatches( numInClusters, inClusters,
    966                             sDesc->AppNumInClusters, sDesc->pAppInClusterList )) ||
    967                      // Are there matching output clusters?
    968                      (ZDO_AnyClusterMatches( numOutClusters, outClusters,
    969                             sDesc->AppNumOutClusters, sDesc->pAppOutClusterList )))
    970                  {
    971                    // Notify the endpoint of the match.
    972                    uint8 bufLen = sizeof( ZDO_MatchDescRspSent_t ) + (numOutClusters + numInClusters) * sizeof(uint16);
    973                    ZDO_MatchDescRspSent_t *pRspSent = (ZDO_MatchDescRspSent_t *) osal_msg_allocate( bufLen );
    974          
    975                    if (pRspSent)
    976                    {
    977                      pRspSent->hdr.event = ZDO_MATCH_DESC_RSP_SENT;
    978                      pRspSent->nwkAddr = inMsg->srcAddr.addr.shortAddr;
    979                      pRspSent->numInClusters = numInClusters;
    980                      pRspSent->numOutClusters = numOutClusters;
    981          
    982                      if (numInClusters)
    983                      {
    984                        pRspSent->pInClusters = (uint16*) (pRspSent + 1);
    985                        osal_memcpy(pRspSent->pInClusters, inClusters, numInClusters * sizeof(uint16));
    986                      }
    987                      else
    988                      {
    989                        pRspSent->pInClusters = NULL;
    990                      }
    991          
    992                      if (numOutClusters)
    993                      {
    994                        pRspSent->pOutClusters = (uint16*)(pRspSent + 1) + numInClusters;
    995                        osal_memcpy(pRspSent->pOutClusters, outClusters, numOutClusters * sizeof(uint16));
    996                      }
    997                      else
    998                      {
    999                        pRspSent->pOutClusters = NULL;
   \                     ??ZDO_ProcessMatchDescReq_12:
   \   0001A8   E4           CLR       A
   \   0001A9   F0           MOVX      @DPTR,A
   \   0001AA   A3           INC       DPTR
   \   0001AB   F0           MOVX      @DPTR,A
   1000                      }
   1001          
   1002                      osal_msg_send( *epDesc->epDesc->task_id, (uint8 *)pRspSent );
   \                     ??ZDO_ProcessMatchDescReq_13:
   \   0001AC                ; Setup parameters for call to function osal_msg_send
   \   0001AC   EE           MOV       A,R6
   \   0001AD   FA           MOV       R2,A
   \   0001AE   EF           MOV       A,R7
   \   0001AF   FB           MOV       R3,A
   \   0001B0   85..82       MOV       DPL,?V10
   \   0001B3   85..83       MOV       DPH,?V11
   \   0001B6   A3           INC       DPTR
   \   0001B7   A3           INC       DPTR
   \   0001B8   12....       LCALL     ?Subroutine161 & 0xFFFF
   \                     ??CrossCallReturnLabel_296:
   \   0001BB   12....       LCALL     ?Subroutine81 & 0xFFFF
   \                     ??CrossCallReturnLabel_291:
   \   0001BE   F9           MOV       R1,A
   \   0001BF   12....       LCALL     `??osal_msg_send::?relay`; Banked call to: osal_msg_send
   1003                    }
   1004          
   1005                    uint8Buf[epCnt++] = sDesc->EndPoint;
   \                     ??ZDO_ProcessMatchDescReq_14:
   \   0001C2   85..82       MOV       DPL,?V8
   \   0001C5   85..83       MOV       DPH,?V9
   \   0001C8   E0           MOVX      A,@DPTR
   \   0001C9   C0E0         PUSH      A
   \   0001CB   A8..         MOV       R0,?V7
   \   0001CD   74..         MOV       A,#ZDOBuildBuf & 0xff
   \   0001CF   28           ADD       A,R0
   \   0001D0   F582         MOV       DPL,A
   \   0001D2   E4           CLR       A
   \   0001D3   34..         ADDC      A,#(ZDOBuildBuf >> 8) & 0xff
   \   0001D5   F583         MOV       DPH,A
   \   0001D7   D0E0         POP       A
   \   0001D9   F0           MOVX      @DPTR,A
   \   0001DA   05..         INC       ?V7
   1006                  }
   1007                }
   1008          
   1009                if ( allocated )
   \                     ??ZDO_ProcessMatchDescReq_15:
   \   0001DC   A2..         MOV       C,?VB.0
   \   0001DE   5007         JNC       ??ZDO_ProcessMatchDescReq_16
   1010                {
   1011                  osal_mem_free( sDesc );
   \   0001E0                ; Setup parameters for call to function osal_mem_free
   \   0001E0   AA..         MOV       R2,?V8
   \   0001E2   AB..         MOV       R3,?V9
   \   0001E4   12....       LCALL     `??osal_mem_free::?relay`; Banked call to: osal_mem_free
   1012                }
   1013              }
   1014              epDesc = epDesc->nextDesc;
   \                     ??ZDO_ProcessMatchDescReq_16:
   \   0001E7   85..82       MOV       DPL,?V10
   \   0001EA   85..83       MOV       DPH,?V11
   \                     ??ZDO_ProcessMatchDescReq_11:
   \   0001ED   E0           MOVX      A,@DPTR
   \   0001EE   F5..         MOV       ?V10,A
   \   0001F0   A3           INC       DPTR
   \   0001F1   E0           MOVX      A,@DPTR
   \   0001F2   F5..         MOV       ?V11,A
   \   0001F4   E5..         MOV       A,?V10
   \   0001F6   45..         ORL       A,?V11
   \   0001F8   7003         JNZ       $+5
   \   0001FA   02....       LJMP      ??ZDO_ProcessMatchDescReq_17 & 0xFFFF
   \   0001FD   85..82       MOV       DPL,?V10
   \   000200   85..83       MOV       DPH,?V11
   \   000203   A3           INC       DPTR
   \   000204   A3           INC       DPTR
   \   000205   12....       LCALL     ??Subroutine176_0 & 0xFFFF
   \                     ??CrossCallReturnLabel_324:
   \   000208   E8           MOV       A,R0
   \   000209   FA           MOV       R2,A
   \   00020A   E9           MOV       A,R1
   \   00020B   FB           MOV       R3,A
   \   00020C   8A82         MOV       DPL,R2
   \   00020E   8B83         MOV       DPH,R3
   \   000210   E0           MOVX      A,@DPTR
   \   000211   FC           MOV       R4,A
   \   000212   60D3         JZ        ??ZDO_ProcessMatchDescReq_16
   \   000214   85..82       MOV       DPL,?V10
   \   000217   85..83       MOV       DPH,?V11
   \   00021A   A3           INC       DPTR
   \   00021B   A3           INC       DPTR
   \   00021C   A3           INC       DPTR
   \   00021D   A3           INC       DPTR
   \   00021E   A3           INC       DPTR
   \   00021F   A3           INC       DPTR
   \   000220   A3           INC       DPTR
   \   000221   A3           INC       DPTR
   \   000222   E0           MOVX      A,@DPTR
   \   000223   A2E0         MOV       C,0xE0 /* A   */.0
   \   000225   50C0         JNC       ??ZDO_ProcessMatchDescReq_16
   \   000227   85..82       MOV       DPL,?V10
   \   00022A   85..83       MOV       DPH,?V11
   \   00022D   A3           INC       DPTR
   \   00022E   A3           INC       DPTR
   \   00022F   12....       LCALL     ?Subroutine76 & 0xFFFF
   \                     ??CrossCallReturnLabel_300:
   \   000232   E582         MOV       A,DPL
   \   000234   4583         ORL       A,DPH
   \   000236   600F         JZ        ??ZDO_ProcessMatchDescReq_18
   \   000238                ; Setup parameters for indirect call
   \   000238   EC           MOV       A,R4
   \   000239   FA           MOV       R2,A
   \   00023A   7901         MOV       R1,#0x1
   \   00023C   12....       LCALL     ?CALL_IND
   \   00023F   8A..         MOV       ?V8,R2
   \   000241   8B..         MOV       ?V9,R3
   \   000243   D2..         SETB      ?VB.0
   \   000245   8011         SJMP      ??ZDO_ProcessMatchDescReq_19
   \                     ??ZDO_ProcessMatchDescReq_18:
   \   000247   8A82         MOV       DPL,R2
   \   000249   8B83         MOV       DPH,R3
   \   00024B   A3           INC       DPTR
   \   00024C   A3           INC       DPTR
   \   00024D   A3           INC       DPTR
   \   00024E   A3           INC       DPTR
   \   00024F   E0           MOVX      A,@DPTR
   \   000250   F5..         MOV       ?V8,A
   \   000252   A3           INC       DPTR
   \   000253   E0           MOVX      A,@DPTR
   \   000254   F5..         MOV       ?V9,A
   \   000256   C2..         CLR       ?VB.0
   \                     ??ZDO_ProcessMatchDescReq_19:
   \   000258   E5..         MOV       A,?V8
   \   00025A   45..         ORL       A,?V9
   \   00025C   7003         JNZ       $+5
   \   00025E   02....       LJMP      ??ZDO_ProcessMatchDescReq_15 & 0xFFFF
   \   000261   85..82       MOV       DPL,?V8
   \   000264   85..83       MOV       DPH,?V9
   \   000267   A3           INC       DPTR
   \   000268   E0           MOVX      A,@DPTR
   \   000269   65..         XRL       A,?V0
   \   00026B   7004         JNZ       ??ZDO_ProcessMatchDescReq_20
   \   00026D   A3           INC       DPTR
   \   00026E   E0           MOVX      A,@DPTR
   \   00026F   65..         XRL       A,?V1
   \                     ??ZDO_ProcessMatchDescReq_20:
   \   000271   600F         JZ        ??ZDO_ProcessMatchDescReq_21
   \   000273   74FF         MOV       A,#-0x1
   \   000275   65..         XRL       A,?V0
   \   000277   7004         JNZ       ??ZDO_ProcessMatchDescReq_22
   \   000279   74FF         MOV       A,#-0x1
   \   00027B   65..         XRL       A,?V1
   \                     ??ZDO_ProcessMatchDescReq_22:
   \   00027D   6003         JZ        $+5
   \   00027F   02....       LJMP      ??ZDO_ProcessMatchDescReq_15 & 0xFFFF
   \                     ??ZDO_ProcessMatchDescReq_21:
   \   000282                ; Setup parameters for call to function ZDO_AnyClusterMatches
   \   000282   85..82       MOV       DPL,?V8
   \   000285   85..83       MOV       DPH,?V9
   \   000288   A3           INC       DPTR
   \   000289   A3           INC       DPTR
   \   00028A   A3           INC       DPTR
   \   00028B   A3           INC       DPTR
   \   00028C   A3           INC       DPTR
   \   00028D   A3           INC       DPTR
   \   00028E   A3           INC       DPTR
   \   00028F   12....       LCALL     ?PUSH_XSTACK8_X_TWO
   \   000292   85..82       MOV       DPL,?V8
   \   000295   85..83       MOV       DPH,?V9
   \   000298   A3           INC       DPTR
   \   000299   A3           INC       DPTR
   \   00029A   A3           INC       DPTR
   \   00029B   A3           INC       DPTR
   \   00029C   A3           INC       DPTR
   \   00029D   A3           INC       DPTR
   \   00029E   E0           MOVX      A,@DPTR
   \   00029F   FC           MOV       R4,A
   \   0002A0   AA..         MOV       R2,?V14
   \   0002A2   AB..         MOV       R3,?V15
   \   0002A4   A9..         MOV       R1,?V3
   \   0002A6   12....       LCALL     `??ZDO_AnyClusterMatches::?relay`; Banked call to: ZDO_AnyClusterMatches
   \   0002A9   7402         MOV       A,#0x2
   \   0002AB   12....       LCALL     ?DEALLOC_XSTACK8
   \   0002AE   E9           MOV       A,R1
   \   0002AF   7038         JNZ       ??ZDO_ProcessMatchDescReq_23
   \   0002B1                ; Setup parameters for call to function ZDO_AnyClusterMatches
   \   0002B1   85..82       MOV       DPL,?V8
   \   0002B4   85..83       MOV       DPH,?V9
   \   0002B7   A3           INC       DPTR
   \   0002B8   A3           INC       DPTR
   \   0002B9   A3           INC       DPTR
   \   0002BA   A3           INC       DPTR
   \   0002BB   A3           INC       DPTR
   \   0002BC   A3           INC       DPTR
   \   0002BD   A3           INC       DPTR
   \   0002BE   A3           INC       DPTR
   \   0002BF   A3           INC       DPTR
   \   0002C0   A3           INC       DPTR
   \   0002C1   12....       LCALL     ?PUSH_XSTACK8_X_TWO
   \   0002C4   85..82       MOV       DPL,?V8
   \   0002C7   85..83       MOV       DPH,?V9
   \   0002CA   A3           INC       DPTR
   \   0002CB   A3           INC       DPTR
   \   0002CC   A3           INC       DPTR
   \   0002CD   A3           INC       DPTR
   \   0002CE   A3           INC       DPTR
   \   0002CF   A3           INC       DPTR
   \   0002D0   A3           INC       DPTR
   \   0002D1   A3           INC       DPTR
   \   0002D2   A3           INC       DPTR
   \   0002D3   E0           MOVX      A,@DPTR
   \   0002D4   FC           MOV       R4,A
   \   0002D5   AA..         MOV       R2,?V12
   \   0002D7   AB..         MOV       R3,?V13
   \   0002D9   A9..         MOV       R1,?V2
   \   0002DB   12....       LCALL     `??ZDO_AnyClusterMatches::?relay`; Banked call to: ZDO_AnyClusterMatches
   \   0002DE   7402         MOV       A,#0x2
   \   0002E0   12....       LCALL     ?DEALLOC_XSTACK8
   \   0002E3   E9           MOV       A,R1
   \   0002E4   7003         JNZ       $+5
   \   0002E6   02....       LJMP      ??ZDO_ProcessMatchDescReq_15 & 0xFFFF
   \                     ??ZDO_ProcessMatchDescReq_23:
   \   0002E9                ; Setup parameters for call to function osal_msg_allocate
   \   0002E9   E5..         MOV       A,?V2
   \   0002EB   25..         ADD       A,?V3
   \   0002ED   C3           CLR       C
   \   0002EE   33           RLC       A
   \   0002EF   240A         ADD       A,#0xa
   \   0002F1   FA           MOV       R2,A
   \   0002F2   7B00         MOV       R3,#0x0
   \   0002F4   12....       LCALL     `??osal_msg_allocate::?relay`; Banked call to: osal_msg_allocate
   \   0002F7   8A..         MOV       ?V4,R2
   \   0002F9   8B..         MOV       ?V5,R3
   \   0002FB   AE..         MOV       R6,?V4
   \   0002FD   AF..         MOV       R7,?V5
   \   0002FF   EE           MOV       A,R6
   \   000300   4F           ORL       A,R7
   \   000301   7003         JNZ       $+5
   \   000303   02....       LJMP      ??ZDO_ProcessMatchDescReq_14 & 0xFFFF
   \   000306   8E82         MOV       DPL,R6
   \   000308   8F83         MOV       DPH,R7
   \   00030A   74D2         MOV       A,#-0x2e
   \   00030C   12....       LCALL     ?Subroutine31 & 0xFFFF
   \                     ??CrossCallReturnLabel_39:
   \   00030F   F583         MOV       DPH,A
   \   000311   8882         MOV       DPL,R0
   \   000313   12....       LCALL     ?Subroutine82 & 0xFFFF
   \                     ??CrossCallReturnLabel_132:
   \   000316   E8           MOV       A,R0
   \   000317   12....       LCALL     ?Subroutine29 & 0xFFFF
   \                     ??CrossCallReturnLabel_37:
   \   00031A   A3           INC       DPTR
   \   00031B   E5..         MOV       A,?V3
   \   00031D   12....       LCALL     ?Subroutine41 & 0xFFFF
   \                     ??CrossCallReturnLabel_60:
   \   000320   A3           INC       DPTR
   \   000321   A3           INC       DPTR
   \   000322   A3           INC       DPTR
   \   000323   E5..         MOV       A,?V2
   \   000325   F0           MOVX      @DPTR,A
   \   000326   EE           MOV       A,R6
   \   000327   2405         ADD       A,#0x5
   \   000329   F582         MOV       DPL,A
   \   00032B   E4           CLR       A
   \   00032C   3F           ADDC      A,R7
   \   00032D   F583         MOV       DPH,A
   \   00032F   E5..         MOV       A,?V3
   \   000331   6027         JZ        ??ZDO_ProcessMatchDescReq_24
   \   000333   12....       LCALL     ?Subroutine126 & 0xFFFF
   \                     ??CrossCallReturnLabel_570:
   \   000336   3F           ADDC      A,R7
   \   000337   12....       LCALL     ?Subroutine23 & 0xFFFF
   \                     ??CrossCallReturnLabel_359:
   \   00033A                ; Setup parameters for call to function osal_memcpy
   \   00033A   85....       MOV       ?V4,?V14
   \   00033D   85....       MOV       ?V5,?V15
   \   000340   75..00       MOV       ?V6,#0x0
   \   000343   78..         MOV       R0,#?V4
   \   000345   12....       LCALL     ?PUSH_XSTACK_I_THREE
   \   000348   AC..         MOV       R4,?V3
   \   00034A   EC           MOV       A,R4
   \   00034B   2C           ADD       A,R4
   \   00034C   FC           MOV       R4,A
   \   00034D   E4           CLR       A
   \   00034E   33           RLC       A
   \   00034F   FD           MOV       R5,A
   \   000350   12....       LCALL     `??osal_memcpy::?relay`; Banked call to: osal_memcpy
   \   000353   7403         MOV       A,#0x3
   \   000355   12....       LCALL     ?DEALLOC_XSTACK8
   \   000358   8004         SJMP      ??ZDO_ProcessMatchDescReq_25
   \                     ??ZDO_ProcessMatchDescReq_24:
   \   00035A   E4           CLR       A
   \   00035B   F0           MOVX      @DPTR,A
   \   00035C   A3           INC       DPTR
   \   00035D   F0           MOVX      @DPTR,A
   \                     ??ZDO_ProcessMatchDescReq_25:
   \   00035E   EE           MOV       A,R6
   \   00035F   2408         ADD       A,#0x8
   \   000361   F582         MOV       DPL,A
   \   000363   E4           CLR       A
   \   000364   3F           ADDC      A,R7
   \   000365   F583         MOV       DPH,A
   \   000367   E5..         MOV       A,?V2
   \   000369   7003         JNZ       $+5
   \   00036B   02....       LJMP      ??ZDO_ProcessMatchDescReq_12 & 0xFFFF
   \   00036E   A8..         MOV       R0,?V3
   \   000370   E8           MOV       A,R0
   \   000371   28           ADD       A,R0
   \   000372   F8           MOV       R0,A
   \   000373   E4           CLR       A
   \   000374   33           RLC       A
   \   000375   F9           MOV       R1,A
   \   000376   EE           MOV       A,R6
   \   000377   28           ADD       A,R0
   \   000378   F8           MOV       R0,A
   \   000379   EF           MOV       A,R7
   \   00037A   39           ADDC      A,R1
   \   00037B   F9           MOV       R1,A
   \   00037C   E8           MOV       A,R0
   \   00037D   12....       LCALL     ??Subroutine218_0 & 0xFFFF
   \                     ??CrossCallReturnLabel_567:
   \   000380   39           ADDC      A,R1
   \   000381   12....       LCALL     ?Subroutine23 & 0xFFFF
   \                     ??CrossCallReturnLabel_360:
   \   000384                ; Setup parameters for call to function osal_memcpy
   \   000384   85....       MOV       ?V4,?V12
   \   000387   85....       MOV       ?V5,?V13
   \   00038A   75..00       MOV       ?V6,#0x0
   \   00038D   78..         MOV       R0,#?V4
   \   00038F   12....       LCALL     ?PUSH_XSTACK_I_THREE
   \   000392   AC..         MOV       R4,?V2
   \   000394   EC           MOV       A,R4
   \   000395   2C           ADD       A,R4
   \   000396   FC           MOV       R4,A
   \   000397   E4           CLR       A
   \   000398   33           RLC       A
   \   000399   FD           MOV       R5,A
   \   00039A   12....       LCALL     `??osal_memcpy::?relay`; Banked call to: osal_memcpy
   \   00039D   7403         MOV       A,#0x3
   \   00039F   12....       LCALL     ?DEALLOC_XSTACK8
   \   0003A2   02....       LJMP      ??ZDO_ProcessMatchDescReq_13 & 0xFFFF
   1015            }
   1016          
   1017            if ( epCnt )
   \                     ??ZDO_ProcessMatchDescReq_17:
   \   0003A5   E5..         MOV       A,?V7
   \   0003A7   604C         JZ        ??ZDO_ProcessMatchDescReq_26
   1018            {
   1019              // Send the message if at least one match found.
   1020              if ( ZSuccess == ZDP_MatchDescRsp( inMsg->TransSeq, &(inMsg->srcAddr), ZDP_SUCCESS,
   1021                        ZDAppNwkAddr.addr.shortAddr, epCnt, (uint8 *)ZDOBuildBuf, inMsg->SecurityUse ) )
   \   0003A9                ; Setup parameters for call to function ZDP_EPRsp
   \   0003A9   7404         MOV       A,#0x4
   \   0003AB   12....       LCALL     ?XSTACK_DISP0_8
   \   0003AE   12....       LCALL     ?Subroutine53 & 0xFFFF
   \                     ??CrossCallReturnLabel_90:
   \   0003B1   12....       LCALL     ?PUSH_XSTACK_I_ONE
   \   0003B4   75....       MOV       ?V0,#ZDOBuildBuf & 0xff
   \   0003B7   75....       MOV       ?V1,#(ZDOBuildBuf >> 8) & 0xff
   \   0003BA   78..         MOV       R0,#?V0
   \   0003BC   12....       LCALL     ?PUSH_XSTACK_I_TWO
   \   0003BF   E5..         MOV       A,?V7
   \   0003C1   F5..         MOV       ?V0,A
   \   0003C3   78..         MOV       R0,#?V0
   \   0003C5   12....       LCALL     ?PUSH_XSTACK_I_ONE
   \   0003C8   90....       MOV       DPTR,#ZDAppNwkAddr
   \   0003CB   12....       LCALL     ?PUSH_XSTACK8_X_TWO
   \   0003CE   75..00       MOV       ?V0,#0x0
   \   0003D1   78..         MOV       R0,#?V0
   \   0003D3   12....       LCALL     ?PUSH_XSTACK_I_ONE
   \   0003D6   7407         MOV       A,#0x7
   \   0003D8   12....       LCALL     ?XSTACK_DISP0_8
   \   0003DB   12....       LCALL     ?Subroutine67 & 0xFFFF
   \                     ??CrossCallReturnLabel_113:
   \   0003DE   12....       LCALL     ?XSTACK_DISP0_8
   \   0003E1   12....       LCALL     ?Subroutine52 & 0xFFFF
   \                     ??CrossCallReturnLabel_86:
   \   0003E4   12....       LCALL     `??ZDP_EPRsp::?relay`; Banked call to: ZDP_EPRsp
   \   0003E7   7407         MOV       A,#0x7
   \   0003E9   12....       LCALL     ?DEALLOC_XSTACK8
   \   0003EC   E9           MOV       A,R1
   \   0003ED   7060         JNZ       ??ZDO_ProcessMatchDescReq_27
   1022              {
   1023          #if defined( LCD_SUPPORTED )
   1024                HalLcdWriteScreen( "Match Desc Req", "Rsp Sent" );
   \   0003EF                ; Setup parameters for call to function HalLcdWriteScreen
   \   0003EF   7C..         MOV       R4,#`?<Constant "Rsp Sent">` & 0xff
   \   0003F1   7D..         MOV       R5,#(`?<Constant "Rsp Sent">` >> 8) & 0xff
   \   0003F3   8053         SJMP      ??ZDO_ProcessMatchDescReq_28
   1025          #endif
   1026              }
   1027            }
   1028            else
   1029            {
   1030              if (!inMsg->wasBroadcast)
   \                     ??ZDO_ProcessMatchDescReq_26:
   \   0003F5   7402         MOV       A,#0x2
   \   0003F7   12....       LCALL     ?XSTACK_DISP0_8
   \   0003FA   12....       LCALL     ?Subroutine70 & 0xFFFF
   \                     ??CrossCallReturnLabel_118:
   \   0003FD   7045         JNZ       ??ZDO_ProcessMatchDescReq_29
   1031              {
   1032                // send response message with match length = 0
   1033                ZDP_MatchDescRsp( inMsg->TransSeq, &(inMsg->srcAddr), ZDP_SUCCESS,
   1034                                  ZDAppNwkAddr.addr.shortAddr, 0, (uint8 *)ZDOBuildBuf, inMsg->SecurityUse );
   \   0003FF                ; Setup parameters for call to function ZDP_EPRsp
   \   0003FF   7404         MOV       A,#0x4
   \   000401   12....       LCALL     ?XSTACK_DISP0_8
   \   000404   12....       LCALL     ?Subroutine53 & 0xFFFF
   \                     ??CrossCallReturnLabel_91:
   \   000407   12....       LCALL     ?PUSH_XSTACK_I_ONE
   \   00040A   75....       MOV       ?V0,#ZDOBuildBuf & 0xff
   \   00040D   75....       MOV       ?V1,#(ZDOBuildBuf >> 8) & 0xff
   \   000410   78..         MOV       R0,#?V0
   \   000412   12....       LCALL     ?PUSH_XSTACK_I_TWO
   \   000415   75..00       MOV       ?V0,#0x0
   \   000418   78..         MOV       R0,#?V0
   \   00041A   12....       LCALL     ?PUSH_XSTACK_I_ONE
   \   00041D   90....       MOV       DPTR,#ZDAppNwkAddr
   \   000420   12....       LCALL     ?PUSH_XSTACK8_X_TWO
   \   000423   78..         MOV       R0,#?V0
   \   000425   12....       LCALL     ?PUSH_XSTACK_I_ONE
   \   000428   7407         MOV       A,#0x7
   \   00042A   12....       LCALL     ?XSTACK_DISP0_8
   \   00042D   12....       LCALL     ?Subroutine67 & 0xFFFF
   \                     ??CrossCallReturnLabel_114:
   \   000430   12....       LCALL     ?XSTACK_DISP0_8
   \   000433   12....       LCALL     ?Subroutine52 & 0xFFFF
   \                     ??CrossCallReturnLabel_87:
   \   000436   12....       LCALL     `??ZDP_EPRsp::?relay`; Banked call to: ZDP_EPRsp
   \   000439   7407         MOV       A,#0x7
   \   00043B   12....       LCALL     ?DEALLOC_XSTACK8
   1035          #if defined( LCD_SUPPORTED )
   1036                HalLcdWriteScreen( "Match Desc Req", "Rsp Non Matched" );
   \   00043E                ; Setup parameters for call to function HalLcdWriteScreen
   \   00043E   7C..         MOV       R4,#`?<Constant "Rsp Non Matched">` & 0xff
   \   000440   7D..         MOV       R5,#(`?<Constant "Rsp Non Matched">` >> 8) & 0xff
   \   000442   8004         SJMP      ??ZDO_ProcessMatchDescReq_28
   1037          #endif
   1038              }
   1039              else
   1040              {
   1041                // no response mesage for broadcast message
   1042          #if defined( LCD_SUPPORTED )
   1043                HalLcdWriteScreen( "Match Desc Req", "Non Matched" );
   \                     ??ZDO_ProcessMatchDescReq_29:
   \   000444                ; Setup parameters for call to function HalLcdWriteScreen
   \   000444   7C..         MOV       R4,#`?<Constant "Non Matched">` & 0xff
   \   000446   7D..         MOV       R5,#(`?<Constant "Non Matched">` >> 8) & 0xff
   \                     ??ZDO_ProcessMatchDescReq_28:
   \   000448   7A..         MOV       R2,#`?<Constant "Match Desc Req">` & 0xff
   \   00044A   7B..         MOV       R3,#(`?<Constant "Match Desc Req">` >> 8) & 0xff
   \   00044C   12....       LCALL     `??HalLcdWriteScreen::?relay`; Banked call to: HalLcdWriteScreen
   1044          #endif
   1045              }
   1046            }
   1047          
   1048            if ( inClusters != NULL )
   \                     ??ZDO_ProcessMatchDescReq_27:
   \   00044F   E5..         MOV       A,?V14
   \   000451   45..         ORL       A,?V15
   \   000453   6007         JZ        ??ZDO_ProcessMatchDescReq_30
   1049            {
   1050              osal_mem_free( inClusters );
   \   000455                ; Setup parameters for call to function osal_mem_free
   \   000455   AA..         MOV       R2,?V14
   \   000457   AB..         MOV       R3,?V15
   \   000459   12....       LCALL     `??osal_mem_free::?relay`; Banked call to: osal_mem_free
   1051            }
   1052          
   1053            if ( outClusters != NULL )
   \                     ??ZDO_ProcessMatchDescReq_30:
   \   00045C   E5..         MOV       A,?V12
   \   00045E   45..         ORL       A,?V13
   \   000460   6007         JZ        ??ZDO_ProcessMatchDescReq_1
   1054            {
   1055              osal_mem_free( outClusters );
   \   000462                ; Setup parameters for call to function osal_mem_free
   \   000462   AA..         MOV       R2,?V12
   \   000464   AB..         MOV       R3,?V13
   \   000466   12....       LCALL     `??osal_mem_free::?relay`; Banked call to: osal_mem_free
   1056            }
   1057          }
   \                     ??ZDO_ProcessMatchDescReq_1:
   \   000469   7408         MOV       A,#0x8
   \   00046B                REQUIRE ?Subroutine6
   \   00046B                ; // Fall through to label ?Subroutine6

   \                                 In  segment BANKED_CODE, align 1, keep-with-next
   \                     ?Subroutine6:
   \   000000   12....       LCALL     ?DEALLOC_XSTACK8
   \   000003                REQUIRE ??Subroutine174_0
   \   000003                ; // Fall through to label ??Subroutine174_0

   \                                 In  segment BANKED_CODE, align 1, keep-with-next
   \                     ??Subroutine174_0:
   \   000000   7F10         MOV       R7,#0x10
   \   000002   02....       LJMP      ?BANKED_LEAVE_XDATA

   \                                 In  segment BANKED_CODE, align 1, keep-with-next
   \                     ?Subroutine67:
   \   000000   12....       LCALL     ?Subroutine151 & 0xFFFF
   \                     ??CrossCallReturnLabel_271:
   \   000003   740D         MOV       A,#0xd
   \   000005   22           RET

   \                                 In  segment BANKED_CODE, align 1, keep-with-next
   \                     ?Subroutine53:
   \   000000   12....       LCALL     ?Subroutine142 & 0xFFFF
   \                     ??CrossCallReturnLabel_293:
   \   000003   F5..         MOV       ?V0,A
   \   000005   78..         MOV       R0,#?V0
   \   000007   22           RET

   \                                 In  segment BANKED_CODE, align 1, keep-with-next
   \                     ?Subroutine52:
   \   000000   12....       LCALL     ?Subroutine142 & 0xFFFF
   \                     ??CrossCallReturnLabel_292:
   \   000003   F9           MOV       R1,A
   \   000004   7A06         MOV       R2,#0x6
   \   000006   7B80         MOV       R3,#-0x80
   \   000008   22           RET

   \                                 In  segment BANKED_CODE, align 1, keep-with-next
   \                     ?Subroutine37:
   \   000000   F9           MOV       R1,A
   \   000001   85..82       MOV       DPL,?XSP + 0
   \   000004   85..83       MOV       DPH,?XSP + 1
   \   000007                REQUIRE ??Subroutine177_0
   \   000007                ; // Fall through to label ??Subroutine177_0

   \                                 In  segment BANKED_CODE, align 1, keep-with-next
   \                     ??Subroutine177_0:
   \   000000   E8           MOV       A,R0
   \   000001                REQUIRE ??Subroutine178_0
   \   000001                ; // Fall through to label ??Subroutine178_0

   \                                 In  segment BANKED_CODE, align 1, keep-with-next
   \                     ??Subroutine178_0:
   \   000000   F0           MOVX      @DPTR,A
   \   000001   A3           INC       DPTR
   \   000002   E9           MOV       A,R1
   \   000003   F0           MOVX      @DPTR,A
   \   000004   22           RET

   \                                 In  segment BANKED_CODE, align 1, keep-with-next
   \                     ?Subroutine23:
   \   000000   FB           MOV       R3,A
   \   000001                REQUIRE ??Subroutine179_0
   \   000001                ; // Fall through to label ??Subroutine179_0

   \                                 In  segment BANKED_CODE, align 1, keep-with-next
   \                     ??Subroutine185_0:
   \   000000   12....       LCALL     ??Subroutine206_0 & 0xFFFF
   \                     ??CrossCallReturnLabel_510:
   \   000003   22           RET

   \                                 In  segment BANKED_CODE, align 1, keep-with-next
   \                     ?Subroutine31:
   \   000000   F0           MOVX      @DPTR,A
   \   000001   85..82       MOV       DPL,?XSP + 0
   \   000004   85..83       MOV       DPH,?XSP + 1
   \   000007   12....       LCALL     ??Subroutine199_0 & 0xFFFF
   \                     ??CrossCallReturnLabel_498:
   \   00000A   22           RET

   \                                 In  segment BANKED_CODE, align 1, keep-with-next
   \                     ?Subroutine103:
   \   000000   25E0         ADD       A,0xE0 /* A   */
   \   000002   FA           MOV       R2,A
   \   000003   E4           CLR       A
   \   000004   33           RLC       A
   \   000005   FB           MOV       R3,A
   \   000006   22           RET

   \                                 In  segment BANKED_CODE, align 1, keep-with-next
   \                     ??Subroutine202_0:
   \   000000   12....       LCALL     ??Subroutine205_0 & 0xFFFF
   \                     ??CrossCallReturnLabel_496:
   \   000003   22           RET

   \                                 In  segment BANKED_CODE, align 1, keep-with-next
   \                     ?Subroutine157:
   \   000000   F582         MOV       DPL,A
   \   000002   E4           CLR       A
   \   000003   38           ADDC      A,R0
   \   000004   F583         MOV       DPH,A
   \   000006   E0           MOVX      A,@DPTR
   \   000007   22           RET

   \                                 In  segment BANKED_CODE, align 1, keep-with-next
   \                     ?Subroutine82:
   \   000000   12....       LCALL     ?Subroutine153 & 0xFFFF
   \                     ??CrossCallReturnLabel_273:
   \   000003   A3           INC       DPTR
   \   000004   A3           INC       DPTR
   \   000005   22           RET

   \                                 In  segment BANKED_CODE, align 1, keep-with-next
   \                     ?Subroutine153:
   \   000000   12....       LCALL     ??Subroutine199_0 & 0xFFFF
   \                     ??CrossCallReturnLabel_502:
   \   000003   F9           MOV       R1,A
   \   000004   8E82         MOV       DPL,R6
   \   000006   8F83         MOV       DPH,R7
   \   000008   22           RET

   \                                 In  segment BANKED_CODE, align 1, keep-with-next
   \                     ?Subroutine70:
   \   000000   12....       LCALL     ??Subroutine205_0 & 0xFFFF
   \                     ??CrossCallReturnLabel_492:
   \   000003   240B         ADD       A,#0xb
   \   000005   12....       LCALL     ?Subroutine157 & 0xFFFF
   \                     ??CrossCallReturnLabel_445:
   \   000008   22           RET

   \                                 In  segment BANKED_CODE, align 1, keep-with-next
   \                     ??Subroutine205_0:
   \   000000   12....       LCALL     ??Subroutine199_0 & 0xFFFF
   \                     ??CrossCallReturnLabel_506:
   \   000003   C8           XCH       A,R0
   \   000004   22           RET

   \                                 In  segment BANKED_CODE, align 1, keep-with-next
   \                     ?Subroutine29:
   \   000000   F0           MOVX      @DPTR,A
   \   000001   A3           INC       DPTR
   \   000002   E9           MOV       A,R1
   \   000003   12....       LCALL     ?Subroutine137 & 0xFFFF
   \                     ??CrossCallReturnLabel_248:
   \   000006   22           RET

   \                                 In  segment BANKED_CODE, align 1, keep-with-next
   \                     ?Subroutine137:
   \   000000   12....       LCALL     ?Subroutine160 & 0xFFFF
   \                     ??CrossCallReturnLabel_282:
   \   000003   22           RET

   \                                 In  segment BANKED_CODE, align 1, keep-with-next
   \                     ?Subroutine160:
   \   000000   12....       LCALL     ?Subroutine166 & 0xFFFF
   \                     ??CrossCallReturnLabel_534:
   \   000003   A3           INC       DPTR
   \   000004   A3           INC       DPTR
   \   000005   22           RET

   \                                 In  segment BANKED_CODE, align 1, keep-with-next
   \                     ??Subroutine209_0:
   \   000000   F583         MOV       DPH,A
   \   000002                REQUIRE ??Subroutine210_0
   \   000002                ; // Fall through to label ??Subroutine210_0

   \                                 In  segment BANKED_CODE, align 1, keep-with-next
   \                     ??Subroutine210_0:
   \   000000   12....       LCALL     ?Subroutine148 & 0xFFFF
   \                     ??CrossCallReturnLabel_530:
   \   000003   8E82         MOV       DPL,R6
   \   000005   8F83         MOV       DPH,R7
   \   000007   E0           MOVX      A,@DPTR
   \   000008   22           RET

   \                                 In  segment BANKED_CODE, align 1, keep-with-next
   \                     ?Subroutine148:
   \   000000   E0           MOVX      A,@DPTR
   \   000001   FE           MOV       R6,A
   \   000002   A3           INC       DPTR
   \   000003   E0           MOVX      A,@DPTR
   \   000004   FF           MOV       R7,A
   \   000005   22           RET

   \                                 In  segment BANKED_CODE, align 1, keep-with-next
   \                     ?Subroutine41:
   \   000000   12....       LCALL     ?Subroutine137 & 0xFFFF
   \                     ??CrossCallReturnLabel_249:
   \   000003   A3           INC       DPTR
   \   000004   22           RET

   \                                 In  segment BANKED_CODE, align 1, keep-with-next
   \                     ?Subroutine166:
   \   000000   F0           MOVX      @DPTR,A
   \   000001   8E82         MOV       DPL,R6
   \   000003   8F83         MOV       DPH,R7
   \   000005   A3           INC       DPTR
   \   000006   22           RET

   \                                 In  segment BANKED_CODE, align 1, keep-with-next
   \                     ?Subroutine126:
   \   000000   EE           MOV       A,R6
   \   000001                REQUIRE ??Subroutine218_0
   \   000001                ; // Fall through to label ??Subroutine218_0

   \                                 In  segment BANKED_CODE, align 1, keep-with-next
   \                     ??Subroutine218_0:
   \   000000   240A         ADD       A,#0xa
   \   000002   FA           MOV       R2,A
   \   000003   E4           CLR       A
   \   000004   22           RET
   1058          
   1059          #if defined ( REFLECTOR )
   1060          /*********************************************************************
   1061           * @fn      ZDO_ProcessBindUnbindReq()
   1062           *
   1063           * @brief   Called to process a Bind or Unbind Request message.
   1064           *
   1065           * @param   inMsg  - incoming message (request)
   1066           * @param   pReq - place to put parsed information
   1067           *
   1068           * @return  none
   1069           */

   \                                 In  segment BANKED_CODE, align 1, keep-with-next
   1070          void ZDO_ProcessBindUnbindReq( zdoIncomingMsg_t *inMsg, ZDO_BindUnbindReq_t *pReq )
   \                     ZDO_ProcessBindUnbindReq:
   1071          {
   \   000000                REQUIRE ?V0
   \   000000                REQUIRE ?V1
   \   000000                REQUIRE ?V2
   \   000000                REQUIRE ?V3
   \   000000                REQUIRE ?V4
   \   000000                REQUIRE ?V5
   \   000000                REQUIRE ?V6
   \   000000                REQUIRE ?V7
   \   000000                REQUIRE ?V8
   \   000000   74EF         MOV       A,#-0x11
   \   000002   12....       LCALL     ?BANKED_ENTER_XDATA
   \   000005                ; Saved register size: 17
   \   000005                ; Auto size: 12
   \   000005   74F4         MOV       A,#-0xc
   \   000007   12....       LCALL     ?ALLOC_XSTACK8
   \   00000A   8A..         MOV       ?V0,R2
   \   00000C   8B..         MOV       ?V1,R3
   \   00000E   EC           MOV       A,R4
   \   00000F   FE           MOV       R6,A
   \   000010   ED           MOV       A,R5
   \   000011   FF           MOV       R7,A
   1072            zAddrType_t SourceAddr;       // Binding Source addres
   1073            byte bindStat;
   1074          
   1075            SourceAddr.addrMode = Addr64Bit;
   \   000012   740B         MOV       A,#0xb
   \   000014   12....       LCALL     ?XSTACK_DISP0_8
   \   000017   7403         MOV       A,#0x3
   \   000019   F0           MOVX      @DPTR,A
   1076            osal_cpyExtAddr( SourceAddr.addr.extAddr, pReq->srcAddress );
   \   00001A                ; Setup parameters for call to function sAddrExtCpy
   \   00001A   12....       LCALL     ?XSTACK_DISP101_8
   \   00001D   12....       LCALL     `??sAddrExtCpy::?relay`; Banked call to: sAddrExtCpy
   1077          
   1078            // If the local device is not the primary binding cache
   1079            // check the src address of the bind request.
   1080            // If it is not the local device's extended address
   1081            // discard the request.
   1082            if ( !osal_ExtAddrEqual( SourceAddr.addr.extAddr, NLME_GetExtAddr()) ||
   1083                  (pReq->dstAddress.addrMode != Addr64Bit &&
   1084                   pReq->dstAddress.addrMode != AddrGroup) )
   \   000020                ; Setup parameters for call to function NLME_GetExtAddr
   \   000020   12....       LCALL     `??NLME_GetExtAddr::?relay`; Banked call to: NLME_GetExtAddr
   \   000023   8A..         MOV       ?V2,R2
   \   000025   8B..         MOV       ?V3,R3
   \   000027   AC..         MOV       R4,?V2
   \   000029   AD..         MOV       R5,?V3
   \   00002B   E5..         MOV       A,?V0
   \   00002D   240C         ADD       A,#0xc
   \   00002F   F5..         MOV       ?V4,A
   \   000031   E4           CLR       A
   \   000032   35..         ADDC      A,?V1
   \   000034   F5..         MOV       ?V5,A
   \   000036                ; Setup parameters for call to function sAddrExtCmp
   \   000036   7403         MOV       A,#0x3
   \   000038   12....       LCALL     ?XSTACK_DISP101_8
   \   00003B   12....       LCALL     `??sAddrExtCmp::?relay`; Banked call to: sAddrExtCmp
   \   00003E   E9           MOV       A,R1
   \   00003F   601D         JZ        ??ZDO_ProcessBindUnbindReq_0
   \   000041   EE           MOV       A,R6
   \   000042   2413         ADD       A,#0x13
   \   000044   F5..         MOV       ?V2,A
   \   000046   E4           CLR       A
   \   000047   3F           ADDC      A,R7
   \   000048   F5..         MOV       ?V3,A
   \   00004A   85..82       MOV       DPL,?V2
   \   00004D   F583         MOV       DPH,A
   \   00004F   E0           MOVX      A,@DPTR
   \   000050   F5..         MOV       ?V8,A
   \   000052   7403         MOV       A,#0x3
   \   000054   65..         XRL       A,?V8
   \   000056   6011         JZ        ??ZDO_ProcessBindUnbindReq_1
   \   000058   7401         MOV       A,#0x1
   \   00005A   65..         XRL       A,?V8
   \   00005C   600B         JZ        ??ZDO_ProcessBindUnbindReq_1
   1085            {
   1086              bindStat = ZDP_NOT_SUPPORTED;
   \                     ??ZDO_ProcessBindUnbindReq_0:
   \   00005E   85..82       MOV       DPL,?XSP + 0
   \   000061   85..83       MOV       DPH,?XSP + 1
   \   000064   7484         MOV       A,#-0x7c
   \   000066   02....       LJMP      ??ZDO_ProcessBindUnbindReq_2 & 0xFFFF
   1087            }
   1088            else
   1089            {
   1090              // Check source & destination endpoints
   1091              if ( (pReq->srcEndpoint == 0 || pReq->srcEndpoint > MAX_ENDPOINTS)
   1092                  || (( pReq->dstAddress.addrMode == Addr64Bit ) &&
   1093                      (pReq->dstEndpoint == 0 || pReq->dstEndpoint > MAX_ENDPOINTS)) )
   \                     ??ZDO_ProcessBindUnbindReq_1:
   \   000069   EE           MOV       A,R6
   \   00006A   2408         ADD       A,#0x8
   \   00006C   F8           MOV       R0,A
   \   00006D   E4           CLR       A
   \   00006E   3F           ADDC      A,R7
   \   00006F   F9           MOV       R1,A
   \   000070   88..         MOV       ?V6,R0
   \   000072   89..         MOV       ?V7,R1
   \   000074   8882         MOV       DPL,R0
   \   000076   F583         MOV       DPH,A
   \   000078   E0           MOVX      A,@DPTR
   \   000079   F9           MOV       R1,A
   \   00007A   6023         JZ        ??ZDO_ProcessBindUnbindReq_3
   \   00007C   74FF         MOV       A,#-0x1
   \   00007E   69           XRL       A,R1
   \   00007F   601E         JZ        ??ZDO_ProcessBindUnbindReq_3
   \   000081   EE           MOV       A,R6
   \   000082   2414         ADD       A,#0x14
   \   000084   FA           MOV       R2,A
   \   000085   E4           CLR       A
   \   000086   3F           ADDC      A,R7
   \   000087   FB           MOV       R3,A
   \   000088   EA           MOV       A,R2
   \   000089   FC           MOV       R4,A
   \   00008A   EB           MOV       A,R3
   \   00008B   FD           MOV       R5,A
   \   00008C   7403         MOV       A,#0x3
   \   00008E   65..         XRL       A,?V8
   \   000090   7018         JNZ       ??ZDO_ProcessBindUnbindReq_4
   \   000092   8C82         MOV       DPL,R4
   \   000094   8D83         MOV       DPH,R5
   \   000096   E0           MOVX      A,@DPTR
   \   000097   F8           MOV       R0,A
   \   000098   6005         JZ        ??ZDO_ProcessBindUnbindReq_3
   \   00009A   74FF         MOV       A,#-0x1
   \   00009C   68           XRL       A,R0
   \   00009D   700B         JNZ       ??ZDO_ProcessBindUnbindReq_4
   1094              {
   1095                bindStat = ZDP_INVALID_EP;
   \                     ??ZDO_ProcessBindUnbindReq_3:
   \   00009F   85..82       MOV       DPL,?XSP + 0
   \   0000A2   85..83       MOV       DPH,?XSP + 1
   \   0000A5   7482         MOV       A,#-0x7e
   \   0000A7   02....       LJMP      ??ZDO_ProcessBindUnbindReq_2 & 0xFFFF
   1096              }
   1097              else
   1098              {
   1099                if ( inMsg->clusterID == Bind_req )
   \                     ??ZDO_ProcessBindUnbindReq_4:
   \   0000AA   EE           MOV       A,R6
   \   0000AB   2409         ADD       A,#0x9
   \   0000AD   FA           MOV       R2,A
   \   0000AE   E4           CLR       A
   \   0000AF   3F           ADDC      A,R7
   \   0000B0   FB           MOV       R3,A
   \   0000B1   EE           MOV       A,R6
   \   0000B2   240B         ADD       A,#0xb
   \   0000B4   FE           MOV       R6,A
   \   0000B5   5001         JNC       ??ZDO_ProcessBindUnbindReq_5
   \   0000B7   0F           INC       R7
   \                     ??ZDO_ProcessBindUnbindReq_5:
   \   0000B8   85..82       MOV       DPL,?V4
   \   0000BB   85..83       MOV       DPH,?V5
   \   0000BE   E0           MOVX      A,@DPTR
   \   0000BF   6421         XRL       A,#0x21
   \   0000C1   7002         JNZ       ??ZDO_ProcessBindUnbindReq_6
   \   0000C3   A3           INC       DPTR
   \   0000C4   E0           MOVX      A,@DPTR
   \                     ??ZDO_ProcessBindUnbindReq_6:
   \   0000C5   7065         JNZ       ??ZDO_ProcessBindUnbindReq_7
   1100                {
   1101                  // Assume the table is full
   1102                  bindStat = ZDP_TABLE_FULL;
   \   0000C7   85..82       MOV       DPL,?XSP + 0
   \   0000CA   85..83       MOV       DPH,?XSP + 1
   \   0000CD   748C         MOV       A,#-0x74
   \   0000CF   12....       LCALL     ?Subroutine15 & 0xFFFF
   1103          
   1104          #if defined( APP_TP ) || defined( APP_TP2 )
   1105                  // For ZigBee Conformance Testing
   1106                  if ( bindNumOfEntries() < gNWK_MAX_BINDING_ENTRIES )
   1107          #endif
   1108                  {
   1109          #if defined ( ZDP_BIND_VALIDATION )
   1110                    uint16 nwkAddr;
   1111          
   1112                    // Verifies that a valid NWK address exists for the device
   1113                    // before creating a Binding entry. If NWK address does not
   1114                    // exist the request is sent out and the BindReq is saved, to
   1115                    // create the Bind Entry once the NwkAddrRsp is received
   1116                    if ( ( pReq->dstAddress.addrMode == Addr64Bit ) &&
   1117                         ( APSME_LookupNwkAddr( pReq->dstAddress.addr.extAddr, &nwkAddr ) == FALSE ) )
   1118                    {
   1119                      // find an empty bind slot in the pending Bind Req list
   1120                      ZDO_PendingBindReq_t *pPendingBind;
   1121          
   1122                      if ( ( pPendingBind = ZDApp_GetEmptyPendingBindReq() ) != NULL )
   1123                      {
   1124                        // copy the received request into the empty slot and all required info
   1125                        osal_memcpy( &(pPendingBind->bindReq), pReq, sizeof( ZDO_BindUnbindReq_t ) );
   1126          
   1127                        pPendingBind->srcAddr = inMsg->srcAddr;
   1128                        pPendingBind->securityUse = inMsg->SecurityUse;
   1129                        pPendingBind->transSeq = inMsg->TransSeq;
   1130                        pPendingBind->age = MAX_TIME_ADDR_REQ;
   1131          
   1132                        // create an entry in Address Manager
   1133                        ( void )bindAddrIndexGet( &(pReq->dstAddress) );
   1134          
   1135                        ZDP_NwkAddrReq( pReq->dstAddress.addr.extAddr, ZDP_ADDR_REQTYPE_SINGLE, 0, 0 );
   1136          
   1137                        osal_start_timerEx( ZDAppTaskID, ZDO_PENDING_BIND_REQ_EVT,
   1138                                            AGE_OUT_PEND_BIND_REQ_DELAY );
   1139                        return;
   1140                      }
   1141                    }
   1142                    // Add Bind entry
   1143                    else if ( APSME_BindRequest( pReq->srcEndpoint, pReq->clusterID,
   1144                                                 &(pReq->dstAddress), pReq->dstEndpoint ) == ZSuccess )
   1145                    {
   1146                      // valid entry
   1147                      bindStat = ZDP_SUCCESS;
   1148          
   1149                      // Notify to save info into NV
   1150                      ZDApp_NVUpdate();
   1151                    }
   1152          #else // ZDP_BIND_VALIDATION  is not Defined
   1153                    // Create binding entry first independently of existance of  valid NWK addres
   1154                    // if NWK address does not exist a request is sent out
   1155                    if ( APSME_BindRequest( pReq->srcEndpoint, pReq->clusterID,
   1156                                   &(pReq->dstAddress), pReq->dstEndpoint ) == ZSuccess )
   \                     ??CrossCallReturnLabel_13:
   \   0000D2   E0           MOVX      A,@DPTR
   \   0000D3   F5..         MOV       ?V8,A
   \   0000D5   78..         MOV       R0,#?V8
   \   0000D7   12....       LCALL     ?PUSH_XSTACK_I_ONE
   \   0000DA   EE           MOV       A,R6
   \   0000DB   FC           MOV       R4,A
   \   0000DC   EF           MOV       A,R7
   \   0000DD   FD           MOV       R5,A
   \   0000DE   8A82         MOV       DPL,R2
   \   0000E0   8B83         MOV       DPH,R3
   \   0000E2   12....       LCALL     ??Subroutine192_0 & 0xFFFF
   \                     ??CrossCallReturnLabel_415:
   \   0000E5   85..82       MOV       DPL,?V6
   \   0000E8   85..83       MOV       DPH,?V7
   \   0000EB   E0           MOVX      A,@DPTR
   \   0000EC   F9           MOV       R1,A
   \   0000ED   12....       LCALL     `??APSME_BindRequest::?relay`; Banked call to: APSME_BindRequest
   \   0000F0   7401         MOV       A,#0x1
   \   0000F2   12....       LCALL     ?DEALLOC_XSTACK8
   \   0000F5   E9           MOV       A,R1
   \   0000F6   7066         JNZ       ??ZDO_ProcessBindUnbindReq_8
   1157                    {
   1158                      uint16 nwkAddr;
   1159          
   1160                      // valid entry
   1161                      bindStat = ZDP_SUCCESS;
   \   0000F8   85..82       MOV       DPL,?XSP + 0
   \   0000FB   85..83       MOV       DPH,?XSP + 1
   \   0000FE   E4           CLR       A
   \   0000FF   F0           MOVX      @DPTR,A
   1162          
   1163                      // Notify to save info into NV
   1164                      ZDApp_NVUpdate();
   \   000100                ; Setup parameters for call to function ZDApp_NVUpdate
   \   000100   12....       LCALL     `??ZDApp_NVUpdate::?relay`; Banked call to: ZDApp_NVUpdate
   1165          
   1166                      // Check for the destination address
   1167                      if ( pReq->dstAddress.addrMode == Addr64Bit )
   \   000103   85..82       MOV       DPL,?V2
   \   000106   85..83       MOV       DPH,?V3
   \   000109   E0           MOVX      A,@DPTR
   \   00010A   6403         XRL       A,#0x3
   \   00010C   7050         JNZ       ??ZDO_ProcessBindUnbindReq_8
   1168                      {
   1169                        if ( APSME_LookupNwkAddr( pReq->dstAddress.addr.extAddr, &nwkAddr ) == FALSE )
   \   00010E                ; Setup parameters for call to function APSME_LookupNwkAddr
   \   00010E   7401         MOV       A,#0x1
   \   000110   12....       LCALL     ?XSTACK_DISP102_8
   \   000113   EE           MOV       A,R6
   \   000114   FA           MOV       R2,A
   \   000115   EF           MOV       A,R7
   \   000116   FB           MOV       R3,A
   \   000117   12....       LCALL     `??APSME_LookupNwkAddr::?relay`; Banked call to: APSME_LookupNwkAddr
   \   00011A   E9           MOV       A,R1
   \   00011B   7041         JNZ       ??ZDO_ProcessBindUnbindReq_8
   1170                        {
   1171                          ZDP_NwkAddrReq( pReq->dstAddress.addr.extAddr, ZDP_ADDR_REQTYPE_SINGLE, 0, 0 );
   \   00011D                ; Setup parameters for call to function ZDP_NwkAddrReq
   \   00011D   7D00         MOV       R5,#0x0
   \   00011F   7C00         MOV       R4,#0x0
   \   000121   7900         MOV       R1,#0x0
   \   000123   EE           MOV       A,R6
   \   000124   FA           MOV       R2,A
   \   000125   EF           MOV       A,R7
   \   000126   FB           MOV       R3,A
   \   000127   12....       LCALL     `??ZDP_NwkAddrReq::?relay`; Banked call to: ZDP_NwkAddrReq
   \   00012A   8032         SJMP      ??ZDO_ProcessBindUnbindReq_8
   1172                        }
   1173                      }
   1174                    }
   1175          #endif
   1176                  }
   1177                }
   1178                else // Unbind_req
   1179                {
   1180                  if ( APSME_UnBindRequest( pReq->srcEndpoint, pReq->clusterID,
   1181                                 &(pReq->dstAddress), pReq->dstEndpoint ) == ZSuccess )
   \                     ??ZDO_ProcessBindUnbindReq_7:
   \   00012C                ; Setup parameters for call to function APSME_UnBindRequest
   \   00012C   8C82         MOV       DPL,R4
   \   00012E   8D83         MOV       DPH,R5
   \   000130   E0           MOVX      A,@DPTR
   \   000131   F5..         MOV       ?V2,A
   \   000133   78..         MOV       R0,#?V2
   \   000135   12....       LCALL     ?PUSH_XSTACK_I_ONE
   \   000138   EE           MOV       A,R6
   \   000139   FC           MOV       R4,A
   \   00013A   EF           MOV       A,R7
   \   00013B   FD           MOV       R5,A
   \   00013C   8A82         MOV       DPL,R2
   \   00013E   8B83         MOV       DPH,R3
   \   000140   12....       LCALL     ??Subroutine192_0 & 0xFFFF
   \                     ??CrossCallReturnLabel_416:
   \   000143   12....       LCALL     `??APSME_UnBindRequest::?relay`; Banked call to: APSME_UnBindRequest
   \   000146   7401         MOV       A,#0x1
   \   000148   12....       LCALL     ?DEALLOC_XSTACK8
   \   00014B   E9           MOV       A,R1
   \   00014C   85..82       MOV       DPL,?XSP + 0
   \   00014F   85..83       MOV       DPH,?XSP + 1
   \   000152   7007         JNZ       ??ZDO_ProcessBindUnbindReq_9
   1182                  {
   1183                    bindStat = ZDP_SUCCESS;
   \   000154   E4           CLR       A
   \   000155   F0           MOVX      @DPTR,A
   1184          
   1185                    // Notify to save info into NV
   1186                    ZDApp_NVUpdate();
   \   000156                ; Setup parameters for call to function ZDApp_NVUpdate
   \   000156   12....       LCALL     `??ZDApp_NVUpdate::?relay`; Banked call to: ZDApp_NVUpdate
   \   000159   8003         SJMP      ??ZDO_ProcessBindUnbindReq_8
   1187                  }
   1188                  else
   1189                    bindStat = ZDP_NO_ENTRY;
   \                     ??ZDO_ProcessBindUnbindReq_9:
   \   00015B   7488         MOV       A,#-0x78
   \                     ??ZDO_ProcessBindUnbindReq_2:
   \   00015D   F0           MOVX      @DPTR,A
   1190                }
   1191              }
   1192            }
   1193          
   1194            // Send back a response message
   1195            ZDP_SendData( &(inMsg->TransSeq), &(inMsg->srcAddr),
   1196                         (inMsg->clusterID | ZDO_RESPONSE_BIT), 1, &bindStat,
   1197                         inMsg->SecurityUse );
   \                     ??ZDO_ProcessBindUnbindReq_8:
   \   00015E                ; Setup parameters for call to function ZDP_SendData
   \   00015E   12....       LCALL     ?Subroutine114 & 0xFFFF
   \                     ??CrossCallReturnLabel_193:
   \   000161   F5..         MOV       ?V2,A
   \   000163   78..         MOV       R0,#?V2
   \   000165   12....       LCALL     ?PUSH_XSTACK_I_ONE
   \   000168   7401         MOV       A,#0x1
   \   00016A   12....       LCALL     ?XSTACK_DISP100_8
   \   00016D   88..         MOV       ?V2,R0
   \   00016F   89..         MOV       ?V3,R1
   \   000171   78..         MOV       R0,#?V2
   \   000173   12....       LCALL     ?PUSH_XSTACK_I_TWO
   \   000176   85..82       MOV       DPL,?V4
   \   000179   85..83       MOV       DPH,?V5
   \   00017C   E0           MOVX      A,@DPTR
   \   00017D   F5..         MOV       ?V2,A
   \   00017F   A3           INC       DPTR
   \   000180   E0           MOVX      A,@DPTR
   \   000181   4480         ORL       A,#0x80
   \   000183   F5..         MOV       ?V3,A
   \   000185   78..         MOV       R0,#?V2
   \   000187   12....       LCALL     ?PUSH_XSTACK_I_TWO
   \   00018A   12....       LCALL     ?Subroutine113 & 0xFFFF
   \                     ??CrossCallReturnLabel_191:
   \   00018D   12....       LCALL     `??ZDP_SendData::?relay`; Banked call to: ZDP_SendData
   \   000190   7405         MOV       A,#0x5
   \   000192   12....       LCALL     ?DEALLOC_XSTACK8
   1198          }
   \   000195   740C         MOV       A,#0xc
   \   000197   12....       LCALL     ?DEALLOC_XSTACK8
   \   00019A   7F09         MOV       R7,#0x9
   \   00019C   02....       LJMP      ?BANKED_LEAVE_XDATA

   \                                 In  segment BANKED_CODE, align 1, keep-with-next
   \                     ?Subroutine113:
   \   000000   7901         MOV       R1,#0x1
   \   000002   E5..         MOV       A,?V0
   \   000004   2402         ADD       A,#0x2
   \   000006   FC           MOV       R4,A
   \   000007   E4           CLR       A
   \   000008   35..         ADDC      A,?V1
   \   00000A   FD           MOV       R5,A
   \   00000B   E5..         MOV       A,?V0
   \   00000D   240F         ADD       A,#0xf
   \   00000F   FA           MOV       R2,A
   \   000010   E4           CLR       A
   \   000011   35..         ADDC      A,?V1
   \   000013   FB           MOV       R3,A
   \   000014   22           RET

   \                                 In  segment BANKED_CODE, align 1, keep-with-next
   \                     ?Subroutine15:
   \   000000   F0           MOVX      @DPTR,A
   \   000001                ; Setup parameters for call to function APSME_BindRequest
   \   000001   8C82         MOV       DPL,R4
   \   000003   8D83         MOV       DPH,R5
   \   000005   22           RET

   \                                 In  segment BANKED_CODE, align 1, keep-with-next
   \                     ?Subroutine114:
   \   000000   E5..         MOV       A,?V0
   \   000002   240E         ADD       A,#0xe
   \   000004   F582         MOV       DPL,A
   \   000006   E4           CLR       A
   \   000007   35..         ADDC      A,?V1
   \   000009   F583         MOV       DPH,A
   \   00000B   E0           MOVX      A,@DPTR
   \   00000C   22           RET
   1199          #endif // REFLECTOR
   1200          
   1201          /*********************************************************************
   1202           * @fn      ZDO_UpdateAddrManager
   1203           *
   1204           * @brief   Update the Address Manager.
   1205           *
   1206           * @param   nwkAddr - network address
   1207           * @param   extAddr - extended address
   1208           *
   1209           * @return  none
   1210           */

   \                                 In  segment BANKED_CODE, align 1, keep-with-next
   1211          void ZDO_UpdateAddrManager( uint16 nwkAddr, uint8 *extAddr )
   \                     ZDO_UpdateAddrManager:
   1212          {
   \   000000   C082         PUSH      DPL
   \   000002   C083         PUSH      DPH
   \   000004                ; Saved register size: 2
   \   000004                ; Auto size: 13
   \   000004   74F3         MOV       A,#-0xd
   \   000006   12....       LCALL     ?ALLOC_XSTACK8
   1213            AddrMgrEntry_t addrEntry;
   1214          
   1215            // Update the address manager
   1216            addrEntry.user = ADDRMGR_USER_DEFAULT;
   \   000009   85..82       MOV       DPL,?XSP + 0
   \   00000C   85..83       MOV       DPH,?XSP + 1
   \   00000F   E4           CLR       A
   \   000010   F0           MOVX      @DPTR,A
   1217            addrEntry.nwkAddr = nwkAddr;
   \   000011   04           INC       A
   \   000012   12....       LCALL     ?XSTACK_DISP0_8
   \   000015   12....       LCALL     ??Subroutine179_0 & 0xFFFF
   1218            AddrMgrExtAddrSet( addrEntry.extAddr, extAddr );
   \                     ??CrossCallReturnLabel_354:
   \   000018                ; Setup parameters for call to function AddrMgrExtAddrSet
   \   000018   7403         MOV       A,#0x3
   \   00001A   12....       LCALL     ?XSTACK_DISP0_8
   \   00001D   AA82         MOV       R2,DPL
   \   00001F   AB83         MOV       R3,DPH
   \   000021   12....       LCALL     `??AddrMgrExtAddrSet::?relay`; Banked call to: AddrMgrExtAddrSet
   1219            AddrMgrEntryUpdate( &addrEntry );
   \   000024                ; Setup parameters for call to function AddrMgrEntryUpdate
   \   000024   AA..         MOV       R2,?XSP + 0
   \   000026   AB..         MOV       R3,?XSP + 1
   \   000028   12....       LCALL     `??AddrMgrEntryUpdate::?relay`; Banked call to: AddrMgrEntryUpdate
   1220          }
   \   00002B   740D         MOV       A,#0xd
   \   00002D   12....       LCALL     ?DEALLOC_XSTACK8
   \   000030   02....       LJMP      ?Subroutine0 & 0xFFFF
   1221          
   1222          /*********************************************************************
   1223           * @fn      ZDO_ProcessServerDiscReq
   1224           *
   1225           * @brief   Process the Server_Discovery_req message.
   1226           *
   1227           * @param   inMsg  - incoming message (request)
   1228           *
   1229           * @return  none
   1230           */

   \                                 In  segment BANKED_CODE, align 1, keep-with-next
   1231          void ZDO_ProcessServerDiscReq( zdoIncomingMsg_t *inMsg )
   \                     ZDO_ProcessServerDiscReq:
   1232          {
   \   000000                REQUIRE ?V0
   \   000000                REQUIRE ?V1
   \   000000   74F6         MOV       A,#-0xa
   \   000002   12....       LCALL     ?BANKED_ENTER_XDATA
   \   000005                ; Saved register size: 10
   \   000005                ; Auto size: 0
   \   000005   12....       LCALL     ?Subroutine74 & 0xFFFF
   1233            uint16 serverMask = BUILD_UINT16( inMsg->asdu[0], inMsg->asdu[1] );
   1234            uint16 matchMask = serverMask & ZDO_Config_Node_Descriptor.ServerMask;
   \                     ??CrossCallReturnLabel_122:
   \   000008   F9           MOV       R1,A
   \   000009   EA           MOV       A,R2
   \   00000A   F8           MOV       R0,A
   \   00000B   90....       MOV       DPTR,#ZDO_Config_Node_Descriptor + 8
   \   00000E   E0           MOVX      A,@DPTR
   \   00000F   58           ANL       A,R0
   \   000010   F5..         MOV       ?V0,A
   \   000012   A3           INC       DPTR
   \   000013   E0           MOVX      A,@DPTR
   \   000014   59           ANL       A,R1
   \   000015   F5..         MOV       ?V1,A
   1235          
   1236            if ( matchMask )
   \   000017   E5..         MOV       A,?V0
   \   000019   45..         ORL       A,?V1
   \   00001B   6026         JZ        ??ZDO_ProcessServerDiscReq_0
   1237            {
   1238              ZDP_ServerDiscRsp( inMsg->TransSeq, &(inMsg->srcAddr), ZSUCCESS,
   1239                          ZDAppNwkAddr.addr.shortAddr, matchMask, inMsg->SecurityUse );
   \   00001D                ; Setup parameters for call to function ZDP_ServerDiscRsp
   \   00001D   78..         MOV       R0,#?V0
   \   00001F   12....       LCALL     ?PUSH_XSTACK_I_TWO
   \   000022   90....       MOV       DPTR,#ZDAppNwkAddr
   \   000025   12....       LCALL     ?PUSH_XSTACK8_X_TWO
   \   000028   12....       LCALL     ?Subroutine100 & 0xFFFF
   1240            }
   \                     ??CrossCallReturnLabel_396:
   \   00002B   FD           MOV       R5,A
   \   00002C   7C00         MOV       R4,#0x0
   \   00002E   EE           MOV       A,R6
   \   00002F   12....       LCALL     ??Subroutine183_0 & 0xFFFF
   \                     ??CrossCallReturnLabel_375:
   \   000032   3F           ADDC      A,R7
   \   000033   FB           MOV       R3,A
   \   000034   EE           MOV       A,R6
   \   000035   240F         ADD       A,#0xf
   \   000037   12....       LCALL     ??Subroutine186_0 & 0xFFFF
   \                     ??CrossCallReturnLabel_391:
   \   00003A   F9           MOV       R1,A
   \   00003B   12....       LCALL     `??ZDP_ServerDiscRsp::?relay`; Banked call to: ZDP_ServerDiscRsp
   \   00003E   7404         MOV       A,#0x4
   \   000040   12....       LCALL     ?DEALLOC_XSTACK8
   1241          }
   \                     ??ZDO_ProcessServerDiscReq_0:
   \   000043   02....       LJMP      ??Subroutine172_0 & 0xFFFF

   \                                 In  segment BANKED_CODE, align 1, keep-with-next
   \                     ??Subroutine183_0:
   \   000000   2402         ADD       A,#0x2
   \   000002   FA           MOV       R2,A
   \   000003   E4           CLR       A
   \   000004   22           RET

   \                                 In  segment BANKED_CODE, align 1, keep-with-next
   \                     ?Subroutine74:
   \   000000   12....       LCALL     ?Subroutine143 & 0xFFFF
   \                     ??CrossCallReturnLabel_263:
   \   000003   22           RET
   1242          
   1243          /*********************************************************************
   1244           * Call Back Functions from APS  - API
   1245           */
   1246          
   1247          /*********************************************************************
   1248           * @fn          ZDO_EndDeviceTimeoutCB
   1249           *
   1250           * @brief       This function handles the binding timer for the End
   1251           *              Device Bind command.
   1252           *
   1253           * @param       none
   1254           *
   1255           * @return      none
   1256           */

   \                                 In  segment BANKED_CODE, align 1, keep-with-next
   1257          void ZDO_EndDeviceTimeoutCB( void )
   \                     ZDO_EndDeviceTimeoutCB:
   1258          {
   \   000000                REQUIRE ?V0
   \   000000                REQUIRE ?V1
   \   000000   74F6         MOV       A,#-0xa
   \   000002   12....       LCALL     ?BANKED_ENTER_XDATA
   \   000005                ; Saved register size: 10
   \   000005                ; Auto size: 2
   \   000005   74FE         MOV       A,#-0x2
   \   000007   12....       LCALL     ?ALLOC_XSTACK8
   1259          #if defined ( REFLECTOR )
   1260            byte stat;
   1261            if ( ZDO_EDBind )
   \   00000A   90....       MOV       DPTR,#ZDO_EDBind
   \   00000D   12....       LCALL     ??Subroutine191_0 & 0xFFFF
   \                     ??CrossCallReturnLabel_402:
   \   000010   7003         JNZ       $+5
   \   000012   02....       LJMP      ??ZDO_EndDeviceTimeoutCB_0 & 0xFFFF
   1262            {
   1263              stat = ZDO_EDBind->status;
   1264          
   1265              // Send the response message to the first sent
   1266              ZDO_SendEDBindRsp( ZDO_EDBind->SrcTransSeq, &(ZDO_EDBind->SrcAddr),
   1267                                  stat, ZDO_EDBind->SecurityUse );
   \   000015   E0           MOVX      A,@DPTR
   \   000016   C8           XCH       A,R0
   \   000017   2416         ADD       A,#0x16
   \   000019   12....       LCALL     ?Subroutine122 & 0xFFFF
   \                     ??CrossCallReturnLabel_214:
   \   00001C   85..82       MOV       DPL,?XSP + 0
   \   00001F   85..83       MOV       DPH,?XSP + 1
   \   000022   12....       LCALL     ?Subroutine45 & 0xFFFF
   \                     ??CrossCallReturnLabel_72:
   \   000025   F583         MOV       DPH,A
   \   000027   8882         MOV       DPL,R0
   \   000029   E0           MOVX      A,@DPTR
   \   00002A   C0E0         PUSH      A
   \   00002C   7401         MOV       A,#0x1
   \   00002E   12....       LCALL     ?XSTACK_DISP0_8
   \   000031   D0E0         POP       A
   \   000033   12....       LCALL     ?Subroutine45 & 0xFFFF
   \                     ??CrossCallReturnLabel_71:
   \   000036   C8           XCH       A,R0
   \   000037   2415         ADD       A,#0x15
   \   000039   12....       LCALL     ?Subroutine121 & 0xFFFF
   \                     ??CrossCallReturnLabel_212:
   \   00003C   12....       LCALL     ?PUSH_XSTACK_I_ONE
   \   00003F   7401         MOV       A,#0x1
   \   000041   12....       LCALL     ?XSTACK_DISP100_8
   \   000044   88..         MOV       ?V0,R0
   \   000046   89..         MOV       ?V1,R1
   \   000048   78..         MOV       R0,#?V0
   \   00004A   12....       LCALL     ?PUSH_XSTACK_I_TWO
   \   00004D   75..20       MOV       ?V0,#0x20
   \   000050   75..80       MOV       ?V1,#-0x80
   \   000053   78..         MOV       R0,#?V0
   \   000055   12....       LCALL     ?PUSH_XSTACK_I_TWO
   \   000058   7901         MOV       R1,#0x1
   \   00005A   90....       MOV       DPTR,#ZDO_EDBind
   \   00005D   E0           MOVX      A,@DPTR
   \   00005E   29           ADD       A,R1
   \   00005F   FC           MOV       R4,A
   \   000060   A3           INC       DPTR
   \   000061   E0           MOVX      A,@DPTR
   \   000062   3400         ADDC      A,#0x0
   \   000064   FD           MOV       R5,A
   \   000065   7406         MOV       A,#0x6
   \   000067   12....       LCALL     ?XSTACK_DISP101_8
   \   00006A   12....       LCALL     `??ZDP_SendData::?relay`; Banked call to: ZDP_SendData
   \   00006D   7405         MOV       A,#0x5
   \   00006F   12....       LCALL     ?DEALLOC_XSTACK8
   \   000072                ; Setup parameters for call to function HalLcdWriteString
   \   000072   7901         MOV       R1,#0x1
   \   000074   7A..         MOV       R2,#`?<Constant "End Device Bind">` & 0xff
   \   000076   7B..         MOV       R3,#(`?<Constant "End Device Bind">` >> 8) & 0xff
   \   000078   12....       LCALL     `??HalLcdWriteString::?relay`; Banked call to: HalLcdWriteString
   \   00007B   85..82       MOV       DPL,?XSP + 0
   \   00007E   85..83       MOV       DPH,?XSP + 1
   \   000081   E0           MOVX      A,@DPTR
   \   000082   7902         MOV       R1,#0x2
   \   000084   7006         JNZ       ??ZDO_EndDeviceTimeoutCB_1
   \   000086                ; Setup parameters for call to function HalLcdWriteString
   \   000086   7A..         MOV       R2,#`?<Constant "Success Sent">` & 0xff
   \   000088   7B..         MOV       R3,#(`?<Constant "Success Sent">` >> 8) & 0xff
   \   00008A   8004         SJMP      ??ZDO_EndDeviceTimeoutCB_2
   \                     ??ZDO_EndDeviceTimeoutCB_1:
   \   00008C                ; Setup parameters for call to function HalLcdWriteString
   \   00008C   7A..         MOV       R2,#`?<Constant "Timeout">` & 0xff
   \   00008E   7B..         MOV       R3,#(`?<Constant "Timeout">` >> 8) & 0xff
   \                     ??ZDO_EndDeviceTimeoutCB_2:
   \   000090   12....       LCALL     `??HalLcdWriteString::?relay`; Banked call to: HalLcdWriteString
   1268          
   1269              ZDO_RemoveEndDeviceBind();
   \   000093   90....       MOV       DPTR,#ZDO_EDBind
   \   000096   12....       LCALL     ??Subroutine191_0 & 0xFFFF
   \                     ??CrossCallReturnLabel_403:
   \   000099   602C         JZ        ??ZDO_EndDeviceTimeoutCB_0
   \   00009B   E0           MOVX      A,@DPTR
   \   00009C   C8           XCH       A,R0
   \   00009D   2410         ADD       A,#0x10
   \   00009F   12....       LCALL     ?Subroutine51 & 0xFFFF
   \                     ??CrossCallReturnLabel_314:
   \   0000A2   6003         JZ        ??ZDO_EndDeviceTimeoutCB_3
   \   0000A4                ; Setup parameters for call to function osal_mem_free
   \   0000A4   12....       LCALL     `??osal_mem_free::?relay`; Banked call to: osal_mem_free
   \                     ??ZDO_EndDeviceTimeoutCB_3:
   \   0000A7   90....       MOV       DPTR,#ZDO_EDBind
   \   0000AA   12....       LCALL     ??Subroutine202_0 & 0xFFFF
   \                     ??CrossCallReturnLabel_464:
   \   0000AD   2413         ADD       A,#0x13
   \   0000AF   12....       LCALL     ?Subroutine51 & 0xFFFF
   \                     ??CrossCallReturnLabel_315:
   \   0000B2   6003         JZ        ??ZDO_EndDeviceTimeoutCB_4
   \   0000B4                ; Setup parameters for call to function osal_mem_free
   \   0000B4   12....       LCALL     `??osal_mem_free::?relay`; Banked call to: osal_mem_free
   \                     ??ZDO_EndDeviceTimeoutCB_4:
   \   0000B7                ; Setup parameters for call to function osal_mem_free
   \   0000B7   90....       MOV       DPTR,#ZDO_EDBind
   \   0000BA   12....       LCALL     ??Subroutine192_0 & 0xFFFF
   \                     ??CrossCallReturnLabel_417:
   \   0000BD   12....       LCALL     `??osal_mem_free::?relay`; Banked call to: osal_mem_free
   \   0000C0   90....       MOV       DPTR,#ZDO_EDBind
   \   0000C3   E4           CLR       A
   \   0000C4   F0           MOVX      @DPTR,A
   \   0000C5   A3           INC       DPTR
   \   0000C6   F0           MOVX      @DPTR,A
   1270            }
   1271          #endif  // REFLECTOR
   1272          }
   \                     ??ZDO_EndDeviceTimeoutCB_0:
   \   0000C7   02....       LJMP      ?Subroutine2 & 0xFFFF

   \                                 In  segment BANKED_CODE, align 1, keep-with-next
   \                     ?Subroutine51:
   \   000000   F582         MOV       DPL,A
   \   000002   E4           CLR       A
   \   000003   38           ADDC      A,R0
   \   000004   F583         MOV       DPH,A
   \   000006                REQUIRE ??Subroutine175_0
   \   000006                ; // Fall through to label ??Subroutine175_0

   \                                 In  segment BANKED_CODE, align 1, keep-with-next
   \                     ??Subroutine175_0:
   \   000000   12....       LCALL     ??Subroutine203_0 & 0xFFFF
   \                     ??CrossCallReturnLabel_490:
   \   000003   EA           MOV       A,R2
   \   000004   4B           ORL       A,R3
   \   000005   22           RET

   \                                 In  segment BANKED_CODE, align 1, keep-with-next
   \                     ?Subroutine45:
   \   000000   F0           MOVX      @DPTR,A
   \   000001                ; Setup parameters for call to function ZDP_SendData
   \   000001   90....       MOV       DPTR,#ZDO_EDBind
   \   000004   12....       LCALL     ??Subroutine199_0 & 0xFFFF
   \                     ??CrossCallReturnLabel_499:
   \   000007   22           RET

   \                                 In  segment BANKED_CODE, align 1, keep-with-next
   \                     ?Subroutine122:
   \   000000   12....       LCALL     ?Subroutine157 & 0xFFFF
   \                     ??CrossCallReturnLabel_447:
   \   000003   22           RET
   1273          
   1274          /*********************************************************************
   1275           * Optional Management Messages
   1276           */
   1277          
   1278          /*********************************************************************
   1279           * @fn          ZDO_ProcessMgmtLqiReq
   1280           *
   1281           * @brief       This function handles parsing the incoming Management
   1282           *              LQI request and generate the response.
   1283           *
   1284           *   Note:      This function will limit the number of items returned
   1285           *              to ZDO_MAX_LQI_ITEMS items.
   1286           *
   1287           * @param       inMsg - incoming message (request)
   1288           *
   1289           * @return      none
   1290           */

   \                                 In  segment BANKED_CODE, align 1, keep-with-next
   1291          void ZDO_ProcessMgmtLqiReq( zdoIncomingMsg_t *inMsg )
   \                     ZDO_ProcessMgmtLqiReq:
   1292          {
   \   000000                REQUIRE ?V0
   \   000000                REQUIRE ?V1
   \   000000                REQUIRE ?V2
   \   000000                REQUIRE ?V3
   \   000000                REQUIRE ?V4
   \   000000                REQUIRE ?V5
