###############################################################################
#
# IAR C/C++ Compiler V10.10.1.4655 for 8051               24/Dec/2021  00:11:10
# Copyright 2004-2017 IAR Systems AB.
# Standalone license - IAR Embedded Workbench for 8051
#
#    Core               =  plain
#    Code model         =  banked
#    Data model         =  large
#    Calling convention =  xdata reentrant
#    Constant location  =  data_rom
#    Dptr setup         =  1,16
#                          
#    Source file        =  C:\TI\Z-Stack 3.0.2\Components\mt\MT_UTIL.c
#    Command line       =  
#        -f C:\Users\artkh\AppData\Local\Temp\EW6E7B.tmp ("C:\TI\Z-Stack
#        3.0.2\Components\mt\MT_UTIL.c" -D NWK_MAX_DEVICE_LIST=5 -D
#        ZDSECMGR_TC_DEVICE_MAX=15 -D SECURE=1 -D TC_LINKKEY_JOIN -D NV_INIT -D
#        NV_RESTORE -D xZTOOL_P1 -D xMT_TASK -D xMT_APP_FUNC -D xMT_SYS_FUNC -D
#        xMT_ZDO_FUNC -D xMT_ZDO_MGMT -D xMT_APP_CNF_FUNC -D LEGACY_LCD_DEBUG
#        -D LCD_SUPPORTED=DEBUG -D MULTICAST_ENABLED=FALSE -D ZCL_READ -D
#        ZCL_WRITE -D ZCL_BASIC -D ZCL_IDENTIFY -D ZCL_SCENES -D ZCL_GROUPS -lC
#        "C:\TI\Z-Stack
#        3.0.2\Projects\zstack\HomeAutomation\GenericApp_TEST\CC2531\RouterEB\List"
#        -lA "C:\TI\Z-Stack
#        3.0.2\Projects\zstack\HomeAutomation\GenericApp_TEST\CC2531\RouterEB\List"
#        --diag_suppress Pe001,Pa010 -o "C:\TI\Z-Stack
#        3.0.2\Projects\zstack\HomeAutomation\GenericApp_TEST\CC2531\RouterEB\Obj"
#        -e --debug --core=plain --dptr=16,1 --data_model=large
#        --code_model=banked --calling_convention=xdata_reentrant
#        --place_constants=data_rom --nr_virtual_regs 16 -f "C:\TI\Z-Stack
#        3.0.2\Projects\zstack\HomeAutomation\GenericApp_TEST\CC2531\..\..\..\Tools\CC2530DB\f8wRouter.cfg"
#        (-DCPU32MHZ -DROOT=__near_func -DMAC_CFG_APP_PENDING_QUEUE=TRUE
#        -DMAC_CFG_TX_DATA_MAX=5 -DMAC_CFG_TX_MAX=8 -DMAC_CFG_RX_MAX=5
#        -DRTR_NWK) -f "C:\TI\Z-Stack
#        3.0.2\Projects\zstack\HomeAutomation\GenericApp_TEST\CC2531\..\..\..\Tools\CC2530DB\f8wConfig.cfg"
#        (-DZIGBEEPRO -DSECURE=1 -DZG_SECURE_DYNAMIC=0 -DREFLECTOR
#        -DDEFAULT_CHANLIST=0x07FFF800 -DZDAPP_CONFIG_PAN_ID=0xFFFF
#        -DNWK_START_DELAY=100 -DEXTENDED_JOINING_RANDOM_MASK=0x007F
#        -DBEACON_REQUEST_DELAY=100 -DBEACON_REQ_DELAY_MASK=0x00FF
#        -DLINK_STATUS_JITTER_MASK=0x007F -DROUTE_EXPIRY_TIME=30
#        -DAPSC_ACK_WAIT_DURATION_POLLED=3000 -DNWK_INDIRECT_MSG_TIMEOUT=7
#        -DMAX_RREQ_ENTRIES=8 -DAPSC_MAX_FRAME_RETRIES=3
#        -DNWK_MAX_DATA_RETRIES=2 -DMAX_POLL_FAILURE_RETRIES=2 -DMAX_BCAST=9
#        -DAPS_MAX_GROUPS=16 -DMAX_RTG_ENTRIES=40 -DNWK_MAX_BINDING_ENTRIES=4
#        -DMAX_BINDING_CLUSTER_IDS=4 -DDEFAULT_KEY={0} -DMAC_MAX_FRAME_SIZE=116
#        -DZDNWKMGR_MIN_TRANSMISSIONS=20 "-DCONST=const __code"
#        -DGENERIC=__generic -DRFD_RCVC_ALWAYS_ON=FALSE -DPOLL_RATE=1000
#        -DQUEUED_POLL_RATE=100 -DRESPONSE_POLL_RATE=100 -DREJOIN_POLL_RATE=440
#        -DREJOIN_BACKOFF=900000 -DREJOIN_SCAN=900000 -DENABLE_LED4_DISABLE_S1)
#        -f "C:\TI\Z-Stack
#        3.0.2\Projects\zstack\HomeAutomation\GenericApp_TEST\CC2531\..\..\..\Tools\CC2530DB\f8wZCL.cfg"
#        -I "C:\TI\Z-Stack
#        3.0.2\Projects\zstack\HomeAutomation\GenericApp_TEST\CC2531\" -I
#        "C:\TI\Z-Stack
#        3.0.2\Projects\zstack\HomeAutomation\GenericApp_TEST\CC2531\..\Source\"
#        -I "C:\TI\Z-Stack
#        3.0.2\Projects\zstack\HomeAutomation\GenericApp_TEST\CC2531\..\..\Source\"
#        -I "C:\TI\Z-Stack
#        3.0.2\Projects\zstack\HomeAutomation\GenericApp_TEST\CC2531\..\..\..\ZMain\TI2530DB\"
#        -I "C:\TI\Z-Stack
#        3.0.2\Projects\zstack\HomeAutomation\GenericApp_TEST\CC2531\..\..\..\..\..\Components\hal\include\"
#        -I "C:\TI\Z-Stack
#        3.0.2\Projects\zstack\HomeAutomation\GenericApp_TEST\CC2531\..\..\..\..\..\Components\hal\target\CC2530USB\"
#        -I "C:\TI\Z-Stack
#        3.0.2\Projects\zstack\HomeAutomation\GenericApp_TEST\CC2531\..\..\..\..\..\Components\hal\target\CC2530USB\usb\library\"
#        -I "C:\TI\Z-Stack
#        3.0.2\Projects\zstack\HomeAutomation\GenericApp_TEST\CC2531\..\..\..\..\..\Components\hal\target\CC2530USB\usb\library\cc2531\"
#        -I "C:\TI\Z-Stack
#        3.0.2\Projects\zstack\HomeAutomation\GenericApp_TEST\CC2531\..\..\..\..\..\Components\hal\target\CC2530USB\usb\class_cdc\"
#        -I "C:\TI\Z-Stack
#        3.0.2\Projects\zstack\HomeAutomation\GenericApp_TEST\CC2531\..\..\..\..\..\Components\mac\include\"
#        -I "C:\TI\Z-Stack
#        3.0.2\Projects\zstack\HomeAutomation\GenericApp_TEST\CC2531\..\..\..\..\..\Components\mac\high_level\"
#        -I "C:\TI\Z-Stack
#        3.0.2\Projects\zstack\HomeAutomation\GenericApp_TEST\CC2531\..\..\..\..\..\Components\mac\low_level\srf04\"
#        -I "C:\TI\Z-Stack
#        3.0.2\Projects\zstack\HomeAutomation\GenericApp_TEST\CC2531\..\..\..\..\..\Components\mac\low_level\srf04\single_chip\"
#        -I "C:\TI\Z-Stack
#        3.0.2\Projects\zstack\HomeAutomation\GenericApp_TEST\CC2531\..\..\..\..\..\Components\mt\"
#        -I "C:\TI\Z-Stack
#        3.0.2\Projects\zstack\HomeAutomation\GenericApp_TEST\CC2531\..\..\..\..\..\Components\osal\include\"
#        -I "C:\TI\Z-Stack
#        3.0.2\Projects\zstack\HomeAutomation\GenericApp_TEST\CC2531\..\..\..\..\..\Components\services\saddr\"
#        -I "C:\TI\Z-Stack
#        3.0.2\Projects\zstack\HomeAutomation\GenericApp_TEST\CC2531\..\..\..\..\..\Components\services\sdata\"
#        -I "C:\TI\Z-Stack
#        3.0.2\Projects\zstack\HomeAutomation\GenericApp_TEST\CC2531\..\..\..\..\..\Components\stack\af\"
#        -I "C:\TI\Z-Stack
#        3.0.2\Projects\zstack\HomeAutomation\GenericApp_TEST\CC2531\..\..\..\..\..\Components\stack\bdb\"
#        -I "C:\TI\Z-Stack
#        3.0.2\Projects\zstack\HomeAutomation\GenericApp_TEST\CC2531\..\..\..\..\..\Components\stack\nwk\"
#        -I "C:\TI\Z-Stack
#        3.0.2\Projects\zstack\HomeAutomation\GenericApp_TEST\CC2531\..\..\..\..\..\Components\stack\bdb\"
#        -I "C:\TI\Z-Stack
#        3.0.2\Projects\zstack\HomeAutomation\GenericApp_TEST\CC2531\..\..\..\..\..\Components\stack\gp\"
#        -I "C:\TI\Z-Stack
#        3.0.2\Projects\zstack\HomeAutomation\GenericApp_TEST\CC2531\..\..\..\..\..\Components\stack\sapi\"
#        -I "C:\TI\Z-Stack
#        3.0.2\Projects\zstack\HomeAutomation\GenericApp_TEST\CC2531\..\..\..\..\..\Components\stack\sec\"
#        -I "C:\TI\Z-Stack
#        3.0.2\Projects\zstack\HomeAutomation\GenericApp_TEST\CC2531\..\..\..\..\..\Components\stack\sys\"
#        -I "C:\TI\Z-Stack
#        3.0.2\Projects\zstack\HomeAutomation\GenericApp_TEST\CC2531\..\..\..\..\..\Components\stack\zcl\"
#        -I "C:\TI\Z-Stack
#        3.0.2\Projects\zstack\HomeAutomation\GenericApp_TEST\CC2531\..\..\..\..\..\Components\stack\zdo\"
#        -I "C:\TI\Z-Stack
#        3.0.2\Projects\zstack\HomeAutomation\GenericApp_TEST\CC2531\..\..\..\..\..\Components\zmac\"
#        -I "C:\TI\Z-Stack
#        3.0.2\Projects\zstack\HomeAutomation\GenericApp_TEST\CC2531\..\..\..\..\..\Components\zmac\f8w\"
#        -Ohz --require_prototypes)
#    Locale             =  English_United States.1252
#    List file          =  
#        C:\TI\Z-Stack
#        3.0.2\Projects\zstack\HomeAutomation\GenericApp_TEST\CC2531\RouterEB\List\MT_UTIL.lst
#    Object file        =  
#        C:\TI\Z-Stack
#        3.0.2\Projects\zstack\HomeAutomation\GenericApp_TEST\CC2531\RouterEB\Obj\MT_UTIL.r51
#
###############################################################################

C:\TI\Z-Stack 3.0.2\Components\mt\MT_UTIL.c
      1          /***************************************************************************************************
      2            Filename:       MT_UTIL.c
      3            Revised:        $Date: 2015-01-26 08:25:50 -0800 (Mon, 26 Jan 2015) $
      4            Revision:       $Revision: 42025 $
      5          
      6            Description:    MonitorTest Utility Functions
      7          
      8            Copyright 2007-2015 Texas Instruments Incorporated. All rights reserved.
      9          
     10            IMPORTANT: Your use of this Software is limited to those specific rights
     11            granted under the terms of a software license agreement between the user
     12            who downloaded the software, his/her employer (which must be your employer)
     13            and Texas Instruments Incorporated (the "License"). You may not use this
     14            Software unless you agree to abide by the terms of the License. The License
     15            limits your use, and you acknowledge, that the Software may not be modified,
     16            copied or distributed unless embedded on a Texas Instruments microcontroller
     17            or used solely and exclusively in conjunction with a Texas Instruments radio
     18            frequency transceiver, which is integrated into your product. Other than for
     19            the foregoing purpose, you may not use, reproduce, copy, prepare derivative
     20            works of, modify, distribute, perform, display or sell this Software and/or
     21            its documentation for any purpose.
     22          
     23            YOU FURTHER ACKNOWLEDGE AND AGREE THAT THE SOFTWARE AND DOCUMENTATION ARE
     24            PROVIDED "AS IS" WITHOUT WARRANTY OF ANY KIND, EITHER EXPRESS OR IMPLIED,
     25            INCLUDING WITHOUT LIMITATION, ANY WARRANTY OF MERCHANTABILITY, TITLE,
     26            NON-INFRINGEMENT AND FITNESS FOR A PARTICULAR PURPOSE. IN NO EVENT SHALL
     27            TEXAS INSTRUMENTS OR ITS LICENSORS BE LIABLE OR OBLIGATED UNDER CONTRACT,
     28            NEGLIGENCE, STRICT LIABILITY, CONTRIBUTION, BREACH OF WARRANTY, OR OTHER
     29            LEGAL EQUITABLE THEORY ANY DIRECT OR INDIRECT DAMAGES OR EXPENSES
     30            INCLUDING BUT NOT LIMITED TO ANY INCIDENTAL, SPECIAL, INDIRECT, PUNITIVE
     31            OR CONSEQUENTIAL DAMAGES, LOST PROFITS OR LOST DATA, COST OF PROCUREMENT
     32            OF SUBSTITUTE GOODS, TECHNOLOGY, SERVICES, OR ANY CLAIMS BY THIRD PARTIES
     33            (INCLUDING BUT NOT LIMITED TO ANY DEFENSE THEREOF), OR OTHER SIMILAR COSTS.
     34          
     35            Should you have any questions regarding your right to use this Software,
     36            contact Texas Instruments Incorporated at www.TI.com.
     37          
     38           ***************************************************************************************************/
     39          
     40          /***************************************************************************************************
     41           * INCLUDES
     42           ***************************************************************************************************/
     43          #include "ZComDef.h"
     44          
     45          #include "AddrMgr.h"
     46          
     47          #include "OnBoard.h"   /* This is here because of the key reading */
     48          #include "hal_key.h"
     49          #include "hal_led.h"
     50          #include "OSAL_Nv.h"
     51          #include "osal.h"
     52          #include "NLMEDE.h"
     53          #include "MT.h"
     54          #include "MT_UTIL.h"
     55          #include "MT_MAC.h"
     56          #include "ssp.h"
     57          #if defined ZCL_KEY_ESTABLISH
     58          #include "zcl_key_establish.h"
     59          #include "zcl_se.h"
     60          #endif
     61          
     62          #if !defined NONWK
     63          #include "MT_ZDO.h"
     64          #include "MT_SAPI.h"
     65          #include "MT_NWK.h"
     66          #include "MT_AF.h"
     67          #include "AssocList.h"
     68          #include "ZDApp.h"
     69          #include "ZDSecMgr.h"
     70          #endif
     71          
     72          #if defined MT_SRNG
     73          #include "hal_srng.h"
     74          #endif
     75          
     76          #if defined FEATURE_DUAL_MAC
     77          #include "dmmgr.h"
     78          #endif
     79          
     80          /***************************************************************************************************
     81           * CONSTANTS
     82           ***************************************************************************************************/
     83          #define MT_UTIL_DEVICE_INFO_RESPONSE_LEN 14
     84          #define MT_UTIL_STATUS_LEN    1
     85          #define MT_UTIL_FRM_CTR_LEN   4
     86          // Status + LinkKeyDataLen + Tx+Rx Frame counter.
     87          #define MT_APSME_LINKKEY_GET_RSP_LEN (MT_UTIL_STATUS_LEN + SEC_KEY_LEN + (MT_UTIL_FRM_CTR_LEN * 2))
     88          // Status + NV id
     89          #define MT_APSME_LINKKEY_NV_ID_GET_RSP_LEN (MT_UTIL_STATUS_LEN + 2)
     90          
     91          /***************************************************************************************************
     92           * LOCAL VARIABLES
     93           ***************************************************************************************************/
     94          #if defined ZCL_KEY_ESTABLISH
     95          uint8 zcl_key_establish_task_id;
     96          #endif
     97          
     98          #ifdef FEATURE_GET_PRIMARY_IEEE
     99          /* This feature is not compatible with MSP430 or ARM platforms. */
    100          __no_init const __xdata char ieeeMac[1] @ 0x780C;
    101          #endif
    102          
    103          /***************************************************************************************************
    104           * LOCAL FUNCTIONS
    105           ***************************************************************************************************/
    106          #ifdef AUTO_PEND
    107          static void MT_UtilRevExtCpy( uint8 *pDst, uint8 *pSrc );
    108          static void MT_UtilSpi2Addr( zAddrType_t *pDst, uint8 *pSrc );
    109          #endif
    110          
    111          #if defined (MT_UTIL_FUNC)
    112          static void MT_UtilGetDeviceInfo(void);
    113          static void MT_UtilGetNvInfo(void);
    114          static void MT_UtilSetPanID(uint8 *pBuf);
    115          static void MT_UtilSetChannels(uint8 *pBuf);
    116          static void MT_UtilSetSecLevel(uint8 *pBuf);
    117          static void MT_UtilSetPreCfgKey(uint8 *pBuf);
    118          static void MT_UtilCallbackSub(uint8 *pData);
    119          static void MT_UtilTimeAlive(void);
    120          static void MT_UtilSrcMatchEnable (uint8 *pBuf);
    121          static void MT_UtilSrcMatchAddEntry (uint8 *pBuf);
    122          static void MT_UtilSrcMatchDeleteEntry (uint8 *pBuf);
    123          static void MT_UtilSrcMatchCheckSrcAddr (uint8 *pBuf);
    124          static void MT_UtilSrcMatchAckAllPending (uint8 *pBuf);
    125          static void MT_UtilSrcMatchCheckAllPending (uint8 *pBuf);
    126          
    127          static void MT_UtilGpioSetDirection(uint8 *pBuf);
    128          static void MT_UtilGpioRead(uint8 *pBuf);
    129          static void MT_UtilGpioWrite(uint8 *pBuf);
    130          
    131          #if (defined HAL_KEY) && (HAL_KEY == TRUE)
    132          static void MT_UtilKeyEvent(uint8 *pBuf);
    133          #endif
    134          
    135          #if (defined HAL_LED) && (HAL_LED == TRUE)
    136          static void MT_UtilLedControl(uint8 *pBuf);
    137          #endif
    138          
    139          #ifdef MT_SRNG
    140          static void MT_UtilSrngGen(void);
    141          #endif
    142          
    143          #ifdef FEATURE_GET_PRIMARY_IEEE
    144          static void MT_UtilGetPrimaryIEEE(void);
    145          #endif
    146          
    147          #if !defined NONWK
    148          static void MT_UtilDataReq(uint8 *pBuf);
    149          static void MT_UtilAddrMgrEntryLookupExt(uint8 *pBuf);
    150          static void MT_UtilAddrMgrEntryLookupNwk(uint8 *pBuf);
    151          #if defined MT_SYS_KEY_MANAGEMENT
    152          static void MT_UtilAPSME_LinkKeyDataGet(uint8 *pBuf);
    153          static void MT_UtilAPSME_LinkKeyNvIdGet(uint8 *pBuf);
    154          #endif //MT_SYS_KEY_MANAGEMENT
    155          static void MT_UtilAPSME_RequestKeyCmd(uint8 *pBuf);
    156          static void MT_UtilAssocCount(uint8 *pBuf);
    157          static void MT_UtilAssocFindDevice(uint8 *pBuf);
    158          static void MT_UtilAssocGetWithAddress(uint8 *pBuf);
    159          static void MT_UtilBindAddEntry(uint8 *pBuf);
    160          static void packDev_t(uint8 *pBuf, associated_devices_t *pDev);
    161          static void packBindEntry_t(uint8 *pBuf, BindingEntry_t *pBind);
    162          #if defined ZCL_KEY_ESTABLISH
    163          static void MT_UtilzclGeneral_KeyEstablish_InitiateKeyEstablishment(uint8 *pBuf);
    164          static void MT_UtilzclGeneral_KeyEstablishment_ECDSASign(uint8 *pBuf);
    165          #endif // ZCL_KEY_ESTABLISH
    166          static void MT_UtilSync(void);
    167          static void MT_UtilGetDevNwkInfo( uint8 *pBuf );
    168          
    169          #endif // !defined NONWK
    170          #endif // MT_UTIL_FUNC
    171          
    172          #if defined (MT_UTIL_FUNC)
    173          /***************************************************************************************************
    174          * @fn      MT_UtilProcessing
    175          *
    176          * @brief   Process all the DEBUG commands that are issued by test tool
    177          *
    178          * @param   pBuf  - pointer to received SPI data message
    179          *
    180          * @return  status
    181          ***************************************************************************************************/
    182          uint8 MT_UtilCommandProcessing(uint8 *pBuf)
    183          {
    184            uint8 status = MT_RPC_SUCCESS;
    185          
    186            switch (pBuf[MT_RPC_POS_CMD1])
    187            {
    188              // CC253X MAC Network Processor does not have NV support
    189          #if !defined(CC253X_MACNP)
    190            case MT_UTIL_GET_DEVICE_INFO:
    191              MT_UtilGetDeviceInfo();
    192              break;
    193          
    194            case MT_UTIL_GET_NV_INFO:
    195              MT_UtilGetNvInfo();
    196              break;
    197          
    198            case MT_UTIL_SET_PANID:
    199              MT_UtilSetPanID(pBuf);
    200              break;
    201          
    202            case MT_UTIL_SET_CHANNELS:
    203              MT_UtilSetChannels(pBuf);
    204              break;
    205          
    206            case MT_UTIL_SET_SECLEVEL:
    207              MT_UtilSetSecLevel(pBuf);
    208              break;
    209          
    210            case MT_UTIL_SET_PRECFGKEY:
    211              MT_UtilSetPreCfgKey(pBuf);
    212              break;
    213          #endif
    214          
    215          #ifdef FEATURE_GET_PRIMARY_IEEE
    216            case MT_UTIL_GET_PRIMARY_IEEE:
    217              MT_UtilGetPrimaryIEEE();
    218              break;
    219          #endif
    220          
    221            case MT_UTIL_CALLBACK_SUB_CMD:
    222              MT_UtilCallbackSub(pBuf);
    223              break;
    224          
    225            case MT_UTIL_KEY_EVENT:
    226          #if (defined HAL_KEY) && (HAL_KEY == TRUE)
    227              MT_UtilKeyEvent(pBuf);
    228          #endif
    229              break;
    230          
    231            case MT_UTIL_TIME_ALIVE:
    232              MT_UtilTimeAlive();
    233              break;
    234          
    235            case MT_UTIL_LED_CONTROL:
    236          #if (defined HAL_LED) && (HAL_LED == TRUE)
    237              MT_UtilLedControl(pBuf);
    238          #endif
    239              break;
    240          
    241            case MT_UTIL_SRC_MATCH_ENABLE:
    242              MT_UtilSrcMatchEnable(pBuf);
    243              break;
    244          
    245            case MT_UTIL_SRC_MATCH_ADD_ENTRY:
    246              MT_UtilSrcMatchAddEntry(pBuf);
    247              break;
    248          
    249            case MT_UTIL_SRC_MATCH_DEL_ENTRY:
    250              MT_UtilSrcMatchDeleteEntry(pBuf);
    251              break;
    252          
    253            case MT_UTIL_SRC_MATCH_CHECK_SRC_ADDR:
    254              MT_UtilSrcMatchCheckSrcAddr(pBuf);
    255              break;
    256          
    257            case MT_UTIL_SRC_MATCH_ACK_ALL_PENDING:
    258              MT_UtilSrcMatchAckAllPending(pBuf);
    259              break;
    260          
    261            case MT_UTIL_SRC_MATCH_CHECK_ALL_PENDING:
    262              MT_UtilSrcMatchCheckAllPending(pBuf);
    263              break;
    264          
    265            case MT_UTIL_TEST_LOOPBACK:
    266              MT_BuildAndSendZToolResponse((MT_RPC_CMD_SRSP|(uint8)MT_RPC_SYS_UTIL), MT_UTIL_TEST_LOOPBACK,
    267                                           pBuf[MT_RPC_POS_LEN], (pBuf+MT_RPC_FRAME_HDR_SZ));
    268              break;
    269          
    270            case MT_UTIL_GPIO_SET_DIRECTION:
    271              MT_UtilGpioSetDirection(pBuf);
    272              break;
    273          
    274            case MT_UTIL_GPIO_READ:
    275              MT_UtilGpioRead(pBuf);
    276              break;
    277          
    278            case MT_UTIL_GPIO_WRITE:
    279              MT_UtilGpioWrite(pBuf);
    280              break;
    281          
    282          #if !defined NONWK
    283            case MT_UTIL_DATA_REQ:
    284              MT_UtilDataReq(pBuf);
    285              break;
    286          
    287            case MT_UTIL_ADDRMGR_EXT_ADDR_LOOKUP:
    288              MT_UtilAddrMgrEntryLookupExt(pBuf);
    289              break;
    290          
    291            case MT_UTIL_ADDRMGR_NWK_ADDR_LOOKUP:
    292              MT_UtilAddrMgrEntryLookupNwk(pBuf);
    293              break;
    294          
    295          #if defined MT_SYS_KEY_MANAGEMENT
    296            case MT_UTIL_APSME_LINK_KEY_DATA_GET:
    297              MT_UtilAPSME_LinkKeyDataGet(pBuf);
    298              break;
    299          
    300            case MT_UTIL_APSME_LINK_KEY_NV_ID_GET:
    301              MT_UtilAPSME_LinkKeyNvIdGet(pBuf);
    302              break;
    303          #endif // MT_SYS_KEY_MANAGEMENT
    304          
    305            case MT_UTIL_APSME_REQUEST_KEY_CMD:
    306              MT_UtilAPSME_RequestKeyCmd(pBuf);
    307              break;
    308          
    309            case MT_UTIL_ASSOC_COUNT:
    310              MT_UtilAssocCount(pBuf);
    311              break;
    312          
    313            case MT_UTIL_ASSOC_FIND_DEVICE:
    314              MT_UtilAssocFindDevice(pBuf);
    315              break;
    316          
    317            case MT_UTIL_ASSOC_GET_WITH_ADDRESS:
    318              MT_UtilAssocGetWithAddress(pBuf);
    319              break;
    320          
    321            case MT_UTIL_BIND_ADD_ENTRY:
    322              MT_UtilBindAddEntry(pBuf);
    323              break;
    324          
    325          #if defined ZCL_KEY_ESTABLISH
    326            case MT_UTIL_ZCL_KEY_EST_INIT_EST:
    327              MT_UtilzclGeneral_KeyEstablish_InitiateKeyEstablishment(pBuf);
    328              break;
    329          
    330            case MT_UTIL_ZCL_KEY_EST_SIGN:
    331              MT_UtilzclGeneral_KeyEstablishment_ECDSASign(pBuf);
    332              break;
    333          #endif
    334          
    335            case MT_UTIL_SYNC_REQ:
    336              MT_UtilSync();
    337              break;
    338              
    339            case MT_UTIL_GET_DEV_NWK_INFO:
    340              MT_UtilGetDevNwkInfo(pBuf);
    341              break;
    342              
    343            case MT_UTIL_SET_DEV_NWK_INFO:
    344              MT_UtilSetDevNwkInfo(pBuf);
    345              break;
    346          #endif /* !defined NONWK */
    347          
    348          #ifdef MT_SRNG
    349            case MT_UTIL_SRNG_GENERATE:
    350              MT_UtilSrngGen();
    351              break;
    352          #endif
    353          
    354            default:
    355              status = MT_RPC_ERR_COMMAND_ID;
    356              break;
    357            }
    358          
    359            return status;
    360          }
    361          
    362          /***************************************************************************************************
    363          * @fn      MT_UtilGetDeviceInfo
    364          *
    365          * @brief   The Get Device Info serial message.
    366          *
    367          * @param   None.
    368          *
    369          * @return  void
    370          ***************************************************************************************************/
    371          static void MT_UtilGetDeviceInfo(void)
    372          {
    373            uint8  *buf;
    374            uint8  *pBuf;
    375            uint8  bufLen = MT_UTIL_DEVICE_INFO_RESPONSE_LEN;
    376            uint16 *assocList = NULL;
    377          
    378          #if !defined NONWK
    379            uint8  assocCnt = 0;
    380          
    381            if (ZG_DEVICE_RTR_TYPE)
    382            {
    383              assocList = AssocMakeList( &assocCnt );
    384              bufLen += (assocCnt * sizeof(uint16));
    385            }
    386          #endif
    387          
    388            buf = osal_mem_alloc( bufLen );
    389            if ( buf )
    390            {
    391              pBuf = buf;
    392          
    393              *pBuf++ = ZSUCCESS; // Status
    394          
    395              osal_nv_read( ZCD_NV_EXTADDR, 0, Z_EXTADDR_LEN, pBuf );
    396              pBuf += Z_EXTADDR_LEN;
    397          
    398          #if defined NONWK
    399              // Skip past ZStack only parameters for NONWK
    400              *pBuf++ = 0;
    401              *pBuf++ = 0;
    402              *pBuf++ = 0;
    403              *pBuf++ = 0;
    404              *pBuf = 0;
    405          #else
    406              {
    407                uint16 shortAddr = NLME_GetShortAddr();
    408                *pBuf++ = LO_UINT16( shortAddr );
    409                *pBuf++ = HI_UINT16( shortAddr );
    410              }
    411          
    412              /* Return device type */
    413              *pBuf++ = ZSTACK_DEVICE_BUILD;
    414          
    415              /*Return device state */
    416              *pBuf++ = (uint8)devState;
    417          
    418              if (ZG_DEVICE_RTR_TYPE)
    419              {
    420                *pBuf++ = assocCnt;
    421          
    422                if ( assocCnt )
    423                {
    424                  uint8 x;
    425                  uint16 *puint16 = assocList;
    426          
    427                  for ( x = 0; x < assocCnt; x++, puint16++ )
    428                  {
    429                    *pBuf++ = LO_UINT16( *puint16 );
    430                    *pBuf++ = HI_UINT16( *puint16 );
    431                  }
    432                }
    433              }
    434              else
    435              {
    436                *pBuf++ = 0;
    437              }
    438          #endif
    439          
    440              MT_BuildAndSendZToolResponse( ((uint8)MT_RPC_CMD_SRSP | (uint8)MT_RPC_SYS_UTIL),
    441                                           MT_UTIL_GET_DEVICE_INFO,
    442                                           bufLen, buf );
    443          
    444              osal_mem_free( buf );
    445            }
    446          
    447            if ( assocList )
    448            {
    449              osal_mem_free( assocList );
    450            }
    451          }
    452          
    453          #ifdef MT_SRNG
    454          /***************************************************************************************************
    455          * @fn      MT_UtilSrngGen
    456          *
    457          * @brief   Generate Secure Random Numbers
    458          *
    459          * @param   None.
    460          *
    461          * @return  void
    462          ***************************************************************************************************/
    463          static void MT_UtilSrngGen(void)
    464          {
    465            static uint32 count = 125000; /* 125000 * 8 bits = 1000000 bits */
    466            uint8 outrng[100];
    467            uint8 status;
    468          
    469            if(count > 0)
    470            {
    471              status = ssp_srng_generate((uint8 *)outrng, 100, NULL);
    472              if (status != SRNG_SUCCESS)
    473              {
    474                if(RNG_INIT_ERROR == status)
    475                {
    476                  ssp_srng_reseed();
    477                }
    478                else
    479                {
    480                  while(1)
    481                  {
    482                    ASM_NOP;
    483                  }
    484                } /* if(RNG_INIT_ERROR == status) */
    485              }/*if (status != SRNG_SUCCESS) */
    486          
    487              if(count >= 100)
    488              {
    489                count -= 100;
    490              }
    491              else
    492              {
    493                count = 0;
    494              }
    495              MT_BuildAndSendZToolResponse(((uint8)MT_RPC_CMD_AREQ |
    496                                           (uint8)MT_RPC_SYS_DBG),
    497                                            MT_DEBUG_MSG,
    498                                            100,
    499                                            outrng);
    500              osal_start_timerEx(MT_TaskID, MT_SRNG_EVENT, 100);
    501            }
    502          }
    503          #endif
    504          
    505          /***************************************************************************************************
    506           * @fn      MT_UtilGetNvInfo
    507           *
    508           * @brief   The Get NV Info serial message.
    509           *
    510           * @param   None.
    511           *
    512           * @return  void
    513           ***************************************************************************************************/
    514          static void MT_UtilGetNvInfo(void)
    515          {
    516            uint8 len;
    517            uint8 stat;
    518            uint8 *buf;
    519            uint8 *pBuf;
    520            uint16 tmp16;
    521            uint32 tmp32;
    522          
    523            /*
    524              Get required length of buffer
    525              Status + ExtAddr + ChanList + PanID  + SecLevel + PreCfgKey
    526            */
    527            len = 1 + Z_EXTADDR_LEN + 4 + 2 + 1 + SEC_KEY_LEN;
    528          
    529            buf = osal_mem_alloc( len );
    530            if ( buf )
    531            {
    532              /* Assume NV not available */
    533              osal_memset( buf, 0xFF, len );
    534          
    535              /* Skip over status */
    536              pBuf = buf + 1;
    537          
    538              /* Start with 64-bit extended address */
    539              stat = osal_nv_read( ZCD_NV_EXTADDR, 0, Z_EXTADDR_LEN, pBuf );
    540              if ( stat ) stat = 0x01;
    541              pBuf += Z_EXTADDR_LEN;
    542          
    543              /* Scan channel list (bit mask) */
    544              if (  osal_nv_read( ZCD_NV_CHANLIST, 0, sizeof( tmp32 ), &tmp32 ) )
    545              {
    546                stat |= 0x02;
    547              }
    548              else
    549              {
    550                pBuf[0] = BREAK_UINT32( tmp32, 3 );
    551                pBuf[1] = BREAK_UINT32( tmp32, 2 );
    552                pBuf[2] = BREAK_UINT32( tmp32, 1 );
    553                pBuf[3] = BREAK_UINT32( tmp32, 0 );
    554              }
    555              pBuf += sizeof( tmp32 );
    556          
    557              /* ZigBee PanID */
    558              if ( osal_nv_read( ZCD_NV_PANID, 0, sizeof( tmp16 ), &tmp16 ) )
    559              {
    560                stat |= 0x04;
    561              }
    562              else
    563              {
    564                pBuf[0] = LO_UINT16( tmp16 );
    565                pBuf[1] = HI_UINT16( tmp16 );
    566              }
    567              pBuf += sizeof( tmp16 );
    568          
    569              /* Security level */
    570              if ( osal_nv_read( ZCD_NV_SECURITY_LEVEL, 0, sizeof( uint8 ), pBuf++ ) )
    571              {
    572                stat |= 0x08;
    573              }
    574              /* Pre-configured security key */
    575              if ( osal_nv_read( ZCD_NV_PRECFGKEY, 0, SEC_KEY_LEN, pBuf ) )
    576              {
    577                stat |= 0x10;
    578              }
    579              /* Status bit mask - bit=1 indicates failure */
    580              *buf = stat;
    581          
    582              MT_BuildAndSendZToolResponse(((uint8)MT_RPC_CMD_SRSP | (uint8)MT_RPC_SYS_UTIL), MT_UTIL_GET_NV_INFO,
    583                                            len, buf );
    584          
    585              osal_mem_free( buf );
    586            }
    587          }
    588          
    589          /***************************************************************************************************
    590           * @fn      MT_UtilSetPanID
    591           *
    592           * @brief   Set PanID message
    593           *
    594           * @param   pBuf - pointer to the data
    595           *
    596           * @return  void
    597           ***************************************************************************************************/
    598          static void MT_UtilSetPanID(uint8 *pBuf)
    599          {
    600            uint16 temp16;
    601            uint8 retValue;
    602            uint8 cmdId;
    603          
    604            /* parse header */
    605            cmdId = pBuf[MT_RPC_POS_CMD1];
    606            pBuf += MT_RPC_FRAME_HDR_SZ;
    607          
    608            temp16 = osal_build_uint16( pBuf );
    609          
    610            retValue = osal_nv_write(ZCD_NV_PANID, 0, osal_nv_item_len( ZCD_NV_PANID ), &temp16);
    611          
    612            /* Build and send back the response */
    613            MT_BuildAndSendZToolResponse(((uint8)MT_RPC_CMD_SRSP | (uint8)MT_RPC_SYS_UTIL), cmdId, 1, &retValue);
    614          }
    615          
    616          /***************************************************************************************************
    617           * @fn      MT_UtilSetChannels
    618           *
    619           * @brief   Set Channels
    620           *
    621           * @param   pBuf - pointer to the data
    622           *
    623           * @return  void
    624           ***************************************************************************************************/
    625          static void MT_UtilSetChannels(uint8 *pBuf)
    626          {
    627            uint32 tmp32;
    628            uint8 retValue;
    629            uint8 cmdId;
    630          
    631            /* parse header */
    632            cmdId = pBuf[MT_RPC_POS_CMD1];
    633            pBuf += MT_RPC_FRAME_HDR_SZ;
    634          
    635            tmp32 = osal_build_uint32( pBuf, 4 );
    636          
    637            retValue = osal_nv_write(ZCD_NV_CHANLIST, 0, osal_nv_item_len( ZCD_NV_CHANLIST ), &tmp32);
    638          
    639            /* Build and send back the response */
    640            MT_BuildAndSendZToolResponse(((uint8)MT_RPC_CMD_SRSP | (uint8)MT_RPC_SYS_UTIL), cmdId, 1, &retValue);
    641          }
    642          
    643          /***************************************************************************************************
    644           * @fn      MT_UtilSetSecLevel
    645           *
    646           * @brief   Set Sec Level
    647           *
    648           * @param   byte *msg - pointer to the data
    649           *
    650           * @return  void
    651           ***************************************************************************************************/
    652          static void MT_UtilSetSecLevel(uint8 *pBuf)
    653          {
    654            uint8 retValue;
    655            uint8 cmdId;
    656          
    657            /* parse header */
    658            cmdId = pBuf[MT_RPC_POS_CMD1];
    659            pBuf += MT_RPC_FRAME_HDR_SZ;
    660          
    661            retValue = osal_nv_write( ZCD_NV_SECURITY_LEVEL, 0, osal_nv_item_len( ZCD_NV_SECURITY_LEVEL ), pBuf);
    662          
    663            /* Build and send back the response */
    664            MT_BuildAndSendZToolResponse(((uint8)MT_RPC_CMD_SRSP | (uint8)MT_RPC_SYS_UTIL), cmdId, 1, &retValue );
    665          
    666          }
    667          
    668          /***************************************************************************************************
    669           * @fn      MT_UtilSetPreCfgKey
    670           *
    671           * @brief   Set Pre Cfg Key
    672           *
    673           * @param   pBuf - pointer to the data
    674           *
    675           * @return  void
    676           ***************************************************************************************************/
    677          static void MT_UtilSetPreCfgKey(uint8 *pBuf)
    678          {
    679            uint8 retValue;
    680            uint8 cmdId;
    681          
    682            /* parse header */
    683            cmdId = pBuf[MT_RPC_POS_CMD1];
    684            pBuf += MT_RPC_FRAME_HDR_SZ;
    685          
    686            retValue = osal_nv_write( ZCD_NV_PRECFGKEY, 0, osal_nv_item_len( ZCD_NV_PRECFGKEY ), pBuf);
    687          
    688            /* Build and send back the response */
    689            MT_BuildAndSendZToolResponse(((uint8)MT_RPC_CMD_SRSP | (uint8)MT_RPC_SYS_UTIL), cmdId, 1, &retValue );
    690          
    691          }
    692          
    693          #ifdef FEATURE_GET_PRIMARY_IEEE
    694          /***************************************************************************************************
    695           * @fn      MT_UtilGetPrimaryIEEE
    696           *
    697           * @brief   Return a copy of the Primary IEEE address
    698           *
    699           * @param   none
    700           *
    701           * @return  void
    702           ***************************************************************************************************/
    703          static void MT_UtilGetPrimaryIEEE(void)
    704          {
    705            uint8 i;
    706            uint8 retBuf[Z_EXTADDR_LEN+1];
    707          
    708            retBuf[0] = SUCCESS;
    709          
    710            for(i = 1; i <= Z_EXTADDR_LEN; i++)
    711            {
    712              retBuf[i] = ieeeMac[i];
    713            }
    714          
    715            MT_BuildAndSendZToolResponse( ((uint8)MT_RPC_CMD_SRSP | (uint8)MT_RPC_SYS_UTIL),
    716                                            MT_UTIL_GET_PRIMARY_IEEE, Z_EXTADDR_LEN+1, retBuf );
    717          }
    718          #endif /* FEATURE_GET_PRIMARY_IEEE */
    719          
    720          /***************************************************************************************************
    721           * @fn      MT_UtilCallbackSub
    722           *
    723           * @brief   The Callback subscribe.
    724           *
    725           * @param   pBuf - pointer to the data
    726           *
    727           * @return  void
    728           ***************************************************************************************************/
    729          void MT_UtilCallbackSub(uint8 *pBuf)
    730          {
    731            uint8 cmdId = pBuf[MT_RPC_POS_CMD1];
    732            uint8 retValue = ZFailure;
    733          
    734          #if defined(MT_MAC_CB_FUNC) || defined(MT_NWK_CB_FUNC) || defined(MT_ZDO_CB_FUNC) || defined(MT_AF_CB_FUNC) || defined(MT_SAPI_CB_FUNC)
    735            uint8 subSystem;
    736            uint16 subscribed_command;
    737          
    738            // Move past header
    739            retValue = ZSuccess;
    740            pBuf += MT_RPC_FRAME_HDR_SZ;
    741          
    742            /* Command */
    743            subscribed_command = osal_build_uint16( pBuf );
    744            pBuf += 2;
    745          
    746            /* Subsystem - 5 bits on the MSB of the command */
    747            subSystem = HI_UINT16(subscribed_command) & 0x1F ;
    748          
    749            /* What is the action - SUBSCRIBE or !SUBSCRIBE */
    750            if (*pBuf)
    751            {
    752              /* Turn ON */
    753            #if defined( MT_MAC_CB_FUNC )
    754              if ((subSystem == MT_RPC_SYS_MAC) || (subscribed_command == 0xFFFF))
    755              {
    756              #if !defined (FEATURE_DUAL_MAC)
    757                _macCallbackSub = 0xFFFF;
    758              #else
    759                DMMGR_SaveMacCbReg( 0xFFFF );
    760              #endif /* ! FEATURE_DUAL_MAC */
    761              }
    762            #endif
    763          
    764            #if defined( MT_NWK_CB_FUNC )
    765              if ((subSystem == MT_RPC_SYS_NWK) || (subscribed_command == 0xFFFF))
    766                _nwkCallbackSub = 0xFFFF;
    767            #endif
    768          
    769            #if defined( MT_ZDO_CB_FUNC )
    770              if ((subSystem == MT_RPC_SYS_ZDO) || (subscribed_command == 0xFFFF))
    771                _zdoCallbackSub = 0xFFFFFFFF;
    772            #endif
    773          
    774            #if defined( MT_AF_CB_FUNC )
    775              if ((subSystem == MT_RPC_SYS_AF) || (subscribed_command == 0xFFFF))
    776                _afCallbackSub = 0xFFFF;
    777            #endif
    778          
    779            #if defined( MT_SAPI_CB_FUNC )
    780              if ((subSystem == MT_RPC_SYS_SAPI) || (subscribed_command == 0xFFFF))
    781                _sapiCallbackSub = 0xFFFF;
    782            #endif
    783            }
    784            else
    785            {
    786              /* Turn OFF */
    787            #if defined( MT_MAC_CB_FUNC )
    788              if ((subSystem == MT_RPC_SYS_MAC) || (subscribed_command == 0xFFFF))
    789                _macCallbackSub = 0x0000;
    790          
    791            #if defined (FEATURE_DUAL_MAC )
    792              DMMGR_SaveMacCbReg( 0x0000 );
    793            #endif /* FEATURE_DUAL_MAC */
    794          
    795            #endif
    796          
    797            #if defined( MT_NWK_CB_FUNC )
    798              if ((subSystem == MT_RPC_SYS_NWK) || (subscribed_command == 0xFFFF))
    799                _nwkCallbackSub = 0x0000;
    800            #endif
    801          
    802            #if defined( MT_ZDO_CB_FUNC )
    803              if ((subSystem == MT_RPC_SYS_ZDO) || (subscribed_command == 0xFFFF))
    804                _zdoCallbackSub = 0x00000000;
    805            #endif
    806          
    807            #if defined( MT_AF_CB_FUNC )
    808              if ((subSystem == MT_RPC_SYS_AF) || (subscribed_command == 0xFFFF))
    809                _afCallbackSub = 0x0000;
    810            #endif
    811          
    812            #if defined( MT_SAPI_CB_FUNC )
    813              if ((subSystem == MT_RPC_SYS_SAPI) || (subscribed_command == 0xFFFF))
    814                  _sapiCallbackSub = 0x0000;
    815            #endif
    816            }
    817          #endif  // MT_MAC_CB_FUNC || MT_NWK_CB_FUNC || MT_ZDO_CB_FUNC || MT_AF_CB_FUNC || MT_SAPI_CB_FUNC || MT_SAPI_CB_FUNC
    818          
    819            /* Build and send back the response */
    820            MT_BuildAndSendZToolResponse(((uint8)MT_RPC_CMD_SRSP | (uint8)MT_RPC_SYS_UTIL), cmdId, 1, &retValue );
    821          }
    822          
    823          #if (defined HAL_KEY) && (HAL_KEY == TRUE)
    824          /***************************************************************************************************
    825           * @fn      MT_UtilKeyEvent
    826           *
    827           * @brief   Process Key Event
    828           *
    829           * @param   pBuf - pointer to the data
    830           *
    831           * @return  void
    832           ***************************************************************************************************/
    833          static void MT_UtilKeyEvent(uint8 *pBuf)
    834          {
    835            uint8 x = 0;
    836            uint8 retValue;
    837            uint8 cmdId;
    838          
    839            /* parse header */
    840            cmdId = pBuf[MT_RPC_POS_CMD1];
    841            pBuf += MT_RPC_FRAME_HDR_SZ;
    842          
    843            /* Translate between SPI values to device values */
    844            if ( *pBuf & 0x01 )
    845              x |= HAL_KEY_SW_1;
    846            if ( *pBuf & 0x02 )
    847              x |= HAL_KEY_SW_2;
    848            if ( *pBuf & 0x04 )
    849              x |= HAL_KEY_SW_3;
    850            if ( *pBuf & 0x08 )
    851              x |= HAL_KEY_SW_4;
    852          #if defined ( HAL_KEY_SW_5 )
    853            if ( *pBuf & 0x10 )
    854              x |= HAL_KEY_SW_5;
    855          #endif
    856          #if defined ( HAL_KEY_SW_6 )
    857            if ( *pBuf & 0x20 )
    858              x |= HAL_KEY_SW_6;
    859          #endif
    860          #if defined ( HAL_KEY_SW_7 )
    861            if ( *pBuf & 0x40 )
    862              x |= HAL_KEY_SW_7;
    863          #endif
    864          #if defined ( HAL_KEY_SW_8 )
    865            if ( *pBuf & 0x80 )
    866              x |= HAL_KEY_SW_8;
    867          #endif
    868            pBuf++;
    869          
    870            retValue = OnBoard_SendKeys(x, *pBuf);
    871          
    872            /* Build and send back the response */
    873            MT_BuildAndSendZToolResponse(((uint8)MT_RPC_CMD_SRSP | (uint8)MT_RPC_SYS_UTIL), cmdId, 1, &retValue );
    874          }
    875          #endif
    876          
    877          /***************************************************************************************************
    878           * @fn      MT_UtilTimeAlive
    879           *
    880           * @brief   Process Time Alive
    881           *
    882           * @param   None.
    883           *
    884           * @return  None
    885           ***************************************************************************************************/
    886          static void MT_UtilTimeAlive(void)
    887          {
    888            uint8 timeAlive[4];
    889            uint32 tmp32;
    890          
    891            /* Time since last reset (seconds) */
    892            tmp32 = osal_GetSystemClock() / 1000;
    893          
    894            /* Convert to high byte first into temp buffer */
    895            osal_buffer_uint32( timeAlive, tmp32 );
    896          
    897            /* Build and send back the response */
    898            MT_BuildAndSendZToolResponse(((uint8)MT_RPC_CMD_SRSP | (uint8)MT_RPC_SYS_UTIL),
    899                                                 MT_UTIL_TIME_ALIVE, sizeof(timeAlive), timeAlive);
    900          }
    901          
    902          #if (defined HAL_LED) && (HAL_LED == TRUE)
    903          /***************************************************************************************************
    904           * @fn      MT_UtilLedControl
    905           *
    906           * @brief   Process the LED Control Message
    907           *
    908           * @param   pBuf - pointer to the received data
    909           *
    910           * @return  None
    911           ***************************************************************************************************/
    912          static void MT_UtilLedControl(uint8 *pBuf)
    913          {
    914            uint8 iLed, Led, iMode, Mode, cmdId;
    915            uint8 retValue;
    916          
    917            /* parse header */
    918            cmdId = pBuf[MT_RPC_POS_CMD1];
    919            pBuf += MT_RPC_FRAME_HDR_SZ;
    920          
    921            /* LED and Mode */
    922            iLed = *pBuf++;
    923            iMode = *pBuf;
    924          
    925          #ifdef MODKAMRU_V3
    926            if(iMode==0)
    927              modkamUseLeds(false);
    928            else modkamUseLeds(true);
    929          #endif
    930          
    931            if ( iLed == 1 )
    932              Led = HAL_LED_1;
    933            else if ( iLed == 2 )
    934              Led = HAL_LED_2;
    935            else if ( iLed == 3 )
    936              Led = HAL_LED_3;
    937            else if ( iLed == 4 )
    938              Led = HAL_LED_4;
    939            else if ( iLed == 0xFF )
    940              Led = HAL_LED_ALL;
    941            else
    942              Led = 0;
    943          
    944            if ( iMode == 0 )
    945              Mode = HAL_LED_MODE_OFF;
    946            else if ( iMode == 1 )
    947              Mode = HAL_LED_MODE_ON;
    948            else if ( iMode == 2 )
    949              Mode = HAL_LED_MODE_BLINK;
    950            else if ( iMode == 3 )
    951              Mode = HAL_LED_MODE_FLASH;
    952            else if ( iMode == 4 )
    953              Mode = HAL_LED_MODE_TOGGLE;
    954            else
    955              Led = 0;
    956          
    957            if ( Led != 0 )
    958            {
    959              HalLedSet (Led, Mode);
    960              retValue = ZSuccess;
    961            }
    962            else
    963            {
    964              retValue = ZFailure;
    965            }
    966          
    967            /* Build and send back the response */
    968            MT_BuildAndSendZToolResponse(((uint8)MT_RPC_CMD_SRSP | (uint8)MT_RPC_SYS_UTIL), cmdId, 1, &retValue );
    969          }
    970          #endif /* HAL_LED */
    971          
    972          /***************************************************************************************************
    973           * @fn          MT_UtilSrcMatchEnable
    974           *
    975           * @brief      Enabled AUTOPEND and source address matching.
    976           *
    977           * @param      pBuf - Buffer contains the data
    978           *
    979           * @return     void
    980           ***************************************************************************************************/
    981          static void MT_UtilSrcMatchEnable (uint8 *pBuf)
    982          {
    983            uint8 retValue, cmdId;
    984          
    985            /* Parse header */
    986            cmdId = pBuf[MT_RPC_POS_CMD1];
    987            pBuf += MT_RPC_FRAME_HDR_SZ;
    988          
    989          #ifdef AUTO_PEND
    990            /* Call the routine */
    991            retValue = ZMacSrcMatchEnable();
    992          #else
    993            retValue = ZMacUnsupported;
    994          #endif
    995          
    996            /* Build and send back the response */
    997            MT_BuildAndSendZToolResponse(((uint8)MT_RPC_CMD_SRSP | (uint8)MT_RPC_SYS_UTIL), cmdId, 1, &retValue );
    998          
    999          }
   1000          
   1001          /***************************************************************************************************
   1002           * @fn          MT_UtilSrcMatchAddEntry
   1003           *
   1004           * @brief       Add a short or extended address to source address table.
   1005           *
   1006           * @param       pBuf - Buffer contains the data
   1007           *
   1008           * @return      void
   1009           ***************************************************************************************************/
   1010          static void MT_UtilSrcMatchAddEntry (uint8 *pBuf)
   1011          {
   1012            uint8 retValue, cmdId;
   1013          
   1014            /* Parse header */
   1015            cmdId = pBuf[MT_RPC_POS_CMD1];
   1016            pBuf += MT_RPC_FRAME_HDR_SZ;
   1017          
   1018          #ifdef AUTO_PEND
   1019            uint16 panID;
   1020            zAddrType_t devAddr;
   1021          
   1022            /* Address mode */
   1023            devAddr.addrMode = *pBuf++;
   1024          
   1025            /* Address based on the address mode */
   1026            MT_UtilSpi2Addr( &devAddr, pBuf);
   1027            pBuf += Z_EXTADDR_LEN;
   1028          
   1029            /* PanID */
   1030            panID = osal_build_uint16( pBuf );
   1031          
   1032            /* Call the routine */
   1033            retValue =  ZMacSrcMatchAddEntry (&devAddr, panID);
   1034          #else
   1035            retValue = ZMacUnsupported;
   1036          #endif
   1037          
   1038            /* Build and send back the response */
   1039            MT_BuildAndSendZToolResponse(((uint8)MT_RPC_CMD_SRSP | (uint8)MT_RPC_SYS_UTIL), cmdId, 1, &retValue );
   1040          }
   1041          
   1042          /***************************************************************************************************
   1043           * @fn          MT_UtilSrcMatchDeleteEntry
   1044           *
   1045           * @brief      Delete a short or extended address from source address table.
   1046           *
   1047           * @param      pBuf - Buffer contains the data
   1048           *
   1049           * @return     void
   1050           ***************************************************************************************************/
   1051          static void MT_UtilSrcMatchDeleteEntry (uint8 *pBuf)
   1052          {
   1053            uint8 retValue, cmdId;
   1054          
   1055            /* Parse header */
   1056            cmdId = pBuf[MT_RPC_POS_CMD1];
   1057            pBuf += MT_RPC_FRAME_HDR_SZ;
   1058          
   1059          #ifdef AUTO_PEND
   1060            uint16 panID;
   1061            zAddrType_t devAddr;
   1062          
   1063            /* Address mode */
   1064            devAddr.addrMode = *pBuf++;
   1065          
   1066            /* Address based on the address mode */
   1067            MT_UtilSpi2Addr( &devAddr, pBuf);
   1068            pBuf += Z_EXTADDR_LEN;
   1069          
   1070            /* PanID */
   1071            panID = osal_build_uint16( pBuf );
   1072          
   1073            /* Call the routine */
   1074            retValue =  ZMacSrcMatchDeleteEntry (&devAddr, panID);
   1075          #else
   1076            retValue = ZMacUnsupported;
   1077          #endif
   1078          
   1079            /* Build and send back the response */
   1080            MT_BuildAndSendZToolResponse(((uint8)MT_RPC_CMD_SRSP | (uint8)MT_RPC_SYS_UTIL), cmdId, 1, &retValue );
   1081          }
   1082          
   1083          /***************************************************************************************************
   1084           * @fn          MT_UtilSrcMatchCheckSrcAddr
   1085           *
   1086           * @brief      Check if a short or extended address is in the source address table.
   1087           *
   1088           * @param      pBuf - Buffer contains the data
   1089           *
   1090           * @return     void
   1091           ***************************************************************************************************/
   1092          static void MT_UtilSrcMatchCheckSrcAddr (uint8 *pBuf)
   1093          {
   1094            uint8 cmdId;
   1095            uint8 retArray[2];
   1096          
   1097            /* Parse header */
   1098            cmdId = pBuf[MT_RPC_POS_CMD1];
   1099            pBuf += MT_RPC_FRAME_HDR_SZ;
   1100          
   1101          #if 0  /* Unsupported  */
   1102            uint16 panID;
   1103            zAddrType_t devAddr;
   1104          
   1105            /* Address mode */
   1106            devAddr.addrMode = *pBuf++;
   1107          
   1108            /* Address based on the address mode */
   1109            MT_UtilSpi2Addr( &devAddr, pBuf);
   1110            pBuf += Z_EXTADDR_LEN;
   1111          
   1112            /* PanID */
   1113            panID = osal_build_uint16( pBuf );
   1114          
   1115            /* Call the routine */
   1116            retArray[1] =  ZMacSrcMatchCheckSrcAddr (&devAddr, panID);
   1117          
   1118              /* Return failure if the index is invalid */
   1119            if (retArray[1] == ZMacSrcMatchInvalidIndex )
   1120            {
   1121              retArray[0] = ZFailure;
   1122            }
   1123            else
   1124            {
   1125              retArray[0] = ZSuccess;
   1126            }
   1127          #else
   1128            retArray[0] = ZMacUnsupported;
   1129            retArray[1] = ZMacSrcMatchInvalidIndex;
   1130          #endif
   1131          
   1132            /* Build and send back the response */
   1133            MT_BuildAndSendZToolResponse(((uint8)MT_RPC_CMD_SRSP | (uint8)MT_RPC_SYS_UTIL), cmdId, 2, retArray );
   1134          }
   1135          
   1136          /***************************************************************************************************
   1137           * @fn          MT_UtilSrcMatchAckAllPending
   1138           *
   1139           * @brief       Enabled/disable acknowledging all packets with pending bit set
   1140           *              It is normally enabled when adding new entries to
   1141           *              the source address table fails due to the table is full, or
   1142           *              disabled when more entries are deleted and the table has
   1143           *              empty slots.
   1144           *
   1145           * @param       pBuf - Buffer contains the data
   1146           *
   1147           * @return      void
   1148           ***************************************************************************************************/
   1149          static void MT_UtilSrcMatchAckAllPending (uint8 *pBuf)
   1150          {
   1151            uint8 retValue, cmdId;
   1152          
   1153            /* Parse header */
   1154            cmdId = pBuf[MT_RPC_POS_CMD1];
   1155            pBuf += MT_RPC_FRAME_HDR_SZ;
   1156          
   1157          #ifdef AUTO_PEND
   1158            /* Call the routine */
   1159            retValue = ZMacSrcMatchAckAllPending(*pBuf);
   1160          #else
   1161            retValue = ZMacUnsupported;
   1162          #endif
   1163          
   1164            /* Build and send back the response */
   1165            MT_BuildAndSendZToolResponse(((uint8)MT_RPC_CMD_SRSP | (uint8)MT_RPC_SYS_UTIL), cmdId, 1, &retValue );
   1166          }
   1167          
   1168          /***************************************************************************************************
   1169           * @fn          MT_UtilSrcMatchCheckAllPending
   1170           *
   1171           * @brief       Check if acknowledging all packets with pending bit set
   1172           *              is enabled.
   1173           *
   1174           * @param       pBuf - Buffer contains the data
   1175           *
   1176           * @return      void
   1177           ***************************************************************************************************/
   1178          static void MT_UtilSrcMatchCheckAllPending (uint8 *pBuf)
   1179          {
   1180            uint8 retArray[2], cmdId;
   1181          
   1182            /* Parse header */
   1183            cmdId = pBuf[MT_RPC_POS_CMD1];
   1184            pBuf += MT_RPC_FRAME_HDR_SZ;
   1185          
   1186          #ifdef AUTO_PEND
   1187            /* Call the routine */
   1188            retArray[0] = ZMacSuccess;
   1189            retArray[1] = ZMacSrcMatchCheckAllPending();
   1190          #else
   1191            retArray[0] = ZMacUnsupported;
   1192            retArray[1] = FALSE;
   1193          #endif
   1194          
   1195            /* Build and send back the response */
   1196            MT_BuildAndSendZToolResponse(((uint8)MT_RPC_CMD_SRSP | (uint8)MT_RPC_SYS_UTIL), cmdId, 2, retArray );
   1197          }
   1198          
   1199          /***************************************************************************************************
   1200           * SUPPORT
   1201           ***************************************************************************************************/
   1202          
   1203          #ifdef AUTO_PEND
   1204          /***************************************************************************************************
   1205           * @fn      MT_UtilRevExtCpy
   1206           *
   1207           * @brief
   1208           *
   1209           *   Reverse-copy an extended address.
   1210           *
   1211           * @param   pDst - Pointer to data destination
   1212           * @param   pSrc - Pointer to data source
   1213           *
   1214           * @return  void
   1215           ***************************************************************************************************/
   1216          static void MT_UtilRevExtCpy( uint8 *pDst, uint8 *pSrc )
   1217          {
   1218            int8 i;
   1219          
   1220            for ( i = Z_EXTADDR_LEN - 1; i >= 0; i-- )
   1221            {
   1222              *pDst++ = pSrc[i];
   1223            }
   1224          }
   1225          
   1226          /***************************************************************************************************
   1227           * @fn      MT_UtilSpi2Addr
   1228           *
   1229           * @brief   Copy an address from an SPI message to an address struct.  The
   1230           *          addrMode in pAddr must already be set.
   1231           *
   1232           * @param   pDst - Pointer to address struct
   1233           * @param   pSrc - Pointer SPI message byte array
   1234           *
   1235           * @return  void
   1236           ***************************************************************************************************/
   1237          static void MT_UtilSpi2Addr( zAddrType_t *pDst, uint8 *pSrc )
   1238          {
   1239            if ( pDst->addrMode == Addr16Bit )
   1240            {
   1241              pDst->addr.shortAddr = osal_build_uint16( pSrc );
   1242            }
   1243            else if ( pDst->addrMode == Addr64Bit )
   1244            {
   1245              MT_UtilRevExtCpy( pDst->addr.extAddr, pSrc );
   1246            }
   1247          }
   1248          #endif // AUTO_PEND
   1249          
   1250          /***************************************************************************************************
   1251           * @fn      MT_UtilGpioRead
   1252           *
   1253           * @brief   Read values of all GPIOs (P0_0 -P2_4)
   1254           *
   1255           * @param   void
   1256           *
   1257           * @return  P0, P1, P2, P0DIR, P1DIR, P2DIR
   1258           ***************************************************************************************************/
   1259          static void MT_UtilGpioRead(uint8 *pBuf)
   1260          {
   1261          #if defined ( HAL_MCU_CC2530 )
   1262            uint8 rtrn[6] = {P0, P1, P2, P0DIR, P1DIR, P2DIR};
   1263          #else
   1264            uint8 rtrn[6] = {0, 0, 0, 0, 0, 0};
   1265          #endif
   1266            MT_BuildAndSendZToolResponse(((uint8)MT_RPC_CMD_SRSP | (uint8)MT_RPC_SYS_UTIL), MT_UTIL_GPIO_READ,
   1267              6, rtrn);
   1268          }
   1269          
   1270          /***************************************************************************************************
   1271           * @fn      MT_UtilGpioSetDirection
   1272           *
   1273           * @brief   Set the direction of a specific GPIO (P0_0 -P2_4)
   1274           *
   1275           * @param   port - 0, 1 or 2
   1276           * @param   bit - 0 - 7
   1277           * @param   direction - 0 for input, 1 for output
   1278           *
   1279           * @return  oldP0DIR, oldP1DIR, oldP2DIR, newP0DIR, newP1DIR, newP2DIR
   1280           ***************************************************************************************************/
   1281          static void MT_UtilGpioSetDirection(uint8 *pBuf)
   1282          {
   1283          #if defined ( HAL_MCU_CC2530 )
   1284            uint8 rtrn[6] = {P0DIR, P1DIR, P2DIR, 0, 0, 0};
   1285            uint8 port = pBuf[MT_RPC_POS_DAT0 + 0];
   1286            uint8 bit = pBuf[MT_RPC_POS_DAT0 + 1];
   1287            uint8 direction = pBuf[MT_RPC_POS_DAT0 + 2];
   1288          
   1289            if (direction == 0)
   1290            {
   1291              switch (port)
   1292              {
   1293                case 0:
   1294                  P0DIR &= (~ BV(bit));
   1295                  break;
   1296                case 1:
   1297                  P1DIR &= (~ BV(bit));
   1298                  break;
   1299                case 2:
   1300                  P2DIR &= (~ BV(bit));
   1301                  break;
   1302              }
   1303            }
   1304            else
   1305            {
   1306              switch (port)
   1307              {
   1308                case 0:
   1309                  P0DIR |= BV(bit);
   1310                  break;
   1311                case 1:
   1312                  P1DIR |= BV(bit);
   1313                  break;
   1314                case 2:
   1315                  P2DIR |= BV(bit);
   1316                  break;
   1317              }
   1318            }
   1319          
   1320            rtrn[3] = P0DIR;
   1321            rtrn[4] = P1DIR;
   1322            rtrn[5] = P2DIR;
   1323          #else
   1324            uint8 rtrn[6] = {0, 0, 0, 0, 0, 0};
   1325          #endif
   1326          
   1327            MT_BuildAndSendZToolResponse(((uint8)MT_RPC_CMD_SRSP | (uint8)MT_RPC_SYS_UTIL), MT_UTIL_GPIO_SET_DIRECTION,
   1328              6, rtrn);
   1329          }
   1330          
   1331          /***************************************************************************************************
   1332           * @fn      MT_UtilGpioWrite
   1333           *
   1334           * @brief   Write value of a specific GPIO (P0_0 -P2_4)
   1335           *
   1336           * @param   port - 0, 1 or 2
   1337           * @param   bit - 0 - 7
   1338           * @param   value - 0 or 1
   1339           *
   1340           * @return  oldP0, oldP1, oldP2, newP0, newP1, newP2, P0DIR, P1DIR, P2DIR
   1341           ***************************************************************************************************/
   1342          static void MT_UtilGpioWrite(uint8 *pBuf)
   1343          {
   1344          #if defined ( HAL_MCU_CC2530 )
   1345            uint8 rtrn[9] = {P0, P1, P2, 0, 0, 0, P0DIR, P1DIR, P2DIR};
   1346            uint8 port = pBuf[MT_RPC_POS_DAT0 + 0];
   1347            uint8 bit = pBuf[MT_RPC_POS_DAT0 + 1];
   1348            uint8 value = pBuf[MT_RPC_POS_DAT0 + 2];
   1349          
   1350            if (value == 0)
   1351            {
   1352              switch (port)
   1353              {
   1354                case 0:
   1355                  P0 &= (~ BV(bit));
   1356                  break;
   1357                case 1:
   1358                  P1 &= (~ BV(bit));
   1359                  break;
   1360                case 2:
   1361                  P2 &= (~ BV(bit));
   1362                  break;
   1363              }
   1364            }
   1365            else
   1366            {
   1367              switch (port)
   1368              {
   1369                case 0:
   1370                  P0 |= BV(bit);
   1371                  break;
   1372                case 1:
   1373                  P1 |= BV(bit);
   1374                  break;
   1375                case 2:
   1376                  P2 |= BV(bit);
   1377                  break;
   1378              }
   1379            }
   1380          
   1381            rtrn[3] = P0;
   1382            rtrn[4] = P1;
   1383            rtrn[5] = P2;
   1384          
   1385          #else
   1386            uint8 rtrn[9] = {0, 0, 0, 0, 0, 0, 0, 0, 0};
   1387          #endif
   1388          
   1389            MT_BuildAndSendZToolResponse(((uint8)MT_RPC_CMD_SRSP | (uint8)MT_RPC_SYS_UTIL), MT_UTIL_GPIO_WRITE,
   1390              9, rtrn);
   1391          }
   1392          
   1393          #if !defined NONWK
   1394          /**************************************************************************************************
   1395           * @fn      MT_UtilDataReq
   1396           *
   1397           * @brief   Process the MAC Data Request command.
   1398           *
   1399           * @param   pBuf - pointer to the received data
   1400           *
   1401           * @return  None
   1402          **************************************************************************************************/
   1403          static void MT_UtilDataReq(uint8 *pBuf)
   1404          {
   1405            uint8 rtrn = NwkPollReq(pBuf[MT_RPC_POS_DAT0]);
   1406            MT_BuildAndSendZToolResponse(((uint8)MT_RPC_CMD_SRSP | (uint8)MT_RPC_SYS_UTIL), MT_UTIL_DATA_REQ,
   1407                                                                                         1, &rtrn);
   1408          }
   1409          
   1410          /***************************************************************************************************
   1411           * @fn      MT_UtilAddrMgrEntryLookupExt
   1412           *
   1413           * @brief   Proxy the AddrMgrEntryLookupExt() function.
   1414           *
   1415           * @param   pBuf - pointer to the received buffer
   1416           *
   1417           * @return  void
   1418           ***************************************************************************************************/
   1419          static void MT_UtilAddrMgrEntryLookupExt(uint8 *pBuf)
   1420          {
   1421            uint8 nwkAddr[2];
   1422            AddrMgrEntry_t entry;
   1423            uint8 cmdId = pBuf[MT_RPC_POS_CMD1];
   1424            pBuf += MT_RPC_FRAME_HDR_SZ;
   1425          
   1426            osal_memcpy(entry.extAddr, pBuf, Z_EXTADDR_LEN);
   1427            (void)AddrMgrEntryLookupExt(&entry);
   1428          
   1429            nwkAddr[0] = LO_UINT16(entry.nwkAddr);
   1430            nwkAddr[1] = HI_UINT16(entry.nwkAddr);
   1431            MT_BuildAndSendZToolResponse(((uint8)MT_RPC_CMD_SRSP | (uint8)MT_RPC_SYS_UTIL),
   1432                                                 cmdId, sizeof(uint16), nwkAddr);
   1433          }
   1434          
   1435          /***************************************************************************************************
   1436           * @fn      MT_UtilAddrMgrEntryLookupNwk
   1437           *
   1438           * @brief   Proxy the AddrMgrEntryLookupNwk() function.
   1439           *
   1440           * @param   pBuf - pointer to the received buffer
   1441           *
   1442           * @return  void
   1443           ***************************************************************************************************/
   1444          static void MT_UtilAddrMgrEntryLookupNwk(uint8 *pBuf)
   1445          {
   1446            AddrMgrEntry_t entry;
   1447            uint8 cmdId = pBuf[MT_RPC_POS_CMD1];
   1448            pBuf += MT_RPC_FRAME_HDR_SZ;
   1449          
   1450            entry.nwkAddr = osal_build_uint16( pBuf );
   1451            (void)AddrMgrEntryLookupNwk(&entry);
   1452          
   1453            MT_BuildAndSendZToolResponse(((uint8)MT_RPC_CMD_SRSP | (uint8)MT_RPC_SYS_UTIL),
   1454                                                 cmdId, Z_EXTADDR_LEN, entry.extAddr);
   1455          }
   1456          
   1457          #if defined MT_SYS_KEY_MANAGEMENT
   1458          /***************************************************************************************************
   1459           * @fn      MT_UtilAPSME_LinkKeyDataGet
   1460           *
   1461           * @brief   Retrieves APS Link Key data from NV.
   1462           *
   1463           * @param   pBuf - pointer to the received buffer
   1464           *
   1465           * @return  void
   1466           ***************************************************************************************************/
   1467          static void MT_UtilAPSME_LinkKeyDataGet(uint8 *pBuf)
   1468          {
   1469            uint8 rsp[MT_APSME_LINKKEY_GET_RSP_LEN];
   1470            APSME_LinkKeyData_t *pData = NULL;
   1471            uint8 cmdId = pBuf[MT_RPC_POS_CMD1];
   1472            uint16 apsLinkKeyNvId;
   1473            uint32 *apsRxFrmCntr;
   1474            uint32 *apsTxFrmCntr;
   1475          
   1476            pBuf += MT_RPC_FRAME_HDR_SZ;
   1477          
   1478            *rsp = APSME_LinkKeyNVIdGet(pBuf, &apsLinkKeyNvId);
   1479          
   1480            if (SUCCESS == *rsp)
   1481            {
   1482              pData = (APSME_LinkKeyData_t *)osal_mem_alloc(sizeof(APSME_LinkKeyData_t));
   1483          
   1484              if (pData != NULL)
   1485              {
   1486                // retrieve key from NV
   1487                if ( osal_nv_read( apsLinkKeyNvId, 0,
   1488                                  sizeof(APSME_LinkKeyData_t), pData) == SUCCESS)
   1489          
   1490                {
   1491                  uint8 *ptr = rsp+1;
   1492                  apsRxFrmCntr = &ApsLinkKeyFrmCntr[apsLinkKeyNvId - ZCD_NV_APS_LINK_KEY_DATA_START].rxFrmCntr;
   1493                  apsTxFrmCntr = &ApsLinkKeyFrmCntr[apsLinkKeyNvId - ZCD_NV_APS_LINK_KEY_DATA_START].txFrmCntr;
   1494          
   1495                  (void)osal_memcpy(ptr, pData->key, SEC_KEY_LEN);
   1496                  ptr += SEC_KEY_LEN;
   1497                  osal_buffer_uint32( ptr, *apsTxFrmCntr );
   1498                  ptr += 4;
   1499                  osal_buffer_uint32( ptr, *apsRxFrmCntr );
   1500                }
   1501          
   1502                // clear copy of key in RAM
   1503                osal_memset( pData, 0x00, sizeof(APSME_LinkKeyData_t) );
   1504          
   1505                osal_mem_free(pData);
   1506              }
   1507            }
   1508            else
   1509            {
   1510              // set data key and counters 0xFF
   1511              osal_memset(&rsp[1], 0xFF, SEC_KEY_LEN + (MT_UTIL_FRM_CTR_LEN * 2));
   1512            }
   1513          
   1514            MT_BuildAndSendZToolResponse(((uint8)MT_RPC_CMD_SRSP | (uint8)MT_RPC_SYS_UTIL), cmdId,
   1515                                                 MT_APSME_LINKKEY_GET_RSP_LEN, rsp);
   1516          
   1517            // clear key data
   1518            osal_memset(rsp, 0x00, MT_APSME_LINKKEY_GET_RSP_LEN);
   1519          
   1520          }
   1521          
   1522          /***************************************************************************************************
   1523           * @fn      MT_UtilAPSME_LinkKeyNvIdGet
   1524           *
   1525           * @brief   Retrieves APS Link Key NV ID from the entry table.
   1526           *
   1527           * @param   pBuf - pointer to the received buffer
   1528           *
   1529           * @return  void
   1530           ***************************************************************************************************/
   1531          static void MT_UtilAPSME_LinkKeyNvIdGet(uint8 *pBuf)
   1532          {
   1533            uint8 rsp[MT_APSME_LINKKEY_NV_ID_GET_RSP_LEN];
   1534            uint8 cmdId = pBuf[MT_RPC_POS_CMD1];
   1535            uint16 apsLinkKeyNvId;
   1536          
   1537            pBuf += MT_RPC_FRAME_HDR_SZ;
   1538          
   1539            *rsp = APSME_LinkKeyNVIdGet(pBuf, &apsLinkKeyNvId);
   1540          
   1541            if (SUCCESS == *rsp)
   1542            {
   1543              rsp[1] = LO_UINT16(apsLinkKeyNvId);
   1544              rsp[2] = HI_UINT16(apsLinkKeyNvId);
   1545            }
   1546            else
   1547            {
   1548              // send failure response with invalid NV ID
   1549              osal_memset(&rsp[1], 0xFF, 2);
   1550            }
   1551          
   1552            MT_BuildAndSendZToolResponse(((uint8)MT_RPC_CMD_SRSP | (uint8)MT_RPC_SYS_UTIL), cmdId,
   1553                                                 MT_APSME_LINKKEY_NV_ID_GET_RSP_LEN, rsp);
   1554          }
   1555          #endif // MT_SYS_KEY_MANAGEMENT
   1556          
   1557          /***************************************************************************************************
   1558           * @fn      MT_UtilAPSME_RequestKeyCmd
   1559           *
   1560           * @brief   Send RequestKey command message to TC for a specific partner Address.
   1561           *
   1562           * @param   pBuf  - pointer to the received buffer
   1563           *
   1564           * @return  void
   1565           ***************************************************************************************************/
   1566          void MT_UtilAPSME_RequestKeyCmd(uint8 *pBuf)
   1567          {
   1568            uint8 cmdId;
   1569            uint8 partnerAddr[Z_EXTADDR_LEN];
   1570            uint8 retValue;
   1571          
   1572            // parse header
   1573            cmdId = pBuf[MT_RPC_POS_CMD1];
   1574            pBuf += MT_RPC_FRAME_HDR_SZ;
   1575          
   1576            /* PartnerAddress */
   1577            osal_memcpy(partnerAddr, pBuf, Z_EXTADDR_LEN);
   1578          
   1579            retValue = (uint8)ZDSecMgrRequestAppKey(partnerAddr);
   1580          
   1581            MT_BuildAndSendZToolResponse(((uint8)MT_RPC_CMD_SRSP | (uint8)MT_RPC_SYS_UTIL), cmdId, 1, &retValue);
   1582          }
   1583          
   1584          /***************************************************************************************************
   1585           * @fn      MT_UtilAssocCount
   1586           *
   1587           * @brief   Proxy the AssocCount() function.
   1588           *
   1589           * @param   pBuf - pointer to the received buffer
   1590           *
   1591           * @return  void
   1592           ***************************************************************************************************/
   1593          static void MT_UtilAssocCount(uint8 *pBuf)
   1594          {
   1595            uint16 cnt;
   1596            uint8 cmdId = pBuf[MT_RPC_POS_CMD1];
   1597            pBuf += MT_RPC_FRAME_HDR_SZ;
   1598          
   1599            cnt = AssocCount(pBuf[0], pBuf[1]);
   1600            pBuf[0] = LO_UINT16(cnt);
   1601            pBuf[1] = HI_UINT16(cnt);
   1602          
   1603            MT_BuildAndSendZToolResponse(((uint8)MT_RPC_CMD_SRSP | (uint8)MT_RPC_SYS_UTIL), cmdId, 2, pBuf);
   1604          }
   1605          
   1606          /***************************************************************************************************
   1607           * @fn      MT_UtilAssocFindDevice
   1608           *
   1609           * @brief   Get an associated device by index.
   1610           *
   1611           * @param   pBuf - pointer to the received buffer
   1612           *
   1613           * @return  void
   1614           ***************************************************************************************************/
   1615          static void MT_UtilAssocFindDevice(uint8 *pBuf)
   1616          {
   1617            uint8 cmdId = pBuf[MT_RPC_POS_CMD1];
   1618            uint8 buf[sizeof(associated_devices_t)];
   1619          
   1620            packDev_t(buf, AssocFindDevice(pBuf[MT_RPC_FRAME_HDR_SZ]));
   1621            MT_BuildAndSendZToolResponse(((uint8)MT_RPC_CMD_SRSP | (uint8)MT_RPC_SYS_UTIL), cmdId,
   1622                                                 sizeof(associated_devices_t), buf);
   1623          }
   1624          
   1625          /***************************************************************************************************
   1626           * @fn      MT_UtilAssocGetWithAddress
   1627           *
   1628           * @brief   Get an associated device by address.
   1629           *
   1630           * @param   pBuf - pointer to the received buffer
   1631           *
   1632           * @return  void
   1633           ***************************************************************************************************/
   1634          static void MT_UtilAssocGetWithAddress(uint8 *pBuf)
   1635          {
   1636            extern associated_devices_t *AssocGetWithAddress(uint8 *extAddr, uint16 shortAddr);
   1637            uint8 cmdId = pBuf[MT_RPC_POS_CMD1];
   1638            uint8 buf[sizeof(associated_devices_t)];
   1639          
   1640            pBuf += MT_RPC_FRAME_HDR_SZ;
   1641            packDev_t(buf, AssocGetWithAddress(((AddrMgrExtAddrValid(pBuf)) ? pBuf : NULL),
   1642                                            BUILD_UINT16(pBuf[Z_EXTADDR_LEN], pBuf[Z_EXTADDR_LEN+1])));
   1643          
   1644            MT_BuildAndSendZToolResponse(((uint8)MT_RPC_CMD_SRSP | (uint8)MT_RPC_SYS_UTIL), cmdId,
   1645                                                 sizeof(associated_devices_t), buf);
   1646          }
   1647          
   1648          /***************************************************************************************************
   1649           * @fn      MT_UtilBindAddEntry
   1650           *
   1651           * @brief   Add Binding Entry into Local Table.
   1652           *
   1653           * @param   pBuf - pointer to the received buffer
   1654           *
   1655           * @return  void
   1656           ***************************************************************************************************/
   1657          static void MT_UtilBindAddEntry(uint8 *pBuf)
   1658          {
   1659            uint8 srcEp;
   1660            zAddrType_t dstAddr;
   1661            uint8 dstEp;
   1662            uint8 numClusterIds;
   1663            uint16 *clusterIds;
   1664            uint8 buf[sizeof(BindingEntry_t)];
   1665            uint8 cmdId = pBuf[MT_RPC_POS_CMD1];
   1666            pBuf += MT_RPC_FRAME_HDR_SZ;
   1667          
   1668            // Initialize the return buffer
   1669            osal_memset( buf, 0xFF, sizeof(BindingEntry_t) );
   1670            buf[2] = 0xFE;    // set the default value of INVALID_NODE_ADDR
   1671            buf[3] = 0xFF;    // set the default value of INVALID_NODE_ADDR
   1672          
   1673            srcEp = *pBuf++;
   1674          
   1675            // Destination Address mode
   1676            dstAddr.addrMode = *pBuf++;
   1677          
   1678            // Destination Address
   1679            if ( dstAddr.addrMode == Addr64Bit )
   1680            {
   1681              uint8 *ptr; // Use this additional pointer because *pBuf is incremented later for both cases
   1682          
   1683              ptr = pBuf;
   1684              osal_cpyExtAddr( dstAddr.addr.extAddr, ptr );
   1685            }
   1686            else
   1687            {
   1688              dstAddr.addr.shortAddr = osal_build_uint16( pBuf );
   1689            }
   1690            // The short address occupies LSB two bytes
   1691            pBuf += Z_EXTADDR_LEN;
   1692          
   1693            // DstEPInt
   1694            dstEp = *pBuf++;
   1695          
   1696            numClusterIds = *pBuf++;
   1697          
   1698            if ( numClusterIds > 0 )
   1699            {
   1700              // copy list of clusters
   1701              clusterIds = (uint16 *)osal_mem_alloc( numClusterIds * sizeof(uint16) );
   1702              osal_memcpy( clusterIds, pBuf, numClusterIds * sizeof(uint16));
   1703          
   1704              if ( clusterIds != NULL )
   1705              {
   1706                // The response to MT interface has to be pack into buf
   1707                packBindEntry_t( buf, bindAddEntry( srcEp, &dstAddr, dstEp, numClusterIds, clusterIds ));
   1708          
   1709                osal_mem_free( clusterIds );
   1710              }
   1711            }
   1712          
   1713            MT_BuildAndSendZToolResponse( ( (uint8)MT_RPC_CMD_SRSP | (uint8)MT_RPC_SYS_UTIL ),
   1714                                          cmdId, sizeof(BindingEntry_t), buf );
   1715          }
   1716          
   1717          /***************************************************************************************************
   1718           * @fn      packDev_t
   1719           *
   1720           * @brief   Pack an associated_devices_t structure into a byte buffer (pack INVALID_NODE_ADDR if
   1721           *          the pDev parameter is NULL).
   1722           *
   1723           * @param   pBuf - pointer to the buffer into which to pack the structure.
   1724           * @param   pDev - pointer to the structure.
   1725           *
   1726           * @return  void
   1727           ***************************************************************************************************/
   1728          static void packDev_t(uint8 *pBuf, associated_devices_t *pDev)
   1729          {
   1730            if (NULL == pDev)
   1731            {
   1732              uint16 rtrn = INVALID_NODE_ADDR;
   1733              *pBuf++ = LO_UINT16(rtrn);
   1734              *pBuf++ = HI_UINT16(rtrn);
   1735            }
   1736            else
   1737            {
   1738              *pBuf++ = LO_UINT16(pDev->shortAddr);
   1739              *pBuf++ = HI_UINT16(pDev->shortAddr);
   1740              *pBuf++ = LO_UINT16(pDev->addrIdx);
   1741              *pBuf++ = HI_UINT16(pDev->addrIdx);
   1742              *pBuf++ = pDev->nodeRelation;
   1743              *pBuf++ = pDev->devStatus;
   1744              *pBuf++ = pDev->assocCnt;
   1745              *pBuf++ = pDev->age;
   1746              *pBuf++ = pDev->linkInfo.txCounter;
   1747              *pBuf++ = pDev->linkInfo.txCost;
   1748              *pBuf++ = pDev->linkInfo.rxLqi;
   1749              *pBuf++ = pDev->linkInfo.inKeySeqNum;
   1750              osal_buffer_uint32( pBuf, pDev->linkInfo.inFrmCntr );
   1751              *pBuf += 4;
   1752              *pBuf++ = LO_UINT16(pDev->linkInfo.txFailure);
   1753              *pBuf++ = HI_UINT16(pDev->linkInfo.txFailure);
   1754            }
   1755          }
   1756          
   1757          /***************************************************************************************************
   1758           * @fn      packBindEntry_t
   1759           *
   1760           * @brief   Pack a BindingEntry_t structure into a byte buffer (pack INVALID_NODE_ADDR
   1761           *          as dstIdx if the pBind parameter is NULL).
   1762           *
   1763           * @param   pBuf - pointer to the buffer into which to pack the structure.
   1764           * @param   pBind - pointer to the structure.
   1765           *
   1766           * @return  void
   1767           ***************************************************************************************************/
   1768          static void packBindEntry_t(uint8 *pBuf, BindingEntry_t *pBind)
   1769          {
   1770            if ( NULL == pBind )
   1771            {
   1772              uint16 rtrn = INVALID_NODE_ADDR;
   1773              *pBuf++ = 0xFF;
   1774              *pBuf++ = 0xFF;
   1775              *pBuf++ = LO_UINT16(rtrn);
   1776              *pBuf++ = HI_UINT16(rtrn);
   1777              *pBuf++ = 0xFF;
   1778              *pBuf++ = 0xFF;
   1779          
   1780            }
   1781            else
   1782            {
   1783              *pBuf++ = pBind->srcEP;
   1784              *pBuf++ = pBind->dstGroupMode;
   1785              *pBuf++ = LO_UINT16( pBind->dstIdx );
   1786              *pBuf++ = HI_UINT16( pBind->dstIdx );
   1787              *pBuf++ = pBind->dstEP;
   1788              *pBuf++ = pBind->numClusterIds;
   1789          
   1790              osal_memcpy( pBuf, pBind->clusterIdList, pBind->numClusterIds * sizeof(uint16));
   1791            }
   1792          }
   1793          
   1794          #if defined ZCL_KEY_ESTABLISH
   1795          /***************************************************************************************************
   1796           * @fn      MT_UtilzclGeneral_KeyEstablish_InitiateKeyEstablishment
   1797           *
   1798           * @brief   Proxy the zclKE_StartDirect() function.
   1799           *
   1800           * @param   pBuf - pointer to the received buffer
   1801           *
   1802           * @return  void
   1803           ***************************************************************************************************/
   1804          static void MT_UtilzclGeneral_KeyEstablish_InitiateKeyEstablishment(uint8 *pBuf)
   1805          {
   1806            afAddrType_t partnerAddr;
   1807            uint8 cmdId = pBuf[MT_RPC_POS_CMD1];
   1808            pBuf += MT_RPC_FRAME_HDR_SZ;
   1809          
   1810            partnerAddr.panId = 0;  // Not an inter-pan message.
   1811            partnerAddr.endPoint = pBuf[2];
   1812            partnerAddr.addrMode = afAddr16Bit;
   1813            partnerAddr.addr.shortAddr = osal_build_uint16( &pBuf[4] );
   1814          
   1815            zcl_key_establish_task_id = pBuf[0];
   1816          
   1817            *pBuf = zclKE_StartDirect(MT_TaskID, &partnerAddr, pBuf[1], pBuf[3]);
   1818          
   1819            MT_BuildAndSendZToolResponse(((uint8)MT_RPC_CMD_SRSP | (uint8)MT_RPC_SYS_UTIL), cmdId, 1, pBuf);
   1820          }
   1821          
   1822          /***************************************************************************************************
   1823           * @fn      MT_UtilzclGeneral_KeyEstablishment_ECDSASign
   1824           *
   1825           * @brief   Proxy the zclGeneral_KeyEstablishment_ECDSASign() function.
   1826           *
   1827           * @param   pBuf - pointer to the received buffer
   1828           *
   1829           * @return  void
   1830           ***************************************************************************************************/
   1831          static void MT_UtilzclGeneral_KeyEstablishment_ECDSASign(uint8 *pBuf)
   1832          {
   1833          #if defined ZCL_KEY_ESTABLISH
   1834            uint8 *output;
   1835            uint8 signLen;
   1836            uint8 cmdId = pBuf[MT_RPC_POS_CMD1];
   1837            pBuf += MT_RPC_FRAME_HDR_SZ;
   1838          
   1839            signLen = zclKE_ECDSASignGetLen(ZCL_KE_SUITE_1);
   1840          
   1841            output = osal_mem_alloc(signLen+1);
   1842          
   1843            if (NULL == output)
   1844            {
   1845              *pBuf = FAILURE;
   1846              MT_BuildAndSendZToolResponse(((uint8)MT_RPC_CMD_SRSP | (uint8)MT_RPC_SYS_UTIL), cmdId, 1, pBuf);
   1847            }
   1848            else
   1849            {
   1850              *output = zclKE_ECDSASign(ZCL_KE_SUITE_1, pBuf+1, *pBuf, output+1);
   1851              MT_BuildAndSendZToolResponse(((uint8)MT_RPC_CMD_SRSP | (uint8)MT_RPC_SYS_UTIL), cmdId,
   1852                                                   signLen+1, output);
   1853              osal_mem_free(output);
   1854            }
   1855          #endif
   1856          }
   1857          
   1858          /***************************************************************************************************
   1859           * @fn      MT_UtilKeyEstablishInd
   1860           *
   1861           * @brief   Proxy the ZCL_KEY_ESTABLISH_IND command.
   1862           *
   1863           * @param   pInd - Pointer to a zclKE_StatusInd_t structure.
   1864           *
   1865           * @return  None
   1866           ***************************************************************************************************/
   1867          void MT_UtilKeyEstablishInd(zclKE_StatusInd_t *pInd)
   1868          {
   1869            uint8 msg[6];
   1870          
   1871            msg[0] = zcl_key_establish_task_id;
   1872            msg[1] = pInd->hdr.event;
   1873            msg[2] = pInd->hdr.status;
   1874            msg[3] = pInd->waitTime;
   1875            msg[4] = LO_UINT16(pInd->suites);
   1876            msg[5] = HI_UINT16(pInd->suites);
   1877          
   1878            MT_BuildAndSendZToolResponse(((uint8)MT_RPC_CMD_AREQ | (uint8)MT_RPC_SYS_UTIL),
   1879                                                 MT_UTIL_ZCL_KEY_ESTABLISH_IND, 6, msg);
   1880          }
   1881          #endif
   1882          
   1883          /***************************************************************************************************
   1884           * @fn      MT_UtilSync
   1885           *
   1886           * @brief   Process the MT_UTIL_SYNC command
   1887           *
   1888           * @param   None
   1889           *
   1890           * @return  None
   1891           ***************************************************************************************************/
   1892          static void MT_UtilSync(void)
   1893          {
   1894           MT_BuildAndSendZToolResponse(((uint8)MT_RPC_CMD_AREQ|(uint8)MT_RPC_SYS_UTIL),MT_UTIL_SYNC_REQ,0,0);
   1895          }
   1896          
   1897          /***************************************************************************************************
   1898           * @fn          MT_UtilGetDevNwkInfo
   1899           *
   1900           * @brief       Handle the Util get device network information.
   1901           *
   1902           * @param       pBuf - Pointer to the received message data.
   1903           *
   1904           * @return      NULL
   1905           ***************************************************************************************************/
   1906          static void MT_UtilGetDevNwkInfo( uint8 *pBuf )
   1907          {
   1908            uint8 buf[6];
   1909            uint8 *pMsg;
   1910          
   1911            pMsg = buf;
   1912          
   1913            *pMsg++ = LO_UINT16( _NIB.nwkDevAddress );
   1914            *pMsg++ = HI_UINT16( _NIB.nwkDevAddress );
   1915            *pMsg++ = LO_UINT16( _NIB.nwkPanId );
   1916            *pMsg++ = HI_UINT16( _NIB.nwkPanId );
   1917            *pMsg++ = _NIB.SequenceNum;
   1918            *pMsg++ = _NIB.nwkLogicalChannel;
   1919          
   1920            MT_BuildAndSendZToolResponse(((uint8)MT_RPC_CMD_SRSP | (uint8)MT_RPC_SYS_UTIL),
   1921                                                 MT_UTIL_GET_DEV_NWK_INFO, 6, buf );
   1922          }
   1923          
   1924          /***************************************************************************************************
   1925           * @fn          MT_UtiSetDevNwkInfo
   1926           *
   1927           * @brief       Handle the Util set device network information.
   1928           *
   1929           * @param       pBuf - Pointer to the received message data.
   1930           *
   1931           * @return      NULL
   1932           ***************************************************************************************************/
   1933          void MT_UtilSetDevNwkInfo( uint8 *pBuf )
   1934          {
   1935            uint8 *pMsg;
   1936            uint8 status = 0;
   1937            
   1938            pBuf += MT_RPC_FRAME_HDR_SZ;
   1939            pMsg = pBuf;
   1940          
   1941            _NIB.nwkDevAddress = osal_build_uint16(pMsg);
   1942            pMsg += 2;
   1943            _NIB.nwkPanId = osal_build_uint16(pMsg);
   1944            pMsg += 2;
   1945            _NIB.SequenceNum = *pMsg++;
   1946            _NIB.nwkLogicalChannel = *pMsg++;
   1947          
   1948            MT_BuildAndSendZToolResponse(((uint8)MT_RPC_CMD_SRSP | (uint8)MT_RPC_SYS_UTIL),
   1949                                                 MT_UTIL_GET_DEV_NWK_INFO, 1, &status );
   1950          }
   1951          #endif /* !defined NONWK */
   1952          #endif /* MT_UTIL_FUNC */
   1953          /**************************************************************************************************
   1954           **************************************************************************************************/


 

 


Errors: none
Warnings: none
