###############################################################################
#
# IAR C/C++ Compiler V10.10.1.4655 for 8051               24/Dec/2021  00:11:11
# Copyright 2004-2017 IAR Systems AB.
# Standalone license - IAR Embedded Workbench for 8051
#
#    Core               =  plain
#    Code model         =  banked
#    Data model         =  large
#    Calling convention =  xdata reentrant
#    Constant location  =  data_rom
#    Dptr setup         =  1,16
#                          
#    Source file        =  
#        C:\TI\Z-Stack 3.0.2\Components\stack\nwk\nwk_globals.c
#    Command line       =  
#        -f C:\Users\artkh\AppData\Local\Temp\EW7091.tmp ("C:\TI\Z-Stack
#        3.0.2\Components\stack\nwk\nwk_globals.c" -D NWK_MAX_DEVICE_LIST=5 -D
#        ZDSECMGR_TC_DEVICE_MAX=15 -D SECURE=1 -D TC_LINKKEY_JOIN -D NV_INIT -D
#        NV_RESTORE -D xZTOOL_P1 -D xMT_TASK -D xMT_APP_FUNC -D xMT_SYS_FUNC -D
#        xMT_ZDO_FUNC -D xMT_ZDO_MGMT -D xMT_APP_CNF_FUNC -D LEGACY_LCD_DEBUG
#        -D LCD_SUPPORTED=DEBUG -D MULTICAST_ENABLED=FALSE -D ZCL_READ -D
#        ZCL_WRITE -D ZCL_BASIC -D ZCL_IDENTIFY -D ZCL_SCENES -D ZCL_GROUPS -lC
#        "C:\TI\Z-Stack
#        3.0.2\Projects\zstack\HomeAutomation\GenericApp_TEST\CC2531\RouterEB\List"
#        -lA "C:\TI\Z-Stack
#        3.0.2\Projects\zstack\HomeAutomation\GenericApp_TEST\CC2531\RouterEB\List"
#        --diag_suppress Pe001,Pa010 -o "C:\TI\Z-Stack
#        3.0.2\Projects\zstack\HomeAutomation\GenericApp_TEST\CC2531\RouterEB\Obj"
#        -e --debug --core=plain --dptr=16,1 --data_model=large
#        --code_model=banked --calling_convention=xdata_reentrant
#        --place_constants=data_rom --nr_virtual_regs 16 -f "C:\TI\Z-Stack
#        3.0.2\Projects\zstack\HomeAutomation\GenericApp_TEST\CC2531\..\..\..\Tools\CC2530DB\f8wRouter.cfg"
#        (-DCPU32MHZ -DROOT=__near_func -DMAC_CFG_APP_PENDING_QUEUE=TRUE
#        -DMAC_CFG_TX_DATA_MAX=5 -DMAC_CFG_TX_MAX=8 -DMAC_CFG_RX_MAX=5
#        -DRTR_NWK) -f "C:\TI\Z-Stack
#        3.0.2\Projects\zstack\HomeAutomation\GenericApp_TEST\CC2531\..\..\..\Tools\CC2530DB\f8wConfig.cfg"
#        (-DZIGBEEPRO -DSECURE=1 -DZG_SECURE_DYNAMIC=0 -DREFLECTOR
#        -DDEFAULT_CHANLIST=0x07FFF800 -DZDAPP_CONFIG_PAN_ID=0xFFFF
#        -DNWK_START_DELAY=100 -DEXTENDED_JOINING_RANDOM_MASK=0x007F
#        -DBEACON_REQUEST_DELAY=100 -DBEACON_REQ_DELAY_MASK=0x00FF
#        -DLINK_STATUS_JITTER_MASK=0x007F -DROUTE_EXPIRY_TIME=30
#        -DAPSC_ACK_WAIT_DURATION_POLLED=3000 -DNWK_INDIRECT_MSG_TIMEOUT=7
#        -DMAX_RREQ_ENTRIES=8 -DAPSC_MAX_FRAME_RETRIES=3
#        -DNWK_MAX_DATA_RETRIES=2 -DMAX_POLL_FAILURE_RETRIES=2 -DMAX_BCAST=9
#        -DAPS_MAX_GROUPS=16 -DMAX_RTG_ENTRIES=40 -DNWK_MAX_BINDING_ENTRIES=4
#        -DMAX_BINDING_CLUSTER_IDS=4 -DDEFAULT_KEY={0} -DMAC_MAX_FRAME_SIZE=116
#        -DZDNWKMGR_MIN_TRANSMISSIONS=20 "-DCONST=const __code"
#        -DGENERIC=__generic -DRFD_RCVC_ALWAYS_ON=FALSE -DPOLL_RATE=1000
#        -DQUEUED_POLL_RATE=100 -DRESPONSE_POLL_RATE=100 -DREJOIN_POLL_RATE=440
#        -DREJOIN_BACKOFF=900000 -DREJOIN_SCAN=900000 -DENABLE_LED4_DISABLE_S1)
#        -f "C:\TI\Z-Stack
#        3.0.2\Projects\zstack\HomeAutomation\GenericApp_TEST\CC2531\..\..\..\Tools\CC2530DB\f8wZCL.cfg"
#        -I "C:\TI\Z-Stack
#        3.0.2\Projects\zstack\HomeAutomation\GenericApp_TEST\CC2531\" -I
#        "C:\TI\Z-Stack
#        3.0.2\Projects\zstack\HomeAutomation\GenericApp_TEST\CC2531\..\Source\"
#        -I "C:\TI\Z-Stack
#        3.0.2\Projects\zstack\HomeAutomation\GenericApp_TEST\CC2531\..\..\Source\"
#        -I "C:\TI\Z-Stack
#        3.0.2\Projects\zstack\HomeAutomation\GenericApp_TEST\CC2531\..\..\..\ZMain\TI2530DB\"
#        -I "C:\TI\Z-Stack
#        3.0.2\Projects\zstack\HomeAutomation\GenericApp_TEST\CC2531\..\..\..\..\..\Components\hal\include\"
#        -I "C:\TI\Z-Stack
#        3.0.2\Projects\zstack\HomeAutomation\GenericApp_TEST\CC2531\..\..\..\..\..\Components\hal\target\CC2530USB\"
#        -I "C:\TI\Z-Stack
#        3.0.2\Projects\zstack\HomeAutomation\GenericApp_TEST\CC2531\..\..\..\..\..\Components\hal\target\CC2530USB\usb\library\"
#        -I "C:\TI\Z-Stack
#        3.0.2\Projects\zstack\HomeAutomation\GenericApp_TEST\CC2531\..\..\..\..\..\Components\hal\target\CC2530USB\usb\library\cc2531\"
#        -I "C:\TI\Z-Stack
#        3.0.2\Projects\zstack\HomeAutomation\GenericApp_TEST\CC2531\..\..\..\..\..\Components\hal\target\CC2530USB\usb\class_cdc\"
#        -I "C:\TI\Z-Stack
#        3.0.2\Projects\zstack\HomeAutomation\GenericApp_TEST\CC2531\..\..\..\..\..\Components\mac\include\"
#        -I "C:\TI\Z-Stack
#        3.0.2\Projects\zstack\HomeAutomation\GenericApp_TEST\CC2531\..\..\..\..\..\Components\mac\high_level\"
#        -I "C:\TI\Z-Stack
#        3.0.2\Projects\zstack\HomeAutomation\GenericApp_TEST\CC2531\..\..\..\..\..\Components\mac\low_level\srf04\"
#        -I "C:\TI\Z-Stack
#        3.0.2\Projects\zstack\HomeAutomation\GenericApp_TEST\CC2531\..\..\..\..\..\Components\mac\low_level\srf04\single_chip\"
#        -I "C:\TI\Z-Stack
#        3.0.2\Projects\zstack\HomeAutomation\GenericApp_TEST\CC2531\..\..\..\..\..\Components\mt\"
#        -I "C:\TI\Z-Stack
#        3.0.2\Projects\zstack\HomeAutomation\GenericApp_TEST\CC2531\..\..\..\..\..\Components\osal\include\"
#        -I "C:\TI\Z-Stack
#        3.0.2\Projects\zstack\HomeAutomation\GenericApp_TEST\CC2531\..\..\..\..\..\Components\services\saddr\"
#        -I "C:\TI\Z-Stack
#        3.0.2\Projects\zstack\HomeAutomation\GenericApp_TEST\CC2531\..\..\..\..\..\Components\services\sdata\"
#        -I "C:\TI\Z-Stack
#        3.0.2\Projects\zstack\HomeAutomation\GenericApp_TEST\CC2531\..\..\..\..\..\Components\stack\af\"
#        -I "C:\TI\Z-Stack
#        3.0.2\Projects\zstack\HomeAutomation\GenericApp_TEST\CC2531\..\..\..\..\..\Components\stack\bdb\"
#        -I "C:\TI\Z-Stack
#        3.0.2\Projects\zstack\HomeAutomation\GenericApp_TEST\CC2531\..\..\..\..\..\Components\stack\nwk\"
#        -I "C:\TI\Z-Stack
#        3.0.2\Projects\zstack\HomeAutomation\GenericApp_TEST\CC2531\..\..\..\..\..\Components\stack\bdb\"
#        -I "C:\TI\Z-Stack
#        3.0.2\Projects\zstack\HomeAutomation\GenericApp_TEST\CC2531\..\..\..\..\..\Components\stack\gp\"
#        -I "C:\TI\Z-Stack
#        3.0.2\Projects\zstack\HomeAutomation\GenericApp_TEST\CC2531\..\..\..\..\..\Components\stack\sapi\"
#        -I "C:\TI\Z-Stack
#        3.0.2\Projects\zstack\HomeAutomation\GenericApp_TEST\CC2531\..\..\..\..\..\Components\stack\sec\"
#        -I "C:\TI\Z-Stack
#        3.0.2\Projects\zstack\HomeAutomation\GenericApp_TEST\CC2531\..\..\..\..\..\Components\stack\sys\"
#        -I "C:\TI\Z-Stack
#        3.0.2\Projects\zstack\HomeAutomation\GenericApp_TEST\CC2531\..\..\..\..\..\Components\stack\zcl\"
#        -I "C:\TI\Z-Stack
#        3.0.2\Projects\zstack\HomeAutomation\GenericApp_TEST\CC2531\..\..\..\..\..\Components\stack\zdo\"
#        -I "C:\TI\Z-Stack
#        3.0.2\Projects\zstack\HomeAutomation\GenericApp_TEST\CC2531\..\..\..\..\..\Components\zmac\"
#        -I "C:\TI\Z-Stack
#        3.0.2\Projects\zstack\HomeAutomation\GenericApp_TEST\CC2531\..\..\..\..\..\Components\zmac\f8w\"
#        -Ohz --require_prototypes)
#    Locale             =  English_United States.1252
#    List file          =  
#        C:\TI\Z-Stack
#        3.0.2\Projects\zstack\HomeAutomation\GenericApp_TEST\CC2531\RouterEB\List\nwk_globals.lst
#    Object file        =  
#        C:\TI\Z-Stack
#        3.0.2\Projects\zstack\HomeAutomation\GenericApp_TEST\CC2531\RouterEB\Obj\nwk_globals.r51
#
###############################################################################

C:\TI\Z-Stack 3.0.2\Components\stack\nwk\nwk_globals.c
      1          /**************************************************************************************************
      2            Filename:       nwk_globals.c
      3            Revised:        $Date: 2015-01-08 16:32:12 -0800 (Thu, 08 Jan 2015) $
      4            Revision:       $Revision: 41678 $
      5          
      6            Description:    User definable Network Parameters.
      7          
      8          
      9            Copyright 2004-2015 Texas Instruments Incorporated. All rights reserved.
     10          
     11            IMPORTANT: Your use of this Software is limited to those specific rights
     12            granted under the terms of a software license agreement between the user
     13            who downloaded the software, his/her employer (which must be your employer)
     14            and Texas Instruments Incorporated (the "License"). You may not use this
     15            Software unless you agree to abide by the terms of the License. The License
     16            limits your use, and you acknowledge, that the Software may not be modified,
     17            copied or distributed unless embedded on a Texas Instruments microcontroller
     18            or used solely and exclusively in conjunction with a Texas Instruments radio
     19            frequency transceiver, which is integrated into your product. Other than for
     20            the foregoing purpose, you may not use, reproduce, copy, prepare derivative
     21            works of, modify, distribute, perform, display or sell this Software and/or
     22            its documentation for any purpose.
     23          
     24            YOU FURTHER ACKNOWLEDGE AND AGREE THAT THE SOFTWARE AND DOCUMENTATION ARE
     25            PROVIDED "AS IS" WITHOUT WARRANTY OF ANY KIND, EITHER EXPRESS OR IMPLIED,
     26            INCLUDING WITHOUT LIMITATION, ANY WARRANTY OF MERCHANTABILITY, TITLE,
     27            NON-INFRINGEMENT AND FITNESS FOR A PARTICULAR PURPOSE. IN NO EVENT SHALL
     28            TEXAS INSTRUMENTS OR ITS LICENSORS BE LIABLE OR OBLIGATED UNDER CONTRACT,
     29            NEGLIGENCE, STRICT LIABILITY, CONTRIBUTION, BREACH OF WARRANTY, OR OTHER
     30            LEGAL EQUITABLE THEORY ANY DIRECT OR INDIRECT DAMAGES OR EXPENSES
     31            INCLUDING BUT NOT LIMITED TO ANY INCIDENTAL, SPECIAL, INDIRECT, PUNITIVE
     32            OR CONSEQUENTIAL DAMAGES, LOST PROFITS OR LOST DATA, COST OF PROCUREMENT
     33            OF SUBSTITUTE GOODS, TECHNOLOGY, SERVICES, OR ANY CLAIMS BY THIRD PARTIES
     34            (INCLUDING BUT NOT LIMITED TO ANY DEFENSE THEREOF), OR OTHER SIMILAR COSTS.
     35          
     36            Should you have any questions regarding your right to use this Software,
     37            contact Texas Instruments Incorporated at www.TI.com.
     38          **************************************************************************************************/
     39          
     40          /*********************************************************************
     41           * INCLUDES
     42           */
     43          #include "ZComDef.h"
     44          #include "OSAL.h"
     45          #include "OSAL_Nv.h"
     46          #include "AddrMgr.h"
     47          #include "AssocList.h"
     48          #include "BindingTable.h"
     49          #include "nwk_util.h"
     50          #include "nwk_globals.h"
     51          #include "APS.h"
     52          #include "ssp.h"
     53          #include "rtg.h"
     54          #include "ZDConfig.h"
     55          #include "ZGlobals.h"
     56          #include "ZDApp.h"
     57          #include "ZDSecMgr.h"
     58          
     59          #if defined ( LCD_SUPPORTED )
     60            #include "OnBoard.h"
     61          #endif
     62          
     63          /* HAL */
     64          #include "hal_lcd.h"
     65          
     66          /*********************************************************************
     67           * MACROS
     68           */
     69          
     70          /*********************************************************************
     71           * CONSTANTS
     72           */
     73          // Maximums for the data buffer queue
     74          #ifdef MODKAMRU_V3
     75          #define NWK_MAX_DATABUFS_WAITING    180     // Waiting to be sent to MAC
     76          #define NWK_MAX_DATABUFS_SCHEDULED  150     // Timed messages to be sent
     77          #define NWK_MAX_DATABUFS_CONFIRMED  150     // Held after MAC confirms
     78          #define NWK_MAX_DATABUFS_TOTAL      255    // Total number of buffers
     79          #else
     80          #define NWK_MAX_DATABUFS_WAITING    8     // Waiting to be sent to MAC
     81          #define NWK_MAX_DATABUFS_SCHEDULED  5     // Timed messages to be sent
     82          #define NWK_MAX_DATABUFS_CONFIRMED  5     // Held after MAC confirms
     83          #define NWK_MAX_DATABUFS_TOTAL      12    // Total number of buffers
     84          #endif
     85          
     86          // 1-255 (0 -> 256) X RTG_TIMER_INTERVAL
     87          // A known shortcoming is that when a message is enqueued as "hold" for a
     88          // sleeping device, the timer tick may have counted down to 1, so that msg
     89          // will not be held as long as expected. If NWK_INDIRECT_MSG_TIMEOUT is set to 1
     90          // the hold time will vary randomly from 0 - CNT_RTG_TIMER ticks.
     91          // So the hold time will vary within this interval:
     92          // { (NWK_INDIRECT_MSG_TIMEOUT-1)*CNT_RTG_TIMER,
     93          //                                    NWK_INDIRECT_MSG_TIMEOUT*CNT_RTG_TIMER }
     94          
     95           #define NWK_INDIRECT_CNT_RTG_TMR    60
     96          // To hold msg for sleeping end devices for 30 secs:
     97          // #define CNT_RTG_TIMER            1
     98          // #define NWK_INDIRECT_MSG_TIMEOUT 30
     99          // To hold msg for sleeping end devices for 30 mins:
    100          // #define CNT_RTG_TIMER            60
    101          // #define NWK_INDIRECT_MSG_TIMEOUT 30
    102          // To hold msg for sleeping end devices for 30 days:
    103          // #define CNT_RTG_TIMER            60
    104          // #define NWK_INDIRECT_MSG_TIMEOUT (30 * 24 * 60)
    105          // Maximum msgs to hold per associated device.
    106          #define NWK_INDIRECT_MSG_MAX_PER    3
    107          // Maximum total msgs to hold for all associated devices.
    108          #define NWK_INDIRECT_MSG_MAX_ALL    \
    109                                      (NWK_MAX_DATABUFS_TOTAL - NWK_INDIRECT_MSG_MAX_PER)
    110          
    111          /*********************************************************************
    112           * TYPEDEFS
    113           */
    114          
    115          /*********************************************************************
    116           * NWK GLOBAL VARIABLES
    117           */
    118          
    119          // Variables for MAX list size

   \                                 In  segment CODE_C, align 1
    120          CONST deviceTableIndex_t gNWK_MAX_DEVICE_LIST = NWK_MAX_DEVICES;
   \                     gNWK_MAX_DEVICE_LIST:
   \   000000   06           DB 6
    121          
    122          // Variables for MAX Sleeping End Devices

   \                                 In  segment CODE_C, align 1
    123          CONST uint8 gNWK_MAX_SLEEPING_END_DEVICES = NWK_MAX_DEVICES - NWK_MAX_ROUTERS;
   \                     gNWK_MAX_SLEEPING_END_DEVICES:
   \   000000   00           DB 0
    124          
    125          // Variables for MAX data buffer levels

   \                                 In  segment CODE_C, align 1
    126          CONST uint8 gNWK_MAX_DATABUFS_WAITING = NWK_MAX_DATABUFS_WAITING;
   \                     gNWK_MAX_DATABUFS_WAITING:
   \   000000   08           DB 8

   \                                 In  segment CODE_C, align 1
    127          CONST uint8 gNWK_MAX_DATABUFS_SCHEDULED = NWK_MAX_DATABUFS_SCHEDULED;
   \                     gNWK_MAX_DATABUFS_SCHEDULED:
   \   000000   05           DB 5

   \                                 In  segment CODE_C, align 1
    128          CONST uint8 gNWK_MAX_DATABUFS_CONFIRMED = NWK_MAX_DATABUFS_CONFIRMED;
   \                     gNWK_MAX_DATABUFS_CONFIRMED:
   \   000000   05           DB 5

   \                                 In  segment CODE_C, align 1
    129          CONST uint8 gNWK_MAX_DATABUFS_TOTAL = NWK_MAX_DATABUFS_TOTAL;
   \                     gNWK_MAX_DATABUFS_TOTAL:
   \   000000   0C           DB 12
    130          

   \                                 In  segment CODE_C, align 1
    131          CONST uint8 gNWK_INDIRECT_CNT_RTG_TMR = NWK_INDIRECT_CNT_RTG_TMR;
   \                     gNWK_INDIRECT_CNT_RTG_TMR:
   \   000000   3C           DB 60

   \                                 In  segment CODE_C, align 1
    132          CONST uint8 gNWK_INDIRECT_MSG_MAX_PER = NWK_INDIRECT_MSG_MAX_PER;
   \                     gNWK_INDIRECT_MSG_MAX_PER:
   \   000000   03           DB 3

   \                                 In  segment CODE_C, align 1
    133          CONST uint8 gNWK_INDIRECT_MSG_MAX_ALL = NWK_INDIRECT_MSG_MAX_ALL;
   \                     gNWK_INDIRECT_MSG_MAX_ALL:
   \   000000   09           DB 9
    134          
    135          // change this if using a different stack profile...
    136          // Cskip array

   \                                 In  segment XDATA_Z, align 1, keep-with-next
    137          uint16 *Cskip;
   \                     Cskip:
   \   000000                DS 2
   \   000002                REQUIRE __INIT_XDATA_Z
    138          
    139          #if ( STACK_PROFILE_ID == ZIGBEEPRO_PROFILE )

   \                                 In  segment XDATA_Z, align 1, keep-with-next
    140            uint8 CskipRtrs[1] = {0};
   \                     CskipRtrs:
   \   000000                DS 1
   \   000001                REQUIRE __INIT_XDATA_Z

   \                                 In  segment XDATA_Z, align 1, keep-with-next
    141            uint8 CskipChldrn[1] = {0};
   \                     CskipChldrn:
   \   000000                DS 1
   \   000001                REQUIRE __INIT_XDATA_Z
    142          #elif ( STACK_PROFILE_ID == HOME_CONTROLS )
    143            uint8 CskipRtrs[MAX_NODE_DEPTH+1] = {6,6,6,6,6,0};
    144            uint8 CskipChldrn[MAX_NODE_DEPTH+1] = {20,20,20,20,20,0};
    145          #elif ( STACK_PROFILE_ID == GENERIC_STAR )
    146            uint8 CskipRtrs[MAX_NODE_DEPTH+1] = {5,5,5,5,5,0};
    147            uint8 CskipChldrn[MAX_NODE_DEPTH+1] = {5,5,5,5,5,0};
    148          #elif ( STACK_PROFILE_ID == NETWORK_SPECIFIC )
    149            uint8 CskipRtrs[MAX_NODE_DEPTH+1] = {5,5,5,5,5,0};
    150            uint8 CskipChldrn[MAX_NODE_DEPTH+1] = {5,5,5,5,5,0};
    151          #endif // STACK_PROFILE_ID
    152          
    153          // Minimum lqi value that is required for association

   \                                 In  segment XDATA_I, align 1, keep-with-next
    154          uint8 gMIN_TREE_LQI = MIN_LQI_COST_3;
   \                     gMIN_TREE_LQI:
   \   000000                DS 1
   \   000001                REQUIRE `?<Initializer for gMIN_TREE_LQI>`
   \   000001                REQUIRE __INIT_XDATA_I
    155          
    156          // Statically defined Associated Device List

   \                                 In  segment XDATA_Z, align 1, keep-with-next
    157          associated_devices_t AssociatedDevList[NWK_MAX_DEVICES];
   \                     AssociatedDevList:
   \   000000                DS 168
   \   0000A8                REQUIRE __INIT_XDATA_Z
    158          

   \                                 In  segment CODE_C, align 1
    159          CONST uint8 gMAX_NWK_SEC_MATERIAL_TABLE_ENTRIES = MAX_NWK_SEC_MATERIAL_TABLE_ENTRIES;
   \                     gMAX_NWK_SEC_MATERIAL_TABLE_ENTRIES:
   \   000000   02           DB 2

   \                                 In  segment XDATA_Z, align 1, keep-with-next
    160          uint16 nwkPollCount = 0;
   \                     nwkPollCount:
   \   000000                DS 2
   \   000002                REQUIRE __INIT_XDATA_Z

   \                                 In  segment CODE_C, align 1
    161          CONST uint16 gNWK_MAX_POLL_COUNT = NWK_MAX_POLL_COUNT;
   \                     gNWK_MAX_POLL_COUNT:
   \   000000   E803         DW 1000
    162          
    163          #if defined ( ZIGBEEPRO )

   \                                 In  segment CODE_C, align 1
    164            CONST uint16 gNWK_MIN_ROUTER_CHILDREN = NWK_MIN_ROUTER_CHILDREN;
   \                     gNWK_MIN_ROUTER_CHILDREN:
   \   000000   0000         DW 0

   \                                 In  segment CODE_C, align 1
    165            CONST uint16 gNWK_MIN_ENDDEVICE_CHILDREN = NWK_MIN_ENDDEVICE_CHILDREN;
   \                     gNWK_MIN_ENDDEVICE_CHILDREN:
   \   000000   0000         DW 0
    166          #else
    167            CONST uint16 gNWK_MIN_ROUTER_CHILDREN = 0;
    168            CONST uint16 gNWK_MIN_ENDDEVICE_CHILDREN = 0;
    169          #endif
    170          

   \                                 In  segment CODE_C, align 1
    171          CONFIG_ITEM rtgTableIndex_t gMAX_RTG_ENTRIES = MAX_RTG_ENTRIES;
   \                     gMAX_RTG_ENTRIES:
   \   000000   28           DB 40

   \                                 In  segment CODE_C, align 1
    172          CONFIG_ITEM srcRtgTableIndex_t gMAX_RTG_SRC_ENTRIES = MAX_RTG_SRC_ENTRIES;
   \                     gMAX_RTG_SRC_ENTRIES:
   \   000000   0C           DB 12

   \                                 In  segment CODE_C, align 1
    173          CONFIG_ITEM rreqTableIndex_t gMAX_RREQ_ENTRIES = MAX_RREQ_ENTRIES;
   \                     gMAX_RREQ_ENTRIES:
   \   000000   08           DB 8
    174          

   \                                 In  segment CODE_C, align 1
    175          CONFIG_ITEM neighborTableIndex_t gMAX_NEIGHBOR_ENTRIES = MAX_NEIGHBOR_ENTRIES;
   \                     gMAX_NEIGHBOR_ENTRIES:
   \   000000   10           DB 16
    176          
    177           // Table of neighboring nodes (not including child nodes)

   \                                 In  segment XDATA_Z, align 1, keep-with-next
    178          neighborEntry_t neighborTable[MAX_NEIGHBOR_ENTRIES];
   \                     neighborTable:
   \   000000                DS 368
   \   000170                REQUIRE __INIT_XDATA_Z
    179          

   \                                 In  segment CODE_C, align 1
    180          CONST uint8 gMAX_SOURCE_ROUTE = MAX_SOURCE_ROUTE;
   \                     gMAX_SOURCE_ROUTE:
   \   000000   0C           DB 12
    181          

   \                                 In  segment CODE_C, align 1
    182          CONST uint8 gMAX_BROADCAST_QUEUED = MAX_BROADCAST_QUEUED;
   \                     gMAX_BROADCAST_QUEUED:
   \   000000   0A           DB 10
    183          

   \                                 In  segment CODE_C, align 1
    184          CONST uint8 gLINK_DOWN_TRIGGER = LINK_DOWN_TRIGGER;
   \                     gLINK_DOWN_TRIGGER:
   \   000000   03           DB 3
    185          

   \                                 In  segment CODE_C, align 1
    186          CONST uint8 gGOOD_LINK_COST = GOOD_LINK_COST;
   \                     gGOOD_LINK_COST:
   \   000000   03           DB 3
    187          

   \                                 In  segment CODE_C, align 1
    188          CONST uint8 gMAX_PASSIVE_ACK_CNT = MAX_PASSIVE_ACK_CNT;
   \                     gMAX_PASSIVE_ACK_CNT:
   \   000000   08           DB 8
    189          
    190          // Routing table

   \                                 In  segment XDATA_Z, align 1, keep-with-next
    191          rtgEntry_t rtgTable[MAX_RTG_ENTRIES];
   \                     rtgTable:
   \   000000                DS 280
   \   000118                REQUIRE __INIT_XDATA_Z
    192          
    193          #if defined ( ZIGBEEPRO ) || defined ( ZBIT )

   \                                 In  segment XDATA_Z, align 1, keep-with-next
    194            rtgSrcEntry_t rtgSrcTable[MAX_RTG_SRC_ENTRIES];
   \                     rtgSrcTable:
   \   000000                DS 72
   \   000048                REQUIRE __INIT_XDATA_Z

   \                                 In  segment XDATA_Z, align 1, keep-with-next
    195            uint16 rtgSrcRelayList[MAX_SOURCE_ROUTE];
   \                     rtgSrcRelayList:
   \   000000                DS 24
   \   000018                REQUIRE __INIT_XDATA_Z
    196          #endif
    197          
    198          // Table of current RREQ packets in the network

   \                                 In  segment XDATA_Z, align 1, keep-with-next
    199          rtDiscEntry_t rtDiscTable[MAX_RREQ_ENTRIES];
   \                     rtDiscTable:
   \   000000                DS 64
   \   000040                REQUIRE __INIT_XDATA_Z
    200          
    201          // Table of data broadcast packets currently in circulation.

   \                                 In  segment XDATA_Z, align 1, keep-with-next
    202          bcastEntry_t bcastTable[MAX_BCAST];
   \                     bcastTable:
   \   000000                DS 72
   \   000048                REQUIRE __INIT_XDATA_Z
    203          
    204          // These 2 arrays are to be used as an array of struct { uint8, uint32 }.

   \                                 In  segment XDATA_Z, align 1, keep-with-next
    205          uint8 bcastHoldHandle[MAX_BCAST];
   \                     bcastHoldHandle:
   \   000000                DS 9
   \   000009                REQUIRE __INIT_XDATA_Z

   \                                 In  segment XDATA_Z, align 1, keep-with-next
    206          uint32 bcastHoldAckMask[MAX_BCAST];
   \                     bcastHoldAckMask:
   \   000000                DS 36
   \   000024                REQUIRE __INIT_XDATA_Z
    207          

   \                                 In  segment CODE_C, align 1
    208          CONFIG_ITEM bcastTableIndex_t gMAX_BCAST = MAX_BCAST;
   \                     gMAX_BCAST:
   \   000000   09           DB 9
    209          
    210          // For tree addressing, this switch allows the allocation of a
    211          // router address to an end device when end device address are
    212          // all used up.  If this option is enabled, address space
    213          // could be limited.

   \                                 In  segment CODE_C, align 1
    214          CONST uint8 gNWK_TREE_ALLOCATE_ROUTERADDR_FOR_ENDDEVICE = FALSE;
   \                     gNWK_TREE_ALLOCATE_ROUTERADDR_FOR_ENDDEVICE:
   \   000000   00           DB 0
    215          
    216          #if defined ( ZIGBEEPRO ) || defined ( ZBIT )
    217          // number of link status periods after the last received address conflict report
    218          // (network status command)

   \                                 In  segment CODE_C, align 1
    219          CONST uint8 gNWK_CONFLICTED_ADDR_EXPIRY_TIME = NWK_CONFLICTED_ADDR_EXPIRY_TIME;
   \                     gNWK_CONFLICTED_ADDR_EXPIRY_TIME:
   \   000000   04           DB 4
    220          #endif
    221          
    222          #if defined ( ZIGBEE_FREQ_AGILITY ) || defined ( ZBIT )

   \                                 In  segment CODE_C, align 1
    223          CONST uint8 gNWK_FREQ_AGILITY_ALL_MAC_ERRS = NWK_FREQ_AGILITY_ALL_MAC_ERRS;
   \                     gNWK_FREQ_AGILITY_ALL_MAC_ERRS:
   \   000000   00           DB 0
    224          #endif
    225          
    226          // The time limited to one MTO RReq (Concentrator Announce) in milliseconds.

   \                                 In  segment CODE_C, align 1
    227          CONST uint16 gMTO_RREQ_LIMIT_TIME = MTO_RREQ_LIMIT_TIME;
   \                     gMTO_RREQ_LIMIT_TIME:
   \   000000   E803         DW 1000
    228          
    229          // The number of seconds a MTO routing entry will last.

   \                                 In  segment CODE_C, align 1
    230          CONST uint8 gMTO_ROUTE_EXPIRY_TIME = MTO_ROUTE_EXPIRY_TIME;
   \                     gMTO_ROUTE_EXPIRY_TIME:
   \   000000   FF           DB 255
    231          
    232          // Route Discovery Request Default Radius

   \                                 In  segment CODE_C, align 1
    233          CONST uint8 gDEFAULT_ROUTE_REQUEST_RADIUS = DEFAULT_ROUTE_REQUEST_RADIUS;
   \                     gDEFAULT_ROUTE_REQUEST_RADIUS:
   \   000000   1E           DB 30
    234          
    235          // Network message radius

   \                                 In  segment CODE_C, align 1
    236          CONST uint8 gDEF_NWK_RADIUS = DEF_NWK_RADIUS;
   \                     gDEF_NWK_RADIUS:
   \   000000   1E           DB 30
    237          
    238          #if ( ZSTACK_ROUTER_BUILD ) || defined ( ZBIT )

   \                                 In  segment CODE_C, align 1
    239          CONST uint16 gLINK_STATUS_JITTER_MASK = LINK_STATUS_JITTER_MASK;
   \                     gLINK_STATUS_JITTER_MASK:
   \   000000   7F00         DW 127
    240          #endif
    241          
    242          // Maximum number of devices either aged out or not recognized as child

   \                                 In  segment CODE_C, align 1
    243          CONST uint8 gMAX_NOT_MYCHILD_DEVICES = MAX_NOT_MYCHILD_DEVICES;
   \                     gMAX_NOT_MYCHILD_DEVICES:
   \   000000   05           DB 5
    244          
    245          // Child table Management timeout values

   \                                 In  segment CODE_C, align 1
    246          CONST uint32 timeoutValue[15] =
   \                     timeoutValue:
   \   000000   0A000000     DD 10
   \   000004   02000000     DD 2
   \   000008   04000000     DD 4
   \   00000C   08000000     DD 8
   \   000010   10000000     DD 16
   \   000014   20000000     DD 32
   \   000018   40000000     DD 64
   \   00001C   80000000     DD 128
   \   000020   00010000     DD 256
   \   000024   00020000     DD 512
   \   000028   00040000     DD 1024
   \   00002C   00080000     DD 2048
   \   000030   00100000     DD 4096
   \   000034   00200000     DD 8192
   \   000038   00400000     DD 16384
    247          {   10, // 0	10 seconds
    248               2, // 1	2 minutes
    249               4, // 2	4 minutes
    250               8, // 3	8 minutes
    251              16, // 4	16 minutes
    252              32, // 5	32 minutes
    253              64, // 6	64 minutes
    254             128, // 7	128 minutes
    255             256, // 8	256 minutes
    256             512, // 9	512 minutes
    257            1024, // 10	1024 minutes
    258            2048, // 11	2048 minutes
    259            4096, // 12	4096 minutes
    260            8192, // 13	8192 minutes
    261           16384 // 14	16384 minutes
    262          };
    263          
    264          // This table stores devices that have been aged out by the Child Aging Table
    265          // mechanism or have never been a child of this device

   \                                 In  segment XDATA_Z, align 1, keep-with-next
    266          nwkNotMyChild_t notMyChildList[MAX_NOT_MYCHILD_DEVICES];
   \                     notMyChildList:
   \   000000                DS 20
   \   000014                REQUIRE __INIT_XDATA_Z
    267          

   \                                 In  segment CODE_C, align 1
    268          CONST uint32 gMAX_NWK_FRAMECOUNTER_CHANGES = MAX_NWK_FRAMECOUNTER_CHANGES;
   \                     gMAX_NWK_FRAMECOUNTER_CHANGES:
   \   000000   E8030000     DD 1000
    269          
    270          #if defined ( FEATURE_MNP )
    271            uint8 gMAX_MNP_QUEUED = MAX_MNP_QUEUED;
    272          #endif
    273          
    274          /*********************************************************************
    275           * APS GLOBAL VARIABLES
    276           */
    277          
    278          // The Maximum number of binding records
    279          // This number is defined in f8wConfig.cfg - change it there.

   \                                 In  segment CODE_C, align 1
    280          CONFIG_ITEM bindTableIndex_t gNWK_MAX_BINDING_ENTRIES = NWK_MAX_BINDING_ENTRIES;
   \                     gNWK_MAX_BINDING_ENTRIES:
   \   000000   04           DB 4
    281          
    282          #if defined ( REFLECTOR )
    283            // The Maximum number of cluster IDs in a binding record
    284            // This number is defined in f8wConfig.cfg - change it there.

   \                                 In  segment CODE_C, align 1
    285            CONFIG_ITEM uint8 gMAX_BINDING_CLUSTER_IDS = MAX_BINDING_CLUSTER_IDS;
   \                     gMAX_BINDING_CLUSTER_IDS:
   \   000000   04           DB 4
    286          

   \                                 In  segment CODE_C, align 1
    287            CONST uint16 gBIND_REC_SIZE = sizeof( BindingEntry_t );
   \                     gBIND_REC_SIZE:
   \   000000   0E00         DW 14
    288          
    289            // Binding Table

   \                                 In  segment XDATA_Z, align 1, keep-with-next
    290            BindingEntry_t BindingTable[NWK_MAX_BINDING_ENTRIES];
   \                     BindingTable:
   \   000000                DS 56
   \   000038                REQUIRE __INIT_XDATA_Z
    291          #endif
    292          
    293          // Maximum number allowed in the groups table.

   \                                 In  segment CODE_C, align 1
    294          CONFIG_ITEM uint8 gAPS_MAX_GROUPS = APS_MAX_GROUPS;
   \                     gAPS_MAX_GROUPS:
   \   000000   10           DB 16
    295          
    296          // APS End Device Broadcast Table
    297          #if ( ZG_BUILD_ENDDEVICE_TYPE )
    298            apsEndDeviceBroadcast_t apsEndDeviceBroadcastTable[APS_MAX_ENDDEVICE_BROADCAST_ENTRIES];
    299            uint8 gAPS_MAX_ENDDEVICE_BROADCAST_ENTRIES = APS_MAX_ENDDEVICE_BROADCAST_ENTRIES;
    300          #endif
    301          
    302          /*********************************************************************
    303           * SECURITY GLOBAL VARIABLES
    304           */
    305          
    306          // This is the default pre-configured key,
    307          // change this to make a unique key
    308          // SEC_KEY_LEN is defined in ssp.h.
    309          
    310          
    311          #if (ZG_BUILD_JOINING_TYPE)  
    312          //Distributed key is only used by devices with joining capabilities (router and ZED)

   \                                 In  segment CODE_C, align 1
    313          CONFIG_ITEM uint8 distributedDefaultKey[SEC_KEY_LEN] = DISTRIBUTED_GLOBAL_LINK_KEY;
   \                     distributedDefaultKey:
   \   000000   D0           DB 208
   \   000001   D1           DB 209
   \   000002   D2           DB 210
   \   000003   D3           DB 211
   \   000004   D4           DB 212
   \   000005   D5           DB 213
   \   000006   D6           DB 214
   \   000007   D7           DB 215
   \   000008   D8           DB 216
   \   000009   D9           DB 217
   \   00000A   DA           DB 218
   \   00000B   DB           DB 219
   \   00000C   DC           DB 220
   \   00000D   DD           DB 221
   \   00000E   DE           DB 222
   \   00000F   DF           DB 223
    314          #endif
    315          
    316          #if defined ( DEFAULT_KEY )

   \                                 In  segment CODE_C, align 1
    317          CONFIG_ITEM uint8 defaultKey[SEC_KEY_LEN] = DEFAULT_KEY;
   \                     defaultKey:
   \   000000   00           DB 0
   \   000001   00           DB 0
   \   000002   00           DB 0
   \   000003   00           DB 0
   \   000004   00           DB 0
   \   000005   00           DB 0
   \   000006   00           DB 0
   \   000007   00           DB 0
   \   000008   00           DB 0
   \   000009   00           DB 0
   \   00000A   00           DB 0
   \   00000B   00           DB 0
   \   00000C   00           DB 0
   \   00000D   00           DB 0
   \   00000E   00           DB 0
   \   00000F   00           DB 0
    318          #else
    319          CONST uint8 defaultKey[SEC_KEY_LEN] =
    320          {
    321          #if defined ( APP_TP ) || defined ( APP_TP2 )
    322            // Key for ZigBee Conformance Testing
    323            0xbb, 0xbb, 0xbb, 0xbb, 0xbb, 0xbb, 0xbb, 0xbb,
    324            0xaa, 0xaa, 0xaa, 0xaa, 0xaa, 0xaa, 0xaa, 0xaa
    325          #else
    326            // Key for In-House Testing
    327            0x00, 0x01, 0x02, 0x03, 0x04, 0x05, 0x06, 0x07,
    328            0x08, 0x09, 0x0A, 0x0B, 0x0C, 0x0D, 0x0E, 0x0F
    329          #endif
    330          };
    331          #endif
    332          
    333          // This is the default pre-configured Trust Center Link key,
    334          // change this to make a unique key, SEC_KEY_LEN is defined in ssp.h.

   \                                 In  segment CODE_C, align 1
    335          CONST uint8 defaultTCLinkKey[SEC_KEY_LEN] = DEFAULT_TC_LINK_KEY;
   \                     defaultTCLinkKey:
   \   000000   5A           DB 90
   \   000001   69           DB 105
   \   000002   67           DB 103
   \   000003   42           DB 66
   \   000004   65           DB 101
   \   000005   65           DB 101
   \   000006   41           DB 65
   \   000007   6C           DB 108
   \   000008   6C           DB 108
   \   000009   69           DB 105
   \   00000A   61           DB 97
   \   00000B   6E           DB 110
   \   00000C   63           DB 99
   \   00000D   65           DB 101
   \   00000E   30           DB 48
   \   00000F   39           DB 57
    336          
    337          /*********************************************************************
    338           * STATUS STRINGS
    339           */
    340          #if defined ( LCD_SUPPORTED )

   \                                 In  segment XDATA_ROM_C, align 1
    341            const char PingStr[]         = "Ping Rcvd from";
   \                     PingStr:
   \   000000   50696E67     DB "Ping Rcvd from"
   \            20526376
   \            64206672
   \            6F6D00  

   \                                 In  segment XDATA_ROM_C, align 1
    342            const char AssocCnfStr[]     = "Assoc Cnf";
   \                     AssocCnfStr:
   \   000000   4173736F     DB "Assoc Cnf"
   \            6320436E
   \            6600    

   \                                 In  segment XDATA_ROM_C, align 1
    343            const char SuccessStr[]      = "Success";
   \                     SuccessStr:
   \   000000   53756363     DB "Success"
   \            65737300

   \                                 In  segment XDATA_ROM_C, align 1
    344            const char EndDeviceStr[]    = "EndDevice:";
   \                     EndDeviceStr:
   \   000000   456E6444     DB "EndDevice:"
   \            65766963
   \            653A00  

   \                                 In  segment XDATA_ROM_C, align 1
    345            const char ParentStr[]       = "Parent:";
   \                     ParentStr:
   \   000000   50617265     DB "Parent:"
   \            6E743A00

   \                                 In  segment XDATA_ROM_C, align 1
    346            const char ZigbeeCoordStr[]  = "ZigBee Coord";
   \                     ZigbeeCoordStr:
   \   000000   5A696742     DB "ZigBee Coord"
   \            65652043
   \            6F6F7264
   \            00      

   \                                 In  segment XDATA_ROM_C, align 1
    347            const char NetworkIDStr[]    = "Network ID:";
   \                     NetworkIDStr:
   \   000000   4E657477     DB "Network ID:"
   \            6F726B20
   \            49443A00

   \                                 In  segment XDATA_ROM_C, align 1
    348            const char RouterStr[]       = "Router:";
   \                     RouterStr:
   \   000000   526F7574     DB "Router:"
   \            65723A00

   \                                 In  segment XDATA_ROM_C, align 1
    349            const char OrphanRspStr[]    = "Orphan Response";
   \                     OrphanRspStr:
   \   000000   4F727068     DB "Orphan Response"
   \            616E2052
   \            6573706F
   \            6E736500

   \                                 In  segment XDATA_ROM_C, align 1
    350            const char SentStr[]         = "Sent";
   \                     SentStr:
   \   000000   53656E74     DB "Sent"
   \            00      

   \                                 In  segment XDATA_ROM_C, align 1
    351            const char FailedStr[]       = "Failed";
   \                     FailedStr:
   \   000000   4661696C     DB "Failed"
   \            656400  

   \                                 In  segment XDATA_ROM_C, align 1
    352            const char AssocRspFailStr[] = "Assoc Rsp fail";
   \                     AssocRspFailStr:
   \   000000   4173736F     DB "Assoc Rsp fail"
   \            63205273
   \            70206661
   \            696C00  

   \                                 In  segment XDATA_ROM_C, align 1
    353            const char AssocIndStr[]     = "Assoc Ind";
   \                     AssocIndStr:
   \   000000   4173736F     DB "Assoc Ind"
   \            6320496E
   \            6400    

   \                                 In  segment XDATA_ROM_C, align 1
    354            const char AssocCnfFailStr[] = "Assoc Cnf fail";
   \                     AssocCnfFailStr:
   \   000000   4173736F     DB "Assoc Cnf fail"
   \            6320436E
   \            66206661
   \            696C00  

   \                                 In  segment XDATA_ROM_C, align 1
    355            const char EnergyLevelStr[]  = "Energy Level";
   \                     EnergyLevelStr:
   \   000000   456E6572     DB "Energy Level"
   \            6779204C
   \            6576656C
   \            00      

   \                                 In  segment XDATA_ROM_C, align 1
    356            const char ScanFailedStr[]   = "Scan Failed";
   \                     ScanFailedStr:
   \   000000   5363616E     DB "Scan Failed"
   \            20466169
   \            6C656400
    357          #endif
    358          
    359          /*********************************************************************
    360           * @fn       nwk_globals_init()
    361           *
    362           * @brief
    363           *
    364           *   Initialize nwk layer globals.  These are the system defaults and
    365           *   should be changed by the user here.  The default definitions are
    366           *   defined in nwk.h or NLMEDE.h.
    367           *
    368           * @param   none
    369           *
    370           * @return  none
    371           */

   \                                 In  segment BANKED_CODE, align 1, keep-with-next
    372          void nwk_globals_init( void )
   \                     nwk_globals_init:
    373          {
   \   000000   C082         PUSH      DPL
   \   000002   C083         PUSH      DPH
   \   000004                ; Saved register size: 2
   \   000004                ; Auto size: 0
    374            AddrMgrInit( NWK_MAX_ADDRESSES );
   \   000004                ; Setup parameters for call to function AddrMgrInit
   \   000004   7A0B         MOV       R2,#0xb
   \   000006   7B00         MOV       R3,#0x0
   \   000008   12....       LCALL     `??AddrMgrInit::?relay`; Banked call to: AddrMgrInit
    375          
    376          #if !defined ( ZIGBEEPRO )
    377            if ( ZSTACK_ROUTER_BUILD )
    378            {
    379              // Initialize the Cskip Table
    380              Cskip = osal_mem_alloc(sizeof(uint16) *(MAX_NODE_DEPTH+1));
    381              RTG_FillCSkipTable(CskipChldrn, CskipRtrs, MAX_NODE_DEPTH, Cskip);
    382            }
    383          #endif
    384          
    385          #if defined ( ZIGBEE_FREQ_AGILITY )
    386            NwkFreqAgilityInit();
   \   00000B                ; Setup parameters for call to function NwkFreqAgilityInit
   \   00000B   12....       LCALL     `??NwkFreqAgilityInit::?relay`; Banked call to: NwkFreqAgilityInit
    387          #endif
    388          
    389            if ( ( ZSTACK_ROUTER_BUILD ) && ( zgChildAgingEnable == TRUE ) )
   \   00000E   90....       MOV       DPTR,#zgChildAgingEnable
   \   000011   E0           MOVX      A,@DPTR
   \   000012   6401         XRL       A,#0x1
   \   000014   7003         JNZ       ??nwk_globals_init_0
    390            {
    391              // Set the function pointers for the Child Aging feature
    392              NwkInitChildAging();
   \   000016                ; Setup parameters for call to function NwkInitChildAging
   \   000016   12....       LCALL     `??NwkInitChildAging::?relay`; Banked call to: NwkInitChildAging
    393            }
    394          }
   \                     ??nwk_globals_init_0:
   \   000019   D083         POP       DPH
   \   00001B   D082         POP       DPL
   \   00001D   02....       LJMP      ?BRET
    395          
    396          /*********************************************************************
    397           * @fn       NIB_init()
    398           *
    399           * @brief
    400           *
    401           *   Initialize attribute values in NIB
    402           *
    403           * @param   none
    404           *
    405           * @return  none
    406           */

   \                                 In  segment BANKED_CODE, align 1, keep-with-next
    407          void NIB_init()
   \                     NIB_init:
    408          {
   \   000000                REQUIRE ?V0
   \   000000                REQUIRE ?V1
   \   000000   74F6         MOV       A,#-0xa
   \   000002   12....       LCALL     ?BANKED_ENTER_XDATA
   \   000005                ; Saved register size: 10
   \   000005                ; Auto size: 0
    409            _NIB.SequenceNum = LO_UINT16(osal_rand());
   \   000005                ; Setup parameters for call to function osal_rand
   \   000005   12....       LCALL     `??osal_rand::?relay`; Banked call to: osal_rand
   \   000008   EA           MOV       A,R2
   \   000009   90....       MOV       DPTR,#_NIB
   \   00000C   F0           MOVX      @DPTR,A
    410          
    411            _NIB.nwkProtocolVersion = ZB_PROT_VERS;
   \   00000D   90....       MOV       DPTR,#_NIB + 17
   \   000010   7402         MOV       A,#0x2
   \   000012   F0           MOVX      @DPTR,A
    412            _NIB.MaxDepth = MAX_NODE_DEPTH;
   \   000013   90....       MOV       DPTR,#_NIB + 4
   \   000016   7414         MOV       A,#0x14
   \   000018   F0           MOVX      @DPTR,A
    413          
    414          #if ( NWK_MODE == NWK_MODE_MESH )
    415            _NIB.beaconOrder = BEACON_ORDER_NO_BEACONS;
   \   000019   90....       MOV       DPTR,#_NIB + 40
   \   00001C   740F         MOV       A,#0xf
   \   00001E   F0           MOVX      @DPTR,A
    416            _NIB.superFrameOrder = BEACON_ORDER_NO_BEACONS;
   \   00001F   A3           INC       DPTR
   \   000020   F0           MOVX      @DPTR,A
    417          #endif
    418          
    419            // BROADCAST SETTINGS:
    420            // *******************
    421            //   Broadcast Delivery Time
    422            //     - set to multiples of 100ms
    423            //     - should be 500ms more than the retry time
    424            //       -  "retry time" = PassiveAckTimeout * (MaxBroadcastRetries + 1)
    425            //   Passive Ack Timeout
    426            //     - set to multiples of 100ms
    427            _NIB.BroadcastDeliveryTime = zgBcastDeliveryTime;
   \   000021   90....       MOV       DPTR,#zgBcastDeliveryTime
   \   000024   E0           MOVX      A,@DPTR
   \   000025   90....       MOV       DPTR,#_NIB + 7
   \   000028   F0           MOVX      @DPTR,A
    428            _NIB.PassiveAckTimeout     = zgPassiveAckTimeout;
   \   000029   90....       MOV       DPTR,#zgPassiveAckTimeout
   \   00002C   E0           MOVX      A,@DPTR
   \   00002D   90....       MOV       DPTR,#_NIB + 1
   \   000030   F0           MOVX      @DPTR,A
    429            _NIB.MaxBroadcastRetries   = zgMaxBcastRetires;
   \   000031   90....       MOV       DPTR,#zgMaxBcastRetires
   \   000034   E0           MOVX      A,@DPTR
   \   000035   90....       MOV       DPTR,#_NIB + 2
   \   000038   F0           MOVX      @DPTR,A
    430          
    431            _NIB.ReportConstantCost = 0;
   \   000039   90....       MOV       DPTR,#_NIB + 8
   \   00003C   E4           CLR       A
   \   00003D   F0           MOVX      @DPTR,A
    432            _NIB.RouteDiscRetries = 0;
   \   00003E   A3           INC       DPTR
   \   00003F   F0           MOVX      @DPTR,A
    433            _NIB.SecureAllFrames = USE_NWK_SECURITY;
   \   000040   90....       MOV       DPTR,#_NIB + 11
   \   000043   04           INC       A
   \   000044   F0           MOVX      @DPTR,A
    434            _NIB.nwkAllFresh = NWK_ALL_FRESH;
   \   000045   90....       MOV       DPTR,#_NIB + 104
   \   000048   F0           MOVX      @DPTR,A
    435          
    436            if ( ZG_SECURE_ENABLED )
    437            {
    438              _NIB.SecurityLevel = SECURITY_LEVEL;
   \   000049   90....       MOV       DPTR,#_NIB + 12
   \   00004C   7405         MOV       A,#0x5
   \   00004E   F0           MOVX      @DPTR,A
    439            }
    440            else
    441            {
    442              _NIB.SecurityLevel = 0;
    443            }
    444          
    445            _NIB.SymLink = TRUE;
   \   00004F   A3           INC       DPTR
   \   000050   7401         MOV       A,#0x1
   \   000052   F0           MOVX      @DPTR,A
    446          
    447            _NIB.CapabilityFlags = ZDO_Config_Node_Descriptor.CapabilityFlags;
   \   000053   90....       MOV       DPTR,#ZDO_Config_Node_Descriptor + 2
   \   000056   E0           MOVX      A,@DPTR
   \   000057   90....       MOV       DPTR,#_NIB + 14
   \   00005A   F0           MOVX      @DPTR,A
    448          
    449            _NIB.TransactionPersistenceTime = zgIndirectMsgTimeout;
   \   00005B   90....       MOV       DPTR,#zgIndirectMsgTimeout
   \   00005E   E0           MOVX      A,@DPTR
   \   00005F   90....       MOV       DPTR,#_NIB + 15
   \   000062   F0           MOVX      @DPTR,A
   \   000063   A3           INC       DPTR
   \   000064   E4           CLR       A
   \   000065   F0           MOVX      @DPTR,A
    450          
    451            _NIB.RouteDiscoveryTime = zgRouteDiscoveryTime;
   \   000066   90....       MOV       DPTR,#zgRouteDiscoveryTime
   \   000069   E0           MOVX      A,@DPTR
   \   00006A   90....       MOV       DPTR,#_NIB + 18
   \   00006D   F0           MOVX      @DPTR,A
    452            _NIB.RouteExpiryTime = zgRouteExpiryTime;
   \   00006E   90....       MOV       DPTR,#zgRouteExpiryTime
   \   000071   E0           MOVX      A,@DPTR
   \   000072   90....       MOV       DPTR,#_NIB + 19
   \   000075   12....       LCALL     ?Subroutine1 & 0xFFFF
    453          
    454            _NIB.nwkDevAddress = INVALID_NODE_ADDR;
    455            _NIB.nwkLogicalChannel = 0;
   \                     ??CrossCallReturnLabel_0:
   \   000078   A3           INC       DPTR
   \   000079   E4           CLR       A
   \   00007A   12....       LCALL     ?Subroutine1 & 0xFFFF
    456            _NIB.nwkCoordAddress = INVALID_NODE_ADDR;
    457            osal_memset( _NIB.nwkCoordExtAddress, 0, Z_EXTADDR_LEN );
   \                     ??CrossCallReturnLabel_1:
   \   00007D                ; Setup parameters for call to function osal_memset
   \   00007D   7C08         MOV       R4,#0x8
   \   00007F   7D00         MOV       R5,#0x0
   \   000081   7900         MOV       R1,#0x0
   \   000083   7A..         MOV       R2,#(_NIB + 25) & 0xff
   \   000085   7B..         MOV       R3,#((_NIB + 25) >> 8) & 0xff
   \   000087   12....       LCALL     `??osal_memset::?relay`; Banked call to: osal_memset
    458            _NIB.nwkPanId = INVALID_NODE_ADDR;
   \   00008A   90....       MOV       DPTR,#_NIB + 33
   \   00008D   74FE         MOV       A,#-0x2
   \   00008F   F0           MOVX      @DPTR,A
   \   000090   A3           INC       DPTR
   \   000091   04           INC       A
   \   000092   F0           MOVX      @DPTR,A
    459          
    460            osal_cpyExtAddr( _NIB.extendedPANID, zgExtendedPANID );
   \   000093                ; Setup parameters for call to function sAddrExtCpy
   \   000093   7C..         MOV       R4,#zgExtendedPANID & 0xff
   \   000095   7D..         MOV       R5,#(zgExtendedPANID >> 8) & 0xff
   \   000097   7A..         MOV       R2,#(_NIB + 53) & 0xff
   \   000099   7B..         MOV       R3,#((_NIB + 53) >> 8) & 0xff
   \   00009B   12....       LCALL     `??sAddrExtCpy::?relay`; Banked call to: sAddrExtCpy
    461          
    462            _NIB.nwkKeyLoaded = FALSE;
   \   00009E   90....       MOV       DPTR,#_NIB + 61
   \   0000A1   E4           CLR       A
   \   0000A2   F0           MOVX      @DPTR,A
    463          
    464            _NIB.nwkLinkStatusPeriod = NWK_LINK_STATUS_PERIOD;
   \   0000A3   90....       MOV       DPTR,#_NIB + 98
   \   0000A6   740F         MOV       A,#0xf
   \   0000A8   F0           MOVX      @DPTR,A
    465            _NIB.nwkRouterAgeLimit = NWK_ROUTE_AGE_LIMIT;
   \   0000A9   A3           INC       DPTR
   \   0000AA   7403         MOV       A,#0x3
   \   0000AC   F0           MOVX      @DPTR,A
    466          
    467            //MTO and source routing
    468            _NIB.nwkConcentratorDiscoveryTime = zgConcentratorDiscoveryTime;
   \   0000AD   90....       MOV       DPTR,#zgConcentratorDiscoveryTime
   \   0000B0   E0           MOVX      A,@DPTR
   \   0000B1   90....       MOV       DPTR,#_NIB + 102
   \   0000B4   F0           MOVX      @DPTR,A
    469            _NIB.nwkIsConcentrator = zgConcentratorEnable;
   \   0000B5   90....       MOV       DPTR,#zgConcentratorEnable
   \   0000B8   E0           MOVX      A,@DPTR
   \   0000B9   90....       MOV       DPTR,#_NIB + 101
   \   0000BC   F0           MOVX      @DPTR,A
    470            _NIB.nwkConcentratorRadius = zgConcentratorRadius;
   \   0000BD   90....       MOV       DPTR,#zgConcentratorRadius
   \   0000C0   E0           MOVX      A,@DPTR
   \   0000C1   90....       MOV       DPTR,#_NIB + 103
   \   0000C4   F0           MOVX      @DPTR,A
    471          
    472          #if defined ( ZIGBEEPRO )
    473            _NIB.nwkUseMultiCast = MULTICAST_ENABLED;
   \   0000C5   90....       MOV       DPTR,#_NIB + 100
   \   0000C8   E4           CLR       A
   \   0000C9   F0           MOVX      @DPTR,A
    474          #else
    475            _NIB.nwkUseMultiCast = FALSE;
    476          #endif
    477          
    478          #if defined ( NV_RESTORE )
    479            if ( osal_nv_read( ZCD_NV_NWKMGR_ADDR, 0, sizeof( _NIB.nwkManagerAddr ),
    480                               &_NIB.nwkManagerAddr ) != SUCCESS )
   \   0000CA                ; Setup parameters for call to function osal_nv_read
   \   0000CA   75....       MOV       ?V0,#(_NIB + 105) & 0xff
   \   0000CD   75....       MOV       ?V1,#((_NIB + 105) >> 8) & 0xff
   \   0000D0   78..         MOV       R0,#?V0
   \   0000D2   12....       LCALL     ?PUSH_XSTACK_I_TWO
   \   0000D5   75..02       MOV       ?V0,#0x2
   \   0000D8   75..00       MOV       ?V1,#0x0
   \   0000DB   78..         MOV       R0,#?V0
   \   0000DD   12....       LCALL     ?PUSH_XSTACK_I_TWO
   \   0000E0   7C00         MOV       R4,#0x0
   \   0000E2   7D00         MOV       R5,#0x0
   \   0000E4   7A89         MOV       R2,#-0x77
   \   0000E6   7B00         MOV       R3,#0x0
   \   0000E8   12....       LCALL     `??osal_nv_read::?relay`; Banked call to: osal_nv_read
   \   0000EB   7404         MOV       A,#0x4
   \   0000ED   12....       LCALL     ?DEALLOC_XSTACK8
   \   0000F0   E9           MOV       A,R1
   \   0000F1   6007         JZ        ??NIB_init_0
    481          #endif
    482            {
    483              _NIB.nwkManagerAddr = 0x0000;
   \   0000F3   90....       MOV       DPTR,#_NIB + 105
   \   0000F6   E4           CLR       A
   \   0000F7   F0           MOVX      @DPTR,A
   \   0000F8   A3           INC       DPTR
   \   0000F9   F0           MOVX      @DPTR,A
    484            }
    485          
    486            NLME_SetUpdateID( 0 );
   \                     ??NIB_init_0:
   \   0000FA                ; Setup parameters for call to function NLME_SetUpdateID
   \   0000FA   7900         MOV       R1,#0x0
   \   0000FC   12....       LCALL     `??NLME_SetUpdateID::?relay`; Banked call to: NLME_SetUpdateID
    487            _NIB.nwkTotalTransmissions = 0;
   \   0000FF   90....       MOV       DPTR,#_NIB + 107
   \   000102   E4           CLR       A
   \   000103   F0           MOVX      @DPTR,A
   \   000104   A3           INC       DPTR
   \   000105   F0           MOVX      @DPTR,A
    488          }
   \   000106                REQUIRE ?Subroutine0
   \   000106                ; // Fall through to label ?Subroutine0

   \                                 In  segment BANKED_CODE, align 1, keep-with-next
   \                     ?Subroutine0:
   \   000000   7F02         MOV       R7,#0x2
   \   000002   02....       LJMP      ?BANKED_LEAVE_XDATA

   \                                 In  segment BANKED_CODE, align 1, keep-with-next
   \                     ?Subroutine1:
   \   000000   F0           MOVX      @DPTR,A
   \   000001   A3           INC       DPTR
   \   000002   74FE         MOV       A,#-0x2
   \   000004   F0           MOVX      @DPTR,A
   \   000005   A3           INC       DPTR
   \   000006   04           INC       A
   \   000007   F0           MOVX      @DPTR,A
   \   000008   22           RET
    489          
    490          /*********************************************************************
    491           * @fn       nwk_Status()
    492           *
    493           * @brief
    494           *
    495           *   Status report.
    496           *
    497           * @param   statusCode
    498           * @param   statusValue
    499           *
    500           * @return  none
    501           */

   \                                 In  segment BANKED_CODE, align 1, keep-with-next
    502          void nwk_Status( uint16 statusCode, uint16 statusValue )
   \                     nwk_Status:
    503          {
   \   000000                REQUIRE ?V0
   \   000000                REQUIRE ?V1
   \   000000                REQUIRE ?V2
   \   000000                REQUIRE ?V3
   \   000000                REQUIRE ?V4
   \   000000                REQUIRE ?V5
   \   000000                REQUIRE ?V6
   \   000000                REQUIRE ?V7
   \   000000   74F0         MOV       A,#-0x10
   \   000002   12....       LCALL     ?BANKED_ENTER_XDATA
   \   000005                ; Saved register size: 16
   \   000005                ; Auto size: 0
   \   000005   8A..         MOV       ?V2,R2
   \   000007   8B..         MOV       ?V3,R3
   \   000009   8C..         MOV       ?V0,R4
   \   00000B   8D..         MOV       ?V1,R5
    504          #if defined ( SERIAL_DEBUG_SUPPORTED ) || (defined ( LEGACY_LCD_DEBUG ) && defined (LCD_SUPPORTED))
    505            switch ( statusCode )
   \   00000D   8C..         MOV       ?V4,R4
   \   00000F   8D..         MOV       ?V5,R5
   \   000011   E4           CLR       A
   \   000012   F5..         MOV       ?V6,A
   \   000014   F5..         MOV       ?V7,A
   \   000016   78..         MOV       R0,#?V2
   \   000018   12....       LCALL     ?US_SWITCH_SPARSE
   \                     `?<Jumptable for nwk_Status>_0`:
   \   00001B   0000         DW        0
   \   00001D   0800         DW        8
   \   00001F   0200         DW        2
   \   000021   ....         DW        ??nwk_Status_0
   \   000023   0400         DW        4
   \   000025   ....         DW        ??nwk_Status_1
   \   000027   0500         DW        5
   \   000029   ....         DW        ??nwk_Status_2
   \   00002B   0600         DW        6
   \   00002D   ....         DW        ??nwk_Status_3
   \   00002F   0700         DW        7
   \   000031   ....         DW        ??nwk_Status_4
   \   000033   0110         DW        4097
   \   000035   ....         DW        ??nwk_Status_5
   \   000037   0310         DW        4099
   \   000039   ....         DW        ??nwk_Status_6
   \   00003B   0410         DW        4100
   \   00003D   ....         DW        ??nwk_Status_7
   \   00003F   ....         DW        ??nwk_Status_8
    506            {
    507              case NWK_STATUS_COORD_ADDR:
    508                if ( ZSTACK_ROUTER_BUILD )
    509                {
    510                  
    511                if ( _NIB.nwkDevAddress == NWK_PAN_COORD_ADDR )
   \                     ??nwk_Status_2:
   \   000041   90....       MOV       DPTR,#_NIB + 20
   \   000044   E0           MOVX      A,@DPTR
   \   000045   F8           MOV       R0,A
   \   000046   A3           INC       DPTR
   \   000047   E0           MOVX      A,@DPTR
   \   000048   F9           MOV       R1,A
   \   000049   E8           MOV       A,R0
   \   00004A   49           ORL       A,R1
   \   00004B   7009         JNZ       ??nwk_Status_9
    512                {
    513                  HalLcdWriteString( (char*)ZigbeeCoordStr, HAL_LCD_DEBUG_LINE_1 );
   \   00004D                ; Setup parameters for call to function HalLcdWriteString
   \   00004D   7901         MOV       R1,#0x1
   \   00004F   7A..         MOV       R2,#ZigbeeCoordStr & 0xff
   \   000051   7B..         MOV       R3,#(ZigbeeCoordStr >> 8) & 0xff
   \   000053   12....       LCALL     `??HalLcdWriteString::?relay`; Banked call to: HalLcdWriteString
    514                }
    515                if ( (_NIB.nwkDevAddress != NWK_PAN_COORD_ADDR) &&
    516                     (_NIB.nwkDevAddress != INVALID_NODE_ADDR) )
   \                     ??nwk_Status_9:
   \   000056   90....       MOV       DPTR,#_NIB + 20
   \   000059   E0           MOVX      A,@DPTR
   \   00005A   FC           MOV       R4,A
   \   00005B   A3           INC       DPTR
   \   00005C   E0           MOVX      A,@DPTR
   \   00005D   FD           MOV       R5,A
   \   00005E   EC           MOV       A,R4
   \   00005F   4D           ORL       A,R5
   \   000060   6020         JZ        ??nwk_Status_10
   \   000062   74FE         MOV       A,#-0x2
   \   000064   6C           XRL       A,R4
   \   000065   7003         JNZ       ??nwk_Status_11
   \   000067   74FF         MOV       A,#-0x1
   \   000069   6D           XRL       A,R5
   \                     ??nwk_Status_11:
   \   00006A   6016         JZ        ??nwk_Status_10
    517                {
    518                  HalLcdWriteStringValue( (char*)RouterStr, _NIB.nwkDevAddress, 16, HAL_LCD_DEBUG_LINE_1 );
   \   00006C                ; Setup parameters for call to function HalLcdWriteStringValue
   \   00006C   75..01       MOV       ?V2,#0x1
   \   00006F   78..         MOV       R0,#?V2
   \   000071   12....       LCALL     ?PUSH_XSTACK_I_ONE
   \   000074   7910         MOV       R1,#0x10
   \   000076   7A..         MOV       R2,#RouterStr & 0xff
   \   000078   7B..         MOV       R3,#(RouterStr >> 8) & 0xff
   \   00007A   12....       LCALL     `??HalLcdWriteStringValue::?relay`; Banked call to: HalLcdWriteStringValue
   \   00007D   7401         MOV       A,#0x1
   \   00007F   12....       LCALL     ?DEALLOC_XSTACK8
    519                }
    520                
    521                  HalLcdWriteStringValue( (char*)NetworkIDStr, statusValue, 16, HAL_LCD_DEBUG_LINE_2 );
   \                     ??nwk_Status_10:
   \   000082                ; Setup parameters for call to function HalLcdWriteStringValue
   \   000082   75..02       MOV       ?V2,#0x2
   \   000085   78..         MOV       R0,#?V2
   \   000087   12....       LCALL     ?PUSH_XSTACK_I_ONE
   \   00008A   7910         MOV       R1,#0x10
   \   00008C   AC..         MOV       R4,?V0
   \   00008E   AD..         MOV       R5,?V1
   \   000090   7A..         MOV       R2,#NetworkIDStr & 0xff
   \   000092   7B..         MOV       R3,#(NetworkIDStr >> 8) & 0xff
   \   000094   12....       LCALL     `??HalLcdWriteStringValue::?relay`; Banked call to: HalLcdWriteStringValue
   \   000097   7401         MOV       A,#0x1
   \   000099   12....       LCALL     ?DEALLOC_XSTACK8
    522                  BuzzerControl( BUZZER_BLIP );
   \   00009C                ; Setup parameters for call to function BuzzerControl
   \   00009C   7902         MOV       R1,#0x2
   \   00009E   12....       LCALL     `??BuzzerControl::?relay`; Banked call to: BuzzerControl
    523                }
    524                break;
   \   0000A1   807A         SJMP      ??nwk_Status_8
    525          
    526              case NWK_STATUS_ROUTER_ADDR:
    527                if ( ZSTACK_ROUTER_BUILD )
    528                {
    529                  HalLcdWriteStringValue( (char*)RouterStr, statusValue, 16, HAL_LCD_DEBUG_LINE_1 );
   \                     ??nwk_Status_3:
   \   0000A3                ; Setup parameters for call to function HalLcdWriteStringValue
   \   0000A3   75..01       MOV       ?V2,#0x1
   \   0000A6   78..         MOV       R0,#?V2
   \   0000A8   12....       LCALL     ?PUSH_XSTACK_I_ONE
   \   0000AB   7910         MOV       R1,#0x10
   \   0000AD   7A..         MOV       R2,#RouterStr & 0xff
   \   0000AF   7B..         MOV       R3,#(RouterStr >> 8) & 0xff
   \   0000B1   802B         SJMP      ??nwk_Status_12
    530                }
    531                break;
    532          
    533              case NWK_STATUS_ORPHAN_RSP:
    534                if ( ZSTACK_ROUTER_BUILD )
    535                {
    536                  if ( statusValue == ZSuccess )
   \                     ??nwk_Status_4:
   \   0000B3   7A..         MOV       R2,#OrphanRspStr & 0xff
   \   0000B5   7B..         MOV       R3,#(OrphanRspStr >> 8) & 0xff
   \   0000B7   EC           MOV       A,R4
   \   0000B8   45..         ORL       A,?V1
   \   0000BA   7006         JNZ       ??nwk_Status_13
    537                    HalLcdWriteScreen( (char*)OrphanRspStr, (char*)SentStr );
   \   0000BC                ; Setup parameters for call to function HalLcdWriteScreen
   \   0000BC   7C..         MOV       R4,#SentStr & 0xff
   \   0000BE   7D..         MOV       R5,#(SentStr >> 8) & 0xff
   \   0000C0   8058         SJMP      ??nwk_Status_14
    538                  else
    539                    HalLcdWriteScreen( (char*)OrphanRspStr, (char*)FailedStr );
   \                     ??nwk_Status_13:
   \   0000C2                ; Setup parameters for call to function HalLcdWriteScreen
   \   0000C2   7C..         MOV       R4,#FailedStr & 0xff
   \   0000C4   7D..         MOV       R5,#(FailedStr >> 8) & 0xff
   \   0000C6   8052         SJMP      ??nwk_Status_14
    540                }
    541                break;
    542          
    543              case NWK_ERROR_ASSOC_RSP:
    544                if ( ZSTACK_ROUTER_BUILD )
    545                {
    546                  HalLcdWriteString( (char*)AssocRspFailStr, HAL_LCD_DEBUG_LINE_1 );
   \                     ??nwk_Status_5:
   \   0000C8                ; Setup parameters for call to function HalLcdWriteString
   \   0000C8   7901         MOV       R1,#0x1
   \   0000CA   7A..         MOV       R2,#AssocRspFailStr & 0xff
   \   0000CC   7B..         MOV       R3,#(AssocRspFailStr >> 8) & 0xff
   \   0000CE   8023         SJMP      ??nwk_Status_15
    547                  HalLcdWriteValue( (uint32)(statusValue), 16, HAL_LCD_DEBUG_LINE_2 );
    548                }
    549                break;
    550          
    551              case NWK_STATUS_ED_ADDR:
    552                if ( ZSTACK_END_DEVICE_BUILD )
    553                {
    554                  HalLcdWriteStringValue( (char*)EndDeviceStr, statusValue, 16, HAL_LCD_DEBUG_LINE_1 );
    555                }
    556                break;
    557          
    558              case NWK_STATUS_PARENT_ADDR:
    559                      HalLcdWriteStringValue( (char*)ParentStr, statusValue, 16, HAL_LCD_DEBUG_LINE_2 );
   \                     ??nwk_Status_1:
   \   0000D0                ; Setup parameters for call to function HalLcdWriteStringValue
   \   0000D0   75..02       MOV       ?V2,#0x2
   \   0000D3   78..         MOV       R0,#?V2
   \   0000D5   12....       LCALL     ?PUSH_XSTACK_I_ONE
   \   0000D8   7910         MOV       R1,#0x10
   \   0000DA   7A..         MOV       R2,#ParentStr & 0xff
   \   0000DC   7B..         MOV       R3,#(ParentStr >> 8) & 0xff
   \                     ??nwk_Status_12:
   \   0000DE   12....       LCALL     `??HalLcdWriteStringValue::?relay`; Banked call to: HalLcdWriteStringValue
   \   0000E1   8028         SJMP      ??nwk_Status_16
    560                break;
    561          
    562              case NWK_STATUS_ASSOC_CNF:
    563                HalLcdWriteScreen( (char*)AssocCnfStr, (char*)SuccessStr );
   \                     ??nwk_Status_0:
   \   0000E3                ; Setup parameters for call to function HalLcdWriteScreen
   \   0000E3   7C..         MOV       R4,#SuccessStr & 0xff
   \   0000E5   7D..         MOV       R5,#(SuccessStr >> 8) & 0xff
   \   0000E7   7A..         MOV       R2,#AssocCnfStr & 0xff
   \   0000E9   7B..         MOV       R3,#(AssocCnfStr >> 8) & 0xff
   \   0000EB   802D         SJMP      ??nwk_Status_14
    564                break;
    565          
    566              case NWK_ERROR_ASSOC_CNF_DENIED:
    567                HalLcdWriteString((char*)AssocCnfFailStr, HAL_LCD_DEBUG_LINE_1 );
   \                     ??nwk_Status_6:
   \   0000ED                ; Setup parameters for call to function HalLcdWriteString
   \   0000ED   7901         MOV       R1,#0x1
   \   0000EF   7A..         MOV       R2,#AssocCnfFailStr & 0xff
   \   0000F1   7B..         MOV       R3,#(AssocCnfFailStr >> 8) & 0xff
   \                     ??nwk_Status_15:
   \   0000F3   12....       LCALL     `??HalLcdWriteString::?relay`; Banked call to: HalLcdWriteString
    568                HalLcdWriteValue( (uint32)(statusValue), 16, HAL_LCD_DEBUG_LINE_2 );
   \   0000F6                ; Setup parameters for call to function HalLcdWriteValue
   \   0000F6   75..02       MOV       ?V0,#0x2
   \   0000F9   78..         MOV       R0,#?V0
   \   0000FB   12....       LCALL     ?PUSH_XSTACK_I_ONE
   \   0000FE   7910         MOV       R1,#0x10
   \   000100   AA..         MOV       R2,?V4
   \   000102   AB..         MOV       R3,?V5
   \   000104   AC..         MOV       R4,?V6
   \   000106   AD..         MOV       R5,?V7
   \   000108   12....       LCALL     `??HalLcdWriteValue::?relay`; Banked call to: HalLcdWriteValue
   \                     ??nwk_Status_16:
   \   00010B   7401         MOV       A,#0x1
   \   00010D   12....       LCALL     ?DEALLOC_XSTACK8
    569                break;
   \   000110   800B         SJMP      ??nwk_Status_8
    570          
    571              case NWK_ERROR_ENERGY_SCAN_FAILED:
    572                HalLcdWriteScreen( (char*)EnergyLevelStr, (char*)ScanFailedStr );
   \                     ??nwk_Status_7:
   \   000112                ; Setup parameters for call to function HalLcdWriteScreen
   \   000112   7C..         MOV       R4,#ScanFailedStr & 0xff
   \   000114   7D..         MOV       R5,#(ScanFailedStr >> 8) & 0xff
   \   000116   7A..         MOV       R2,#EnergyLevelStr & 0xff
   \   000118   7B..         MOV       R3,#(EnergyLevelStr >> 8) & 0xff
   \                     ??nwk_Status_14:
   \   00011A   12....       LCALL     `??HalLcdWriteScreen::?relay`; Banked call to: HalLcdWriteScreen
    573                break;
    574            }
    575          #endif
    576          }
   \                     ??nwk_Status_8:
   \   00011D   7F08         MOV       R7,#0x8
   \   00011F   02....       LJMP      ?BANKED_LEAVE_XDATA
    577          
    578          /*********************************************************************
    579           * @fn      nwk_adjustDelay()
    580           *
    581           * @brief   Adjust the retransmit delay. Modify this function to
    582           *          change the default delay behavior.
    583           *
    584           * @param   existingDelay - default delay
    585           * @param   confirmStatus - data confirm status
    586           * @param   bufOptions - network buffer options
    587           *
    588           * @return  delay value - this number is the number of
    589           *          network event ticks (~2ms).
    590           */

   \                                 In  segment BANKED_CODE, align 1, keep-with-next
    591          uint16 nwk_adjustDelay( uint16 existingDelay, uint8 confirmStatus, uint16 bufOptions )
   \                     nwk_adjustDelay:
    592          {
   \   000000                REQUIRE ?V0
   \   000000                REQUIRE ?V1
   \   000000   74F6         MOV       A,#-0xa
   \   000002   12....       LCALL     ?BANKED_ENTER_XDATA
   \   000005                ; Saved register size: 10
   \   000005                ; Auto size: 0
   \   000005   E9           MOV       A,R1
   \   000006   FE           MOV       R6,A
    593            uint16 result = existingDelay;
   \   000007   EA           MOV       A,R2
   \   000008   F8           MOV       R0,A
   \   000009   EB           MOV       A,R3
   \   00000A   F9           MOV       R1,A
    594            uint16 mask = 0;       // Random mask
    595            uint16 startValue = 0; // Start value
    596          
    597            switch ( confirmStatus )
   \   00000B   EE           MOV       A,R6
   \   00000C   241F         ADD       A,#0x1f
   \   00000E   6004         JZ        ??nwk_adjustDelay_0
   \   000010   24F0         ADD       A,#-0x10
   \   000012   7013         JNZ       ??nwk_adjustDelay_1
    598            {
    599              case ZMacTransactionOverFlow:
    600              case ZMacChannelAccessFailure:
    601                if ( bufOptions & (HANDLE_DELAY | HANDLE_HI_DELAY) )
   \                     ??nwk_adjustDelay_0:
   \   000014   EC           MOV       A,R4
   \   000015   5430         ANL       A,#0x30
   \   000017   600E         JZ        ??nwk_adjustDelay_1
    602                {
    603                  // Delay 4 - 18 ms
    604                  mask = 0x0007;
    605                  startValue = 2;
    606                }
    607                break;
    608          
    609              case ZNwkNoRoute:
    610              case ZMAC_NO_RESOURCES:
    611              case ZMacNoACK:
    612              default:
    613                // leave default delay
    614                mask = 0;
    615                startValue = 0;
    616                break;
    617            }
    618          
    619            if ( (mask > 0) && (startValue > 0) )
    620            {
    621              result = (osal_rand() & mask) + startValue;
   \   000019                ; Setup parameters for call to function osal_rand
   \   000019   12....       LCALL     `??osal_rand::?relay`; Banked call to: osal_rand
   \   00001C   EA           MOV       A,R2
   \   00001D   5407         ANL       A,#0x7
   \   00001F   7900         MOV       R1,#0x0
   \   000021   2402         ADD       A,#0x2
   \   000023   F8           MOV       R0,A
   \   000024   5001         JNC       ??nwk_adjustDelay_1
   \   000026   09           INC       R1
    622            }
    623          
    624            return ( result );
   \                     ??nwk_adjustDelay_1:
   \   000027   E8           MOV       A,R0
   \   000028   FA           MOV       R2,A
   \   000029   E9           MOV       A,R1
   \   00002A   FB           MOV       R3,A
   \   00002B   02....       LJMP      ?Subroutine0 & 0xFFFF
    625          }

   \                                 In  segment XDATA_ID, align 1, keep-with-next
   \                     `?<Initializer for gMIN_TREE_LQI>`:
   \   000000   06           DB 6

   \                                 In  segment BANK_RELAYS, align 1
   \                     `??nwk_globals_init::?relay`:
   \   000000   12....       LCALL   ?BDISPATCH
   \   000003   ......       DC24    nwk_globals_init

   \                                 In  segment BANK_RELAYS, align 1
   \                     `??NIB_init::?relay`:
   \   000000   12....       LCALL   ?BDISPATCH
   \   000003   ......       DC24    NIB_init

   \                                 In  segment BANK_RELAYS, align 1
   \                     `??nwk_Status::?relay`:
   \   000000   12....       LCALL   ?BDISPATCH
   \   000003   ......       DC24    nwk_Status

   \                                 In  segment BANK_RELAYS, align 1
   \                     `??nwk_adjustDelay::?relay`:
   \   000000   12....       LCALL   ?BDISPATCH
   \   000003   ......       DC24    nwk_adjustDelay
    626          
    627          /*********************************************************************
    628          *********************************************************************/

   Maximum stack usage in bytes:

   ISTACK XSTACK Function
   ------ ------ --------
      0     14   NIB_init
        0     10   -> NLME_SetUpdateID
        0     10   -> osal_memset
        0     14   -> osal_nv_read
        0     10   -> osal_rand
        0     10   -> sAddrExtCpy
      0     17   nwk_Status
        0     16   -> BuzzerControl
        0     16   -> HalLcdWriteScreen
        0     16   -> HalLcdWriteString
        0     17   -> HalLcdWriteStringValue
        0     17   -> HalLcdWriteValue
      0     10   nwk_adjustDelay
        0     10   -> osal_rand
      2      0   nwk_globals_init
        2      0   -> AddrMgrInit
        2      0   -> NwkFreqAgilityInit
        2      0   -> NwkInitChildAging


   Segment part sizes:

   Bytes  Function/Label
   -----  --------------
       1  ?<Initializer for gMIN_TREE_LQI>
       5  ?Subroutine0
       9  ?Subroutine1
      15  AssocCnfFailStr
      10  AssocCnfStr
      10  AssocIndStr
      15  AssocRspFailStr
     168  AssociatedDevList
      56  BindingTable
       2  Cskip
       1  CskipChldrn
       1  CskipRtrs
      11  EndDeviceStr
      13  EnergyLevelStr
       7  FailedStr
     262  NIB_init
       6  NIB_init::?relay
      12  NetworkIDStr
      16  OrphanRspStr
       8  ParentStr
      15  PingStr
       8  RouterStr
      12  ScanFailedStr
       5  SentStr
       8  SuccessStr
      13  ZigbeeCoordStr
      36  bcastHoldAckMask
       9  bcastHoldHandle
      72  bcastTable
      16  defaultKey
      16  defaultTCLinkKey
      16  distributedDefaultKey
       1  gAPS_MAX_GROUPS
       2  gBIND_REC_SIZE
       1  gDEFAULT_ROUTE_REQUEST_RADIUS
       1  gDEF_NWK_RADIUS
       1  gGOOD_LINK_COST
       1  gLINK_DOWN_TRIGGER
       2  gLINK_STATUS_JITTER_MASK
       1  gMAX_BCAST
       1  gMAX_BINDING_CLUSTER_IDS
       1  gMAX_BROADCAST_QUEUED
       1  gMAX_NEIGHBOR_ENTRIES
       1  gMAX_NOT_MYCHILD_DEVICES
       4  gMAX_NWK_FRAMECOUNTER_CHANGES
       1  gMAX_NWK_SEC_MATERIAL_TABLE_ENTRIES
       1  gMAX_PASSIVE_ACK_CNT
       1  gMAX_RREQ_ENTRIES
       1  gMAX_RTG_ENTRIES
       1  gMAX_RTG_SRC_ENTRIES
       1  gMAX_SOURCE_ROUTE
       1  gMIN_TREE_LQI
       1  gMTO_ROUTE_EXPIRY_TIME
       2  gMTO_RREQ_LIMIT_TIME
       1  gNWK_CONFLICTED_ADDR_EXPIRY_TIME
       1  gNWK_FREQ_AGILITY_ALL_MAC_ERRS
       1  gNWK_INDIRECT_CNT_RTG_TMR
       1  gNWK_INDIRECT_MSG_MAX_ALL
       1  gNWK_INDIRECT_MSG_MAX_PER
       1  gNWK_MAX_BINDING_ENTRIES
       1  gNWK_MAX_DATABUFS_CONFIRMED
       1  gNWK_MAX_DATABUFS_SCHEDULED
       1  gNWK_MAX_DATABUFS_TOTAL
       1  gNWK_MAX_DATABUFS_WAITING
       1  gNWK_MAX_DEVICE_LIST
       2  gNWK_MAX_POLL_COUNT
       1  gNWK_MAX_SLEEPING_END_DEVICES
       2  gNWK_MIN_ENDDEVICE_CHILDREN
       2  gNWK_MIN_ROUTER_CHILDREN
       1  gNWK_TREE_ALLOCATE_ROUTERADDR_FOR_ENDDEVICE
     368  neighborTable
      20  notMyChildList
       2  nwkPollCount
     290  nwk_Status
       6  nwk_Status::?relay
      46  nwk_adjustDelay
       6  nwk_adjustDelay::?relay
      32  nwk_globals_init
       6  nwk_globals_init::?relay
      64  rtDiscTable
      24  rtgSrcRelayList
      72  rtgSrcTable
     280  rtgTable
      60  timeoutValue

 
   644 bytes in segment BANKED_CODE
    24 bytes in segment BANK_RELAYS
   154 bytes in segment CODE_C
     1 byte  in segment XDATA_I
     1 byte  in segment XDATA_ID
   178 bytes in segment XDATA_ROM_C
 1 175 bytes in segment XDATA_Z
 
   179 bytes of CODE     memory
   178 bytes of CONST    memory
   644 bytes of HUGECODE memory
 1 176 bytes of XDATA    memory

Errors: none
Warnings: none
